{
    "_format": "hh-sol-artifact-1",
    "contractName": "MultiSignatureTreasuryVault",
    "sourceName": "contracts/TreasuryVault.sol",
    "abi": [
        {
            "inputs": [],
            "stateMutability": "nonpayable",
            "type": "constructor"
        },
        {
            "inputs": [],
            "name": "AccessControlBadConfirmation",
            "type": "error"
        },
        {
            "inputs": [
                {
                    "internalType": "address",
                    "name": "account",
                    "type": "address"
                },
                {
                    "internalType": "bytes32",
                    "name": "neededRole",
                    "type": "bytes32"
                }
            ],
            "name": "AccessControlUnauthorizedAccount",
            "type": "error"
        },
        {
            "inputs": [
                {
                    "internalType": "address",
                    "name": "target",
                    "type": "address"
                }
            ],
            "name": "AddressEmptyCode",
            "type": "error"
        },
        {
            "inputs": [
                {
                    "internalType": "address",
                    "name": "implementation",
                    "type": "address"
                }
            ],
            "name": "ERC1967InvalidImplementation",
            "type": "error"
        },
        {
            "inputs": [],
            "name": "ERC1967NonPayable",
            "type": "error"
        },
        {
            "inputs": [],
            "name": "EnforcedPause",
            "type": "error"
        },
        {
            "inputs": [],
            "name": "ExpectedPause",
            "type": "error"
        },
        {
            "inputs": [],
            "name": "FailedInnerCall",
            "type": "error"
        },
        {
            "inputs": [],
            "name": "InvalidInitialization",
            "type": "error"
        },
        {
            "inputs": [],
            "name": "NotInitializing",
            "type": "error"
        },
        {
            "inputs": [],
            "name": "ReentrancyGuardReentrantCall",
            "type": "error"
        },
        {
            "inputs": [],
            "name": "UUPSUnauthorizedCallContext",
            "type": "error"
        },
        {
            "inputs": [
                {
                    "internalType": "bytes32",
                    "name": "slot",
                    "type": "bytes32"
                }
            ],
            "name": "UUPSUnsupportedProxiableUUID",
            "type": "error"
        },
        {
            "anonymous": false,
            "inputs": [
                {
                    "indexed": true,
                    "internalType": "address",
                    "name": "newDistributionContract",
                    "type": "address"
                }
            ],
            "name": "DistributionContractUpdated",
            "type": "event"
        },
        {
            "anonymous": false,
            "inputs": [
                {
                    "indexed": false,
                    "internalType": "uint64",
                    "name": "version",
                    "type": "uint64"
                }
            ],
            "name": "Initialized",
            "type": "event"
        },
        {
            "anonymous": false,
            "inputs": [
                {
                    "indexed": true,
                    "internalType": "address",
                    "name": "newLydiaWalletAdmin",
                    "type": "address"
                }
            ],
            "name": "LydiaWalletAdminUpdated",
            "type": "event"
        },
        {
            "anonymous": false,
            "inputs": [
                {
                    "indexed": true,
                    "internalType": "address",
                    "name": "approver",
                    "type": "address"
                }
            ],
            "name": "PauseApproved",
            "type": "event"
        },
        {
            "anonymous": false,
            "inputs": [
                {
                    "indexed": true,
                    "internalType": "bool",
                    "name": "paused",
                    "type": "bool"
                }
            ],
            "name": "PauseExecuted",
            "type": "event"
        },
        {
            "anonymous": false,
            "inputs": [
                {
                    "indexed": true,
                    "internalType": "bool",
                    "name": "pause",
                    "type": "bool"
                }
            ],
            "name": "PauseRequested",
            "type": "event"
        },
        {
            "anonymous": false,
            "inputs": [
                {
                    "indexed": true,
                    "internalType": "address",
                    "name": "revoker",
                    "type": "address"
                }
            ],
            "name": "PauseRevoked",
            "type": "event"
        },
        {
            "anonymous": false,
            "inputs": [
                {
                    "indexed": false,
                    "internalType": "address",
                    "name": "account",
                    "type": "address"
                }
            ],
            "name": "Paused",
            "type": "event"
        },
        {
            "anonymous": false,
            "inputs": [
                {
                    "indexed": true,
                    "internalType": "bytes32",
                    "name": "role",
                    "type": "bytes32"
                },
                {
                    "indexed": true,
                    "internalType": "bytes32",
                    "name": "previousAdminRole",
                    "type": "bytes32"
                },
                {
                    "indexed": true,
                    "internalType": "bytes32",
                    "name": "newAdminRole",
                    "type": "bytes32"
                }
            ],
            "name": "RoleAdminChanged",
            "type": "event"
        },
        {
            "anonymous": false,
            "inputs": [
                {
                    "indexed": true,
                    "internalType": "bytes32",
                    "name": "role",
                    "type": "bytes32"
                },
                {
                    "indexed": true,
                    "internalType": "address",
                    "name": "account",
                    "type": "address"
                },
                {
                    "indexed": true,
                    "internalType": "address",
                    "name": "sender",
                    "type": "address"
                }
            ],
            "name": "RoleGranted",
            "type": "event"
        },
        {
            "anonymous": false,
            "inputs": [
                {
                    "indexed": true,
                    "internalType": "bytes32",
                    "name": "role",
                    "type": "bytes32"
                },
                {
                    "indexed": true,
                    "internalType": "address",
                    "name": "account",
                    "type": "address"
                },
                {
                    "indexed": true,
                    "internalType": "address",
                    "name": "sender",
                    "type": "address"
                }
            ],
            "name": "RoleRevoked",
            "type": "event"
        },
        {
            "anonymous": false,
            "inputs": [
                {
                    "indexed": true,
                    "internalType": "address",
                    "name": "signer",
                    "type": "address"
                }
            ],
            "name": "SignerAdded",
            "type": "event"
        },
        {
            "anonymous": false,
            "inputs": [
                {
                    "indexed": true,
                    "internalType": "address",
                    "name": "signer",
                    "type": "address"
                }
            ],
            "name": "SignerRemoved",
            "type": "event"
        },
        {
            "anonymous": false,
            "inputs": [
                {
                    "indexed": true,
                    "internalType": "uint256",
                    "name": "txId",
                    "type": "uint256"
                },
                {
                    "indexed": true,
                    "internalType": "address",
                    "name": "approver",
                    "type": "address"
                }
            ],
            "name": "TransactionApproved",
            "type": "event"
        },
        {
            "anonymous": false,
            "inputs": [
                {
                    "indexed": true,
                    "internalType": "uint256",
                    "name": "txId",
                    "type": "uint256"
                }
            ],
            "name": "TransactionExecuted",
            "type": "event"
        },
        {
            "anonymous": false,
            "inputs": [
                {
                    "indexed": true,
                    "internalType": "uint256",
                    "name": "txId",
                    "type": "uint256"
                },
                {
                    "indexed": true,
                    "internalType": "address",
                    "name": "to",
                    "type": "address"
                },
                {
                    "indexed": false,
                    "internalType": "uint256",
                    "name": "amount",
                    "type": "uint256"
                },
                {
                    "indexed": true,
                    "internalType": "address",
                    "name": "token",
                    "type": "address"
                }
            ],
            "name": "TransactionSubmitted",
            "type": "event"
        },
        {
            "anonymous": false,
            "inputs": [
                {
                    "indexed": false,
                    "internalType": "address",
                    "name": "account",
                    "type": "address"
                }
            ],
            "name": "Unpaused",
            "type": "event"
        },
        {
            "anonymous": false,
            "inputs": [
                {
                    "indexed": true,
                    "internalType": "address",
                    "name": "implementation",
                    "type": "address"
                }
            ],
            "name": "Upgraded",
            "type": "event"
        },
        {
            "anonymous": false,
            "inputs": [
                {
                    "indexed": false,
                    "internalType": "address",
                    "name": "newstableCoin",
                    "type": "address"
                }
            ],
            "name": "stableCoinUpdated",
            "type": "event"
        },
        {
            "inputs": [],
            "name": "DEFAULT_ADMIN_ROLE",
            "outputs": [
                {
                    "internalType": "bytes32",
                    "name": "",
                    "type": "bytes32"
                }
            ],
            "stateMutability": "view",
            "type": "function"
        },
        {
            "inputs": [],
            "name": "UPGRADER_ROLE",
            "outputs": [
                {
                    "internalType": "bytes32",
                    "name": "",
                    "type": "bytes32"
                }
            ],
            "stateMutability": "view",
            "type": "function"
        },
        {
            "inputs": [],
            "name": "UPGRADE_INTERFACE_VERSION",
            "outputs": [
                {
                    "internalType": "string",
                    "name": "",
                    "type": "string"
                }
            ],
            "stateMutability": "view",
            "type": "function"
        },
        {
            "inputs": [
                {
                    "internalType": "address",
                    "name": "newSigner",
                    "type": "address"
                }
            ],
            "name": "addSigner",
            "outputs": [],
            "stateMutability": "nonpayable",
            "type": "function"
        },
        {
            "inputs": [],
            "name": "approvePauseUnpause",
            "outputs": [],
            "stateMutability": "nonpayable",
            "type": "function"
        },
        {
            "inputs": [
                {
                    "internalType": "uint256",
                    "name": "txId",
                    "type": "uint256"
                }
            ],
            "name": "approveTransaction",
            "outputs": [],
            "stateMutability": "nonpayable",
            "type": "function"
        },
        {
            "inputs": [
                {
                    "internalType": "uint256",
                    "name": "_amount",
                    "type": "uint256"
                },
                {
                    "internalType": "string",
                    "name": "tokenType",
                    "type": "string"
                }
            ],
            "name": "burnTokens",
            "outputs": [],
            "stateMutability": "nonpayable",
            "type": "function"
        },
        {
            "inputs": [],
            "name": "distributionContract",
            "outputs": [
                {
                    "internalType": "address",
                    "name": "",
                    "type": "address"
                }
            ],
            "stateMutability": "view",
            "type": "function"
        },
        {
            "inputs": [
                {
                    "internalType": "bytes32",
                    "name": "role",
                    "type": "bytes32"
                }
            ],
            "name": "getRoleAdmin",
            "outputs": [
                {
                    "internalType": "bytes32",
                    "name": "",
                    "type": "bytes32"
                }
            ],
            "stateMutability": "view",
            "type": "function"
        },
        {
            "inputs": [],
            "name": "getSignerCount",
            "outputs": [
                {
                    "internalType": "uint256",
                    "name": "",
                    "type": "uint256"
                }
            ],
            "stateMutability": "view",
            "type": "function"
        },
        {
            "inputs": [],
            "name": "getSigners",
            "outputs": [
                {
                    "internalType": "address[]",
                    "name": "",
                    "type": "address[]"
                }
            ],
            "stateMutability": "view",
            "type": "function"
        },
        {
            "inputs": [
                {
                    "internalType": "address",
                    "name": "token",
                    "type": "address"
                }
            ],
            "name": "getVaultBalance",
            "outputs": [
                {
                    "internalType": "uint256",
                    "name": "",
                    "type": "uint256"
                }
            ],
            "stateMutability": "view",
            "type": "function"
        },
        {
            "inputs": [
                {
                    "internalType": "bytes32",
                    "name": "role",
                    "type": "bytes32"
                },
                {
                    "internalType": "address",
                    "name": "account",
                    "type": "address"
                }
            ],
            "name": "grantRole",
            "outputs": [],
            "stateMutability": "nonpayable",
            "type": "function"
        },
        {
            "inputs": [
                {
                    "internalType": "uint256",
                    "name": "",
                    "type": "uint256"
                },
                {
                    "internalType": "address",
                    "name": "",
                    "type": "address"
                }
            ],
            "name": "hasApproved",
            "outputs": [
                {
                    "internalType": "bool",
                    "name": "",
                    "type": "bool"
                }
            ],
            "stateMutability": "view",
            "type": "function"
        },
        {
            "inputs": [
                {
                    "internalType": "address",
                    "name": "",
                    "type": "address"
                }
            ],
            "name": "hasApprovedPause",
            "outputs": [
                {
                    "internalType": "bool",
                    "name": "",
                    "type": "bool"
                }
            ],
            "stateMutability": "view",
            "type": "function"
        },
        {
            "inputs": [
                {
                    "internalType": "bytes32",
                    "name": "role",
                    "type": "bytes32"
                },
                {
                    "internalType": "address",
                    "name": "account",
                    "type": "address"
                }
            ],
            "name": "hasRole",
            "outputs": [
                {
                    "internalType": "bool",
                    "name": "",
                    "type": "bool"
                }
            ],
            "stateMutability": "view",
            "type": "function"
        },
        {
            "inputs": [
                {
                    "internalType": "address[]",
                    "name": "_signers",
                    "type": "address[]"
                },
                {
                    "internalType": "uint256",
                    "name": "_requiredApprovals",
                    "type": "uint256"
                },
                {
                    "internalType": "address",
                    "name": "walletAdmin",
                    "type": "address"
                }
            ],
            "name": "initialize",
            "outputs": [],
            "stateMutability": "nonpayable",
            "type": "function"
        },
        {
            "inputs": [
                {
                    "internalType": "address",
                    "name": "",
                    "type": "address"
                }
            ],
            "name": "isSigner",
            "outputs": [
                {
                    "internalType": "bool",
                    "name": "",
                    "type": "bool"
                }
            ],
            "stateMutability": "view",
            "type": "function"
        },
        {
            "inputs": [],
            "name": "lydiaWalletAdmin",
            "outputs": [
                {
                    "internalType": "address",
                    "name": "",
                    "type": "address"
                }
            ],
            "stateMutability": "view",
            "type": "function"
        },
        {
            "inputs": [],
            "name": "pauseRequest",
            "outputs": [
                {
                    "internalType": "bool",
                    "name": "pause",
                    "type": "bool"
                },
                {
                    "internalType": "uint256",
                    "name": "approvals",
                    "type": "uint256"
                },
                {
                    "internalType": "bool",
                    "name": "executed",
                    "type": "bool"
                }
            ],
            "stateMutability": "view",
            "type": "function"
        },
        {
            "inputs": [],
            "name": "paused",
            "outputs": [
                {
                    "internalType": "bool",
                    "name": "",
                    "type": "bool"
                }
            ],
            "stateMutability": "view",
            "type": "function"
        },
        {
            "inputs": [],
            "name": "proxiableUUID",
            "outputs": [
                {
                    "internalType": "bytes32",
                    "name": "",
                    "type": "bytes32"
                }
            ],
            "stateMutability": "view",
            "type": "function"
        },
        {
            "inputs": [
                {
                    "internalType": "address",
                    "name": "signerToRemove",
                    "type": "address"
                }
            ],
            "name": "removeSigner",
            "outputs": [],
            "stateMutability": "nonpayable",
            "type": "function"
        },
        {
            "inputs": [
                {
                    "internalType": "bytes32",
                    "name": "role",
                    "type": "bytes32"
                },
                {
                    "internalType": "address",
                    "name": "callerConfirmation",
                    "type": "address"
                }
            ],
            "name": "renounceRole",
            "outputs": [],
            "stateMutability": "nonpayable",
            "type": "function"
        },
        {
            "inputs": [
                {
                    "internalType": "bool",
                    "name": "pause",
                    "type": "bool"
                }
            ],
            "name": "requestPauseUnpause",
            "outputs": [],
            "stateMutability": "nonpayable",
            "type": "function"
        },
        {
            "inputs": [],
            "name": "requiredApprovals",
            "outputs": [
                {
                    "internalType": "uint256",
                    "name": "",
                    "type": "uint256"
                }
            ],
            "stateMutability": "view",
            "type": "function"
        },
        {
            "inputs": [],
            "name": "revokeApproval",
            "outputs": [],
            "stateMutability": "nonpayable",
            "type": "function"
        },
        {
            "inputs": [
                {
                    "internalType": "bytes32",
                    "name": "role",
                    "type": "bytes32"
                },
                {
                    "internalType": "address",
                    "name": "account",
                    "type": "address"
                }
            ],
            "name": "revokeRole",
            "outputs": [],
            "stateMutability": "nonpayable",
            "type": "function"
        },
        {
            "inputs": [
                {
                    "internalType": "address",
                    "name": "newDistributionContract",
                    "type": "address"
                }
            ],
            "name": "setDistributionContract",
            "outputs": [],
            "stateMutability": "nonpayable",
            "type": "function"
        },
        {
            "inputs": [
                {
                    "internalType": "address",
                    "name": "newWalletAdmin",
                    "type": "address"
                }
            ],
            "name": "setLydiaWalletAdmin",
            "outputs": [],
            "stateMutability": "nonpayable",
            "type": "function"
        },
        {
            "inputs": [
                {
                    "internalType": "address",
                    "name": "newstableCoin",
                    "type": "address"
                }
            ],
            "name": "setStableCoin",
            "outputs": [],
            "stateMutability": "nonpayable",
            "type": "function"
        },
        {
            "inputs": [
                {
                    "internalType": "uint256",
                    "name": "",
                    "type": "uint256"
                }
            ],
            "name": "signers",
            "outputs": [
                {
                    "internalType": "address",
                    "name": "",
                    "type": "address"
                }
            ],
            "stateMutability": "view",
            "type": "function"
        },
        {
            "inputs": [],
            "name": "stableCoin",
            "outputs": [
                {
                    "internalType": "address",
                    "name": "",
                    "type": "address"
                }
            ],
            "stateMutability": "view",
            "type": "function"
        },
        {
            "inputs": [
                {
                    "internalType": "uint256",
                    "name": "_amount",
                    "type": "uint256"
                },
                {
                    "internalType": "address",
                    "name": "_token",
                    "type": "address"
                }
            ],
            "name": "submitTransaction",
            "outputs": [],
            "stateMutability": "nonpayable",
            "type": "function"
        },
        {
            "inputs": [
                {
                    "internalType": "bytes4",
                    "name": "interfaceId",
                    "type": "bytes4"
                }
            ],
            "name": "supportsInterface",
            "outputs": [
                {
                    "internalType": "bool",
                    "name": "",
                    "type": "bool"
                }
            ],
            "stateMutability": "view",
            "type": "function"
        },
        {
            "inputs": [
                {
                    "internalType": "uint256",
                    "name": "",
                    "type": "uint256"
                }
            ],
            "name": "transactions",
            "outputs": [
                {
                    "internalType": "address",
                    "name": "to",
                    "type": "address"
                },
                {
                    "internalType": "uint256",
                    "name": "amount",
                    "type": "uint256"
                },
                {
                    "internalType": "address",
                    "name": "token",
                    "type": "address"
                },
                {
                    "internalType": "uint256",
                    "name": "approvals",
                    "type": "uint256"
                },
                {
                    "internalType": "bool",
                    "name": "executed",
                    "type": "bool"
                }
            ],
            "stateMutability": "view",
            "type": "function"
        },
        {
            "inputs": [
                {
                    "internalType": "address",
                    "name": "newImplementation",
                    "type": "address"
                },
                {
                    "internalType": "bytes",
                    "name": "data",
                    "type": "bytes"
                }
            ],
            "name": "upgradeToAndCall",
            "outputs": [],
            "stateMutability": "payable",
            "type": "function"
        }
    ],
    "bytecode": "0x60a080604052346100cc57306080527ff0c57e16840df040f15088dc2f81fe391c3923bec73e23a9662efc9c229c6a009081549060ff8260401c166100bd57506001600160401b036002600160401b031982821601610078575b60405161263d90816100d282396080518181816113ee01526114960152f35b6001600160401b031990911681179091556040519081527fc7f505b2f371ae2175ee4913f4499e1f2633a7b5936321eed1cdaeb6115181d290602090a1388080610059565b63f92ee8a960e01b8152600490fd5b600080fdfe608080604052600436101561001357600080fd5b600090813560e01c90816301ffc9a714611e5a575080630e316ab714611cb857806310bfa63e14611b495780632079fb9a14611b055780632358d5a814611abc57806323af4e1714611a22578063242232d1146117a5578063248a9ca31461176b5780632f2ff15d1461172057806336568abe146116d85780634403d1d8146116995780634f1ef2861461144657806352d1902d146113db5780635a4528c2146113b25780635c975abb146113825780636239d9321461113e57806372483bf914610cff5780637df73e2714610cc05780638b58355414610c875780638faa185614610a7957806390d02b3c1461098d57806391d148541461093457806394cf795e1461088c578063992642e51461086357806399c1aadc146108455780639ace38c2146107d6578063a217fddf146107ba578063ad3cb1cc1461075d578063b715be811461073f578063d2794e831461056a578063d3d7c002146104d5578063d547741f14610486578063e7a764ef146103ee578063eb12d61e146102a0578063f72c0d8b14610277578063f8f6146b146102505763fa53f503146101b857600080fd5b3461024d57602036600319011261024d576001600160a01b036101d9611eaf565b166101e581151561230d565b818052600080516020612588833981519152602052604082203360005260205261021660ff6040600020541661236b565b81546001600160a01b031916811782557ff30064db883fe95e5d8136c1d6e6e596e3fefcc6530f268837c48e55ff29534d8280a280f35b80fd5b503461024d578060031936011261024d57546040516001600160a01b039091168152602090f35b503461024d578060031936011261024d5760206040516000805160206125488339815191528152f35b503461024d576020806003193601126103ea576102bb611eaf565b8280526000805160206125888339815191528252604083203360005282526102ea60ff6040600020541661236b565b6001600160a01b0381169161030083151561230d565b8284526005815260ff6040852054166103a6578284526005905260408320805460ff19166001179055600254600160401b811015610392579061034c82600161036b9401600255611ee0565b90919082549060031b9160018060a01b03809116831b921b1916179055565b7f47d1c22a25bb3a5d4e481b9b1e6944c2eade3181a0a20b495ed61d35b5323f248280a280f35b634e487b7160e01b84526041600452602484fd5b6064906040519062461bcd60e51b82526004820152601b60248201527f4164647265737320697320616c72656164792061207369676e657200000000006044820152fd5b5080fd5b503461024d57602036600319011261024d576001600160a01b03610410611eaf565b1661041c81151561230d565b818052600080516020612588833981519152602052604082203360005260205261044d60ff6040600020541661236b565b600480546001600160a01b031916821790557f0d5d6bb96211eff5903428aa38f453d30e660b4533930d6a20a2cb56056a95988280a280f35b503461024d57604036600319011261024d576104d16004356104a6611eca565b908084526000805160206125888339815191526020526104cc6001604086200154611fe1565b6121d3565b5080f35b503461024d576020908160031936011261024d576024826001600160a01b036104fc611eaf565b16604051928380926370a0823160e01b82523060048301525afa91821561055e57809261052e575b5050604051908152f35b9091508282813d8311610557575b6105468183611f2c565b8101031261024d5750513880610524565b503d61053c565b604051903d90823e3d90fd5b503461024d57604036600319011261024d57600435610587611eca565b90338352600560205260ff604084205416801561072c575b156106f5576004546040516001600160a01b0391821660a082016001600160401b038111838210176106df5760405281526020810190838252826040820195169485815260608201908782526080830193888552600854600160401b8110156106cb578060016106129201600855611f9f565b9490946106b757908660049594939251169060018060a01b03199182865416178555516001850155866002850192511690825416179055516003820155019051151560ff801983541691161790556008549060001982019182116106a35760207f6456cbd6065ce598fbcc30d50b4d4d736ca1f66349ac629c4de702ff6b9d5604916004541693604051908152a480f35b634e487b7160e01b85526011600452602485fd5b634e487b7160e01b8a5260048a905260248afd5b634e487b7160e01b8a52604160045260248afd5b634e487b7160e01b600052604160045260246000fd5b60405162461bcd60e51b815260206004820152600f60248201526e2737ba10309039bab136b4ba3a32b960891b6044820152606490fd5b5082546001600160a01b0316331461059f565b503461024d578060031936011261024d576020600254604051908152f35b503461024d578060031936011261024d576107ac6040805161077e81611f11565b6005815260208101640352e302e360dc1b815282519384926020845251809281602086015285850190611fbe565b601f01601f19168101030190f35b503461024d578060031936011261024d57602090604051908152f35b503461024d57602036600319011261024d576004359060085482101561024d5760a061080183611f9f565b50600180831b03808254169160018101549160028201541660ff60046003840154930154169260405194855260208501526040840152606083015215156080820152f35b503461024d578060031936011261024d576020600354604051908152f35b503461024d578060031936011261024d576001546040516001600160a01b039091168152602090f35b503461024d578060031936011261024d57604051809160025490818352602080930180926002835284832090835b81811061091757505050846108d0910385611f2c565b60405193838594850191818652518092526040850193925b8281106108f757505050500390f35b83516001600160a01b0316855286955093810193928101926001016108e8565b82546001600160a01b0316845292860192600192830192016108ba565b503461024d57604036600319011261024d576040610950611eca565b916004358152600080516020612588833981519152602052209060018060a01b0316600052602052602060ff604060002054166040519015158152f35b503461024d578060031936011261024d5733815260056020526109b660ff6040832054166123ad565b6109c560ff600b5416156124db565b338152600760205260ff60408220541615610a3c57338152600760205260408120805460ff19169055600a546000198101908111610a2857600a55337fc1d8a841a503699fe83732a17af8fad337498413a4de80ccb9cc9bf3d7ee2c118280a280f35b634e487b7160e01b82526011600452602482fd5b60405162461bcd60e51b81526020600482015260156024820152744e6f20617070726f76616c20746f207265766f6b6560581b6044820152606490fd5b503461024d57604036600319011261024d576004359060246001600160401b038135818111610c835736602382011215610c8357610ac09036908481600401359101611f68565b838052602090600080516020612588833981519152825260408520338652825260ff60408620541615610c6557610af56124ab565b610afd612480565b8515610c1657604051610b2c838281610b1f8183019687815193849201611fbe565b8101038084520182611f2c565b519020604051828101906242535760e81b825260038152610b4c81611f11565b51902003610bde5750600154929384936001600160a01b0316803b15610bda578385926040519687938492632f8d75e360e01b845260048401525af18015610bcf57610bab575b50505060016000805160206125c88339815191525580f35b8211610bbd5750604052388080610b93565b634e487b7160e01b8352604160045282fd5b6040513d86823e3d90fd5b8480fd5b6064906012846040519262461bcd60e51b8452600484015282015271496e76616c696420746f6b656e207479706560701b6044820152fd5b60405162461bcd60e51b8152600481018390526022818601527f416d6f756e742073686f756c642062652067726561746572207468616e207a65604482015261726f60f01b6064820152608490fd5b60405163e2517d3f60e01b8152336004820152808501869052604490fd5b8380fd5b503461024d578060031936011261024d57606060ff60095416600a5460ff600b5416906040519215158352602083015215156040820152f35b503461024d57602036600319011261024d5760209060ff906040906001600160a01b03610ceb611eaf565b168152600584522054166040519015158152f35b503461024d57606036600319011261024d576004356001600160401b0381116103ea57366023820112156103ea5780600401356001600160401b03811161112a578060051b9160405191610d566020850184611f2c565b82526020820190602482948201019036821161112657602401915b8183106111025750506044359290506001600160a01b0383168303610c83576000805160206125e8833981519152546001600160401b038116801590816110f2575b60011490816110e8575b1590816110df575b506110cd5760016001600160401b03198216176000805160206125e88339815191525560ff8160401c16156110a0575b8251156110685760243515158061105b575b1561101d57610e146122de565b610e1c6122de565b610e246122de565b610e2c6122de565b6000805160206125a8833981519152805460ff19169055610e4c33612032565b50610e56336120d0565b50845b8351811015610ed757600581901b8401602001516001600160a01b0316908115610ea157610e9c918752600560205260408720600160ff198254161790556122b9565b610e59565b60405162461bcd60e51b815260206004820152600e60248201526d24b73b30b634b21039b4b3b732b960911b6044820152606490fd5b509092849251936001600160401b03851161039257600160401b85116103925760025485600255808610610fd9575b50600284527f405787fa12a823e0f2b7631cc41b3ba8828b3321ca811111fa75cd3aa3bb5ace9490845b828110610fbc5760243560035585546001600160a01b0319166001600160a01b03851617865585604086901c60ff1615610f675780f35b60ff60401b196000805160206125e883398151915254166000805160206125e8833981519152557fc7f505b2f371ae2175ee4913f4499e1f2633a7b5936321eed1cdaeb6115181d2602060405160018152a180f35b81516001600160a01b031681880155602090910190600101610f30565b600285527f405787fa12a823e0f2b7631cc41b3ba8828b3321ca811111fa75cd3aa3bb5ace9081019086015b8181106110125750610f06565b858155600101611005565b60405162461bcd60e51b8152602060048201526016602482015275125b9d985b1a5908185c1c1c9bdd985b0818dbdd5b9d60521b6044820152606490fd5b5082516024351115610e07565b60405162461bcd60e51b815260206004820152601060248201526f14da59db995c9cc81c995c5d5a5c995960821b6044820152606490fd5b68ffffffffffffffffff19811668010000000000000001176000805160206125e883398151915255610df5565b60405163f92ee8a960e01b8152600490fd5b90501538610dc5565b303b159150610dbd565b604083901c60ff16159150610db3565b82356001600160a01b038116810361112257815260209283019201610d71565b8680fd5b8580fd5b634e487b7160e01b83526041600452602483fd5b503461024d578060031936011261024d5733815260206005815260ff9061116a826040852054166123ad565b61117882600b5416156124db565b3383526007908181528260408520541661134b57600a549160019283810180911161133757600a55338552808252604085209160ff19928484825416179055604051337f44e269ff2a4e5f0dc4321db25c253f3793b315930654aeb877d7b1cc6fa45cdb8880a2600a5490600391825411156111f2578780f35b8585600b541617600b5586600954166000146112da5750611211612480565b6000805160206125a883398151915285858254161790557f62e78cea01bee320cd4e420270b5ea74000d11b0c9f74754ebdbfc544b05a25882604051338152a15b86855b611295575b5050505050506009541615157f91bfab60d6c13a21fb5a50266a8e811e7a48bca53f2390bfd73b2f944154e19f8280a2388080808080808780f35b6002548110156112d557806112ac6112cf92611ee0565b905490841b1c6001600160a01b03168952848452604089208054871690556122b9565b85611255565b61125a565b6000805160206125a883398151915290815490888216156113285750851690557f5db9ee0a495bf2e6ff9c91a7834c1ba4fdd244a5e8aa4e537bd38aeae4b073aa82604051338152a1611252565b638dfc202b60e01b8152600490fd5b634e487b7160e01b86526011600452602486fd5b6064906040519062461bcd60e51b82526004820152601060248201526f105b1c9958591e48185c1c1c9bdd995960821b6044820152fd5b503461024d578060031936011261024d57602060ff6000805160206125a883398151915254166040519015158152f35b503461024d578060031936011261024d576004546040516001600160a01b039091168152602090f35b503461024d578060031936011261024d577f00000000000000000000000000000000000000000000000000000000000000006001600160a01b031630036114345760206040516000805160206125688339815191528152f35b60405163703e46dd60e11b8152600490fd5b50604036600319011261024d5761145b611eaf565b60249182356001600160401b0381116103ea57366023820112156103ea5761148c9036908581600401359101611f68565b6001600160a01b037f0000000000000000000000000000000000000000000000000000000000000000811630811490811561167d575b506114345760008051602061254883398151915290818452602091600080516020612588833981519152835260408520338652835260ff6040862054161561166057508416936040516352d1902d60e01b81528281600481895afa859181611631575b5061154257604051634c9c8ce360e01b8152600481018790528790fd5b8590876000805160206125688339815191529182810361161c5750833b15611606575080546001600160a01b0319168217905560405185917fbc7cd75a20ee27fd9adebab32041f755214dbc6bffa90cc0225b39da2e5c2d3b8380a28451156115e957508084846104d196519101845af4903d156115e0573d6115c481611f4d565b906115d26040519283611f2c565b81528581943d92013e612256565b60609250612256565b9350505050346115f7575080f35b63b398979f60e01b8152600490fd5b604051634c9c8ce360e01b815260048101849052fd5b60405190632a87526960e21b82526004820152fd5b9091508381813d8311611659575b6116498183611f2c565b8101031261112657519038611525565b503d61163f565b866044916040519163e2517d3f60e01b8352336004840152820152fd5b90508160008051602061256883398151915254161415386114c2565b503461024d57602036600319011261024d5760209060ff906040906001600160a01b036116c4611eaf565b168152600784522054166040519015158152f35b503461024d57604036600319011261024d576116f2611eca565b336001600160a01b0382160361170e576104d1906004356121d3565b60405163334bd91960e11b8152600490fd5b503461024d57604036600319011261024d576104d1600435611740611eca565b908084526000805160206125888339815191526020526117666001604086200154611fe1565b61215e565b503461024d57602036600319011261024d576001604060209260043581526000805160206125888339815191528452200154604051908152f35b503461024d576020806003193601126103ea5760043590338352600581526117d360ff6040852054166123ad565b6117db612480565b6117e860085483106123e8565b8183526006815260408320338452815260ff6040842054166119de5761181e60ff600461181485611f9f565b5001541615612434565b6118266124ab565b600361183183611f9f565b5001908154600181018091116106a357825582845260068152604084203385528152604084209160ff199260018482541617905533847f924813d717e221b5f46dcd8a56da1679e4612584ab3237d55e5faabf6f6a30798780a35491600354809310156118af575b8460016000805160206125c88339815191525580f35b6118b7612480565b6118c460085485106123e8565b6118d460ff600461181487611f9f565b6118dd84611f9f565b50926003840154106119a257600160048401918254161790558060018060a01b03926044600185600284015416958354169201549187604051968794859363a9059cbb60e01b8552600485015260248401525af18015610bcf5761196b575b50507f15ed165a284872ea7017f03df402a0cadfbfab588320ffaf83f160c2f82781c78280a238808080611899565b81813d831161199b575b61197f8183611f2c565b810103126119975751801515036103ea57388061193c565b8280fd5b503d611975565b60405162461bcd60e51b81526004810183905260146024820152734e6f7420656e6f75676820617070726f76616c7360601b6044820152606490fd5b6064906040519062461bcd60e51b82526004820152601c60248201527f5472616e73616374696f6e20616c726561647920617070726f766564000000006044820152fd5b503461024d57602036600319011261024d577fb186fd7ab84f9bf49dd7c48137c05084e007cc0f55c0c5e8c8540d4f667b2c596020611a5f611eaf565b8380526000805160206125888339815191528252604084203385528252611a8c60ff60408620541661236b565b6001600160a01b0316611aa081151561230d565b600180546001600160a01b03191682179055604051908152a180f35b503461024d57604036600319011261024d5760ff6040602092611add611eca565b6004358252600685528282206001600160a01b03909116825284522054604051911615158152f35b503461024d57602036600319011261024d576004359060025482101561024d576020611b3083611ee0565b905460405160039290921b1c6001600160a01b03168152f35b503461024d57602036600319011261024d5760043580151590818103611997573383526005602052611b8160ff6040852054166123ad565b15611c525760ff6000805160206125a88339815191525416611c0d575b6040516001600160401b0360608201918210911117611bf95760ff19806009541660ff83161760095582600a55600b5416600b557f763151ce44bf3b262146ba1eec4a7151a8f6afb509724c3659ff44d392fd08058280a280f35b634e487b7160e01b82526041600452602482fd5b60405162461bcd60e51b815260206004820152601f60248201527f496e76616c696420726571756573743a20616c726561647920706175736564006044820152606490fd5b60ff6000805160206125a88339815191525416611b9e5760405162461bcd60e51b815260206004820152602160248201527f496e76616c696420726571756573743a20616c726561647920756e70617573656044820152601960fa1b6064820152608490fd5b503461024d576020806003193601126103ea57611cd3611eaf565b908280526000805160206125888339815191528152604083203384528152611d0160ff60408520541661236b565b6001600160a01b0391821680845260058252604084205490919060ff1615611e1c578184526005905260408320805460ff19169055825b6002805480831015611e125790849184611d5185611ee0565b949054600395861b1c1614611d7157505050611d6c906122b9565b611d38565b93949193909260001991828101908111611dfe579061034c84611d96611da394611ee0565b905490891b1c1691611ee0565b82548015611dea570192611db684611ee0565b81939154921b1b19169055555b7f3525e22824a8a7df2c9a6029941c824cf95b6447f1e13d5128fd3826d35afe8b8280a280f35b634e487b7160e01b87526031600452602487fd5b634e487b7160e01b88526011600452602488fd5b5050509050611dc3565b6064906040519062461bcd60e51b82526004820152601760248201527620b2323932b9b99034b9903737ba10309039b4b3b732b960491b6044820152fd5b9050346103ea5760203660031901126103ea5760043563ffffffff60e01b81168091036119975760209250637965db0b60e01b8114908115611e9e575b5015158152f35b6301ffc9a760e01b14905038611e97565b600435906001600160a01b0382168203611ec557565b600080fd5b602435906001600160a01b0382168203611ec557565b600254811015611efb57600260005260206000200190600090565b634e487b7160e01b600052603260045260246000fd5b604081019081106001600160401b038211176106df57604052565b90601f801991011681019081106001600160401b038211176106df57604052565b6001600160401b0381116106df57601f01601f191660200190565b929192611f7482611f4d565b91611f826040519384611f2c565b829481845281830111611ec5578281602093846000960137010152565b600854811015611efb5760086000526005602060002091020190600090565b60005b838110611fd15750506000910152565b8181015183820152602001611fc1565b8060005260008051602061258883398151915260205260406000203360005260205260ff60406000205416156120145750565b6044906040519063e2517d3f60e01b82523360048301526024820152fd5b6001600160a01b031660008181527fab71e3f32666744d246edff3f96e4bdafee2e9867098cdd118a979a7464786a86020526040812054909190600080516020612548833981519152906000805160206125888339815191529060ff166120ca578184526020526040832082845260205260408320600160ff19825416179055600080516020612528833981519152339380a4600190565b50505090565b6001600160a01b031660008181527fb7db2dd08fcb62d0c9e08c51941cae53c267786a0b75803fb7960902fc8ef97d60205260408120549091906000805160206125888339815191529060ff16612159578280526020526040822081835260205260408220600160ff1982541617905533916000805160206125288339815191528180a4600190565b505090565b9060009180835260008051602061258883398151915280602052604084209260018060a01b03169283855260205260ff604085205416156000146120ca578184526020526040832082845260205260408320600160ff19825416179055600080516020612528833981519152339380a4600190565b9060009180835260008051602061258883398151915280602052604084209260018060a01b03169283855260205260ff6040852054166000146120ca57818452602052604083208284526020526040832060ff1981541690557ff6391f5c32d9c69d2a47ea670b442974b53935d1edc7fd64eb21e047a839171b339380a4600190565b9061227d575080511561226b57805190602001fd5b604051630a12f52160e11b8152600490fd5b815115806122b0575b61228e575090565b604051639996b31560e01b81526001600160a01b039091166004820152602490fd5b50803b15612286565b60001981146122c85760010190565b634e487b7160e01b600052601160045260246000fd5b60ff6000805160206125e88339815191525460401c16156122fb57565b604051631afcd79f60e31b8152600490fd5b1561231457565b60405162461bcd60e51b815260206004820152602960248201527f496e76616c696420616464726573733a207a65726f2061646472657373206e6f6044820152681d08185b1b1bddd95960ba1b6064820152608490fd5b1561237257565b60405162461bcd60e51b815260206004820152601360248201527221b0b63632b91034b9903737ba1030b236b4b760691b6044820152606490fd5b156123b457565b60405162461bcd60e51b815260206004820152600c60248201526b2737ba10309039b4b3b732b960a11b6044820152606490fd5b156123ef57565b60405162461bcd60e51b815260206004820152601a60248201527f5472616e73616374696f6e20646f6573206e6f742065786973740000000000006044820152606490fd5b1561243b57565b60405162461bcd60e51b815260206004820152601c60248201527f5472616e73616374696f6e20616c7265616479206578656375746564000000006044820152606490fd5b60ff6000805160206125a8833981519152541661249957565b60405163d93c066560e01b8152600490fd5b6000805160206125c883398151915260028154146124c95760029055565b604051633ee5aeb560e01b8152600490fd5b156124e257565b60405162461bcd60e51b815260206004820152601e60248201527f5061757365207265717565737420616c726561647920657865637574656400006044820152606490fdfe2f8788117e7eff1d82e926ec794901d17c78024a50270940304540a733656f0d189ab7a9244df0848122154315af71fe140f3db0fe014031783b0946b8c9d2e3360894a13ba1a3210667c828492db98dca3e2076cc3735a920a3ca505d382bbc02dd7bc7dec4dceedda775e58dd541e08a116c6c53815c0bd028192f7b626800cd5ed15c6e187e77e9aee88184c21f4f2182ab5827cb3b7e07fbedcd63f033009b779b17422d0df92223018b32b4d1fa46e071723d6817e2486d003becc55f00f0c57e16840df040f15088dc2f81fe391c3923bec73e23a9662efc9c229c6a00a26469706673582212203e618279bf14bec72637755c4459dfe7ffa06b4c2e8775317bdeb7d07494893364736f6c63430008140033",
    "linkReferences": {},
    "deployedLinkReferences": {}
}