{
    "_format": "hh-sol-artifact-1",
    "contractName": "LydiaStablecoin",
    "sourceName": "contracts/LydiaStablecoin.sol",
    "abi": [
        {
            "inputs": [],
            "stateMutability": "nonpayable",
            "type": "constructor"
        },
        {
            "inputs": [],
            "name": "AccessControlBadConfirmation",
            "type": "error"
        },
        {
            "inputs": [
                {
                    "internalType": "address",
                    "name": "account",
                    "type": "address"
                },
                {
                    "internalType": "bytes32",
                    "name": "neededRole",
                    "type": "bytes32"
                }
            ],
            "name": "AccessControlUnauthorizedAccount",
            "type": "error"
        },
        {
            "inputs": [
                {
                    "internalType": "address",
                    "name": "target",
                    "type": "address"
                }
            ],
            "name": "AddressEmptyCode",
            "type": "error"
        },
        {
            "inputs": [],
            "name": "ECDSAInvalidSignature",
            "type": "error"
        },
        {
            "inputs": [
                {
                    "internalType": "uint256",
                    "name": "length",
                    "type": "uint256"
                }
            ],
            "name": "ECDSAInvalidSignatureLength",
            "type": "error"
        },
        {
            "inputs": [
                {
                    "internalType": "bytes32",
                    "name": "s",
                    "type": "bytes32"
                }
            ],
            "name": "ECDSAInvalidSignatureS",
            "type": "error"
        },
        {
            "inputs": [
                {
                    "internalType": "address",
                    "name": "implementation",
                    "type": "address"
                }
            ],
            "name": "ERC1967InvalidImplementation",
            "type": "error"
        },
        {
            "inputs": [],
            "name": "ERC1967NonPayable",
            "type": "error"
        },
        {
            "inputs": [
                {
                    "internalType": "address",
                    "name": "spender",
                    "type": "address"
                },
                {
                    "internalType": "uint256",
                    "name": "allowance",
                    "type": "uint256"
                },
                {
                    "internalType": "uint256",
                    "name": "needed",
                    "type": "uint256"
                }
            ],
            "name": "ERC20InsufficientAllowance",
            "type": "error"
        },
        {
            "inputs": [
                {
                    "internalType": "address",
                    "name": "sender",
                    "type": "address"
                },
                {
                    "internalType": "uint256",
                    "name": "balance",
                    "type": "uint256"
                },
                {
                    "internalType": "uint256",
                    "name": "needed",
                    "type": "uint256"
                }
            ],
            "name": "ERC20InsufficientBalance",
            "type": "error"
        },
        {
            "inputs": [
                {
                    "internalType": "address",
                    "name": "approver",
                    "type": "address"
                }
            ],
            "name": "ERC20InvalidApprover",
            "type": "error"
        },
        {
            "inputs": [
                {
                    "internalType": "address",
                    "name": "receiver",
                    "type": "address"
                }
            ],
            "name": "ERC20InvalidReceiver",
            "type": "error"
        },
        {
            "inputs": [
                {
                    "internalType": "address",
                    "name": "sender",
                    "type": "address"
                }
            ],
            "name": "ERC20InvalidSender",
            "type": "error"
        },
        {
            "inputs": [
                {
                    "internalType": "address",
                    "name": "spender",
                    "type": "address"
                }
            ],
            "name": "ERC20InvalidSpender",
            "type": "error"
        },
        {
            "inputs": [
                {
                    "internalType": "uint256",
                    "name": "deadline",
                    "type": "uint256"
                }
            ],
            "name": "ERC2612ExpiredSignature",
            "type": "error"
        },
        {
            "inputs": [
                {
                    "internalType": "address",
                    "name": "signer",
                    "type": "address"
                },
                {
                    "internalType": "address",
                    "name": "owner",
                    "type": "address"
                }
            ],
            "name": "ERC2612InvalidSigner",
            "type": "error"
        },
        {
            "inputs": [],
            "name": "EnforcedPause",
            "type": "error"
        },
        {
            "inputs": [],
            "name": "ExpectedPause",
            "type": "error"
        },
        {
            "inputs": [],
            "name": "FailedInnerCall",
            "type": "error"
        },
        {
            "inputs": [
                {
                    "internalType": "address",
                    "name": "account",
                    "type": "address"
                },
                {
                    "internalType": "uint256",
                    "name": "currentNonce",
                    "type": "uint256"
                }
            ],
            "name": "InvalidAccountNonce",
            "type": "error"
        },
        {
            "inputs": [],
            "name": "InvalidInitialization",
            "type": "error"
        },
        {
            "inputs": [],
            "name": "NotInitializing",
            "type": "error"
        },
        {
            "inputs": [],
            "name": "ReentrancyGuardReentrantCall",
            "type": "error"
        },
        {
            "inputs": [],
            "name": "UUPSUnauthorizedCallContext",
            "type": "error"
        },
        {
            "inputs": [
                {
                    "internalType": "bytes32",
                    "name": "slot",
                    "type": "bytes32"
                }
            ],
            "name": "UUPSUnsupportedProxiableUUID",
            "type": "error"
        },
        {
            "anonymous": false,
            "inputs": [
                {
                    "indexed": true,
                    "internalType": "address",
                    "name": "owner",
                    "type": "address"
                },
                {
                    "indexed": true,
                    "internalType": "address",
                    "name": "spender",
                    "type": "address"
                },
                {
                    "indexed": false,
                    "internalType": "uint256",
                    "name": "value",
                    "type": "uint256"
                }
            ],
            "name": "Approval",
            "type": "event"
        },
        {
            "anonymous": false,
            "inputs": [
                {
                    "indexed": true,
                    "internalType": "address",
                    "name": "owner",
                    "type": "address"
                },
                {
                    "indexed": true,
                    "internalType": "address",
                    "name": "from",
                    "type": "address"
                },
                {
                    "indexed": false,
                    "internalType": "uint256",
                    "name": "amount",
                    "type": "uint256"
                }
            ],
            "name": "BurnApproved",
            "type": "event"
        },
        {
            "anonymous": false,
            "inputs": [
                {
                    "indexed": true,
                    "internalType": "address",
                    "name": "from",
                    "type": "address"
                },
                {
                    "indexed": false,
                    "internalType": "uint256",
                    "name": "amount",
                    "type": "uint256"
                }
            ],
            "name": "BurnRequested",
            "type": "event"
        },
        {
            "anonymous": false,
            "inputs": [],
            "name": "EIP712DomainChanged",
            "type": "event"
        },
        {
            "anonymous": false,
            "inputs": [
                {
                    "indexed": false,
                    "internalType": "uint64",
                    "name": "version",
                    "type": "uint64"
                }
            ],
            "name": "Initialized",
            "type": "event"
        },
        {
            "anonymous": false,
            "inputs": [
                {
                    "indexed": true,
                    "internalType": "address",
                    "name": "to",
                    "type": "address"
                },
                {
                    "indexed": false,
                    "internalType": "uint256",
                    "name": "amount",
                    "type": "uint256"
                }
            ],
            "name": "Minted",
            "type": "event"
        },
        {
            "anonymous": false,
            "inputs": [
                {
                    "indexed": true,
                    "internalType": "address",
                    "name": "newOwner",
                    "type": "address"
                }
            ],
            "name": "OwnerAdded",
            "type": "event"
        },
        {
            "anonymous": false,
            "inputs": [
                {
                    "indexed": true,
                    "internalType": "address",
                    "name": "removedOwner",
                    "type": "address"
                }
            ],
            "name": "OwnerRemoved",
            "type": "event"
        },
        {
            "anonymous": false,
            "inputs": [
                {
                    "indexed": false,
                    "internalType": "address",
                    "name": "account",
                    "type": "address"
                }
            ],
            "name": "Paused",
            "type": "event"
        },
        {
            "anonymous": false,
            "inputs": [
                {
                    "indexed": true,
                    "internalType": "bytes32",
                    "name": "role",
                    "type": "bytes32"
                },
                {
                    "indexed": true,
                    "internalType": "bytes32",
                    "name": "previousAdminRole",
                    "type": "bytes32"
                },
                {
                    "indexed": true,
                    "internalType": "bytes32",
                    "name": "newAdminRole",
                    "type": "bytes32"
                }
            ],
            "name": "RoleAdminChanged",
            "type": "event"
        },
        {
            "anonymous": false,
            "inputs": [
                {
                    "indexed": true,
                    "internalType": "bytes32",
                    "name": "role",
                    "type": "bytes32"
                },
                {
                    "indexed": true,
                    "internalType": "address",
                    "name": "account",
                    "type": "address"
                },
                {
                    "indexed": true,
                    "internalType": "address",
                    "name": "sender",
                    "type": "address"
                }
            ],
            "name": "RoleGranted",
            "type": "event"
        },
        {
            "anonymous": false,
            "inputs": [
                {
                    "indexed": true,
                    "internalType": "bytes32",
                    "name": "role",
                    "type": "bytes32"
                },
                {
                    "indexed": true,
                    "internalType": "address",
                    "name": "account",
                    "type": "address"
                },
                {
                    "indexed": true,
                    "internalType": "address",
                    "name": "sender",
                    "type": "address"
                }
            ],
            "name": "RoleRevoked",
            "type": "event"
        },
        {
            "anonymous": false,
            "inputs": [
                {
                    "indexed": true,
                    "internalType": "address",
                    "name": "sender",
                    "type": "address"
                },
                {
                    "indexed": true,
                    "internalType": "address",
                    "name": "recipient",
                    "type": "address"
                },
                {
                    "indexed": false,
                    "internalType": "uint256",
                    "name": "amount",
                    "type": "uint256"
                }
            ],
            "name": "TransactionLogged",
            "type": "event"
        },
        {
            "anonymous": false,
            "inputs": [
                {
                    "indexed": true,
                    "internalType": "address",
                    "name": "from",
                    "type": "address"
                },
                {
                    "indexed": true,
                    "internalType": "address",
                    "name": "to",
                    "type": "address"
                },
                {
                    "indexed": false,
                    "internalType": "uint256",
                    "name": "value",
                    "type": "uint256"
                }
            ],
            "name": "Transfer",
            "type": "event"
        },
        {
            "anonymous": false,
            "inputs": [
                {
                    "indexed": false,
                    "internalType": "address",
                    "name": "newTreasury",
                    "type": "address"
                }
            ],
            "name": "TreasuryUpdated",
            "type": "event"
        },
        {
            "anonymous": false,
            "inputs": [
                {
                    "indexed": false,
                    "internalType": "address",
                    "name": "account",
                    "type": "address"
                }
            ],
            "name": "Unpaused",
            "type": "event"
        },
        {
            "anonymous": false,
            "inputs": [
                {
                    "indexed": true,
                    "internalType": "address",
                    "name": "implementation",
                    "type": "address"
                }
            ],
            "name": "Upgraded",
            "type": "event"
        },
        {
            "inputs": [],
            "name": "DEFAULT_ADMIN_ROLE",
            "outputs": [
                {
                    "internalType": "bytes32",
                    "name": "",
                    "type": "bytes32"
                }
            ],
            "stateMutability": "view",
            "type": "function"
        },
        {
            "inputs": [],
            "name": "DOMAIN_SEPARATOR",
            "outputs": [
                {
                    "internalType": "bytes32",
                    "name": "",
                    "type": "bytes32"
                }
            ],
            "stateMutability": "view",
            "type": "function"
        },
        {
            "inputs": [],
            "name": "MINTER_ROLE",
            "outputs": [
                {
                    "internalType": "bytes32",
                    "name": "",
                    "type": "bytes32"
                }
            ],
            "stateMutability": "view",
            "type": "function"
        },
        {
            "inputs": [],
            "name": "PAUSER_ROLE",
            "outputs": [
                {
                    "internalType": "bytes32",
                    "name": "",
                    "type": "bytes32"
                }
            ],
            "stateMutability": "view",
            "type": "function"
        },
        {
            "inputs": [],
            "name": "UPGRADER_ROLE",
            "outputs": [
                {
                    "internalType": "bytes32",
                    "name": "",
                    "type": "bytes32"
                }
            ],
            "stateMutability": "view",
            "type": "function"
        },
        {
            "inputs": [],
            "name": "UPGRADE_INTERFACE_VERSION",
            "outputs": [
                {
                    "internalType": "string",
                    "name": "",
                    "type": "string"
                }
            ],
            "stateMutability": "view",
            "type": "function"
        },
        {
            "inputs": [
                {
                    "internalType": "address",
                    "name": "newOwner",
                    "type": "address"
                }
            ],
            "name": "addOwner",
            "outputs": [],
            "stateMutability": "nonpayable",
            "type": "function"
        },
        {
            "inputs": [],
            "name": "admin",
            "outputs": [
                {
                    "internalType": "address",
                    "name": "",
                    "type": "address"
                }
            ],
            "stateMutability": "view",
            "type": "function"
        },
        {
            "inputs": [
                {
                    "internalType": "address",
                    "name": "owner",
                    "type": "address"
                },
                {
                    "internalType": "address",
                    "name": "spender",
                    "type": "address"
                }
            ],
            "name": "allowance",
            "outputs": [
                {
                    "internalType": "uint256",
                    "name": "",
                    "type": "uint256"
                }
            ],
            "stateMutability": "view",
            "type": "function"
        },
        {
            "inputs": [
                {
                    "internalType": "address",
                    "name": "spender",
                    "type": "address"
                },
                {
                    "internalType": "uint256",
                    "name": "value",
                    "type": "uint256"
                }
            ],
            "name": "approve",
            "outputs": [
                {
                    "internalType": "bool",
                    "name": "",
                    "type": "bool"
                }
            ],
            "stateMutability": "nonpayable",
            "type": "function"
        },
        {
            "inputs": [
                {
                    "internalType": "address",
                    "name": "account",
                    "type": "address"
                }
            ],
            "name": "approveBurn",
            "outputs": [],
            "stateMutability": "nonpayable",
            "type": "function"
        },
        {
            "inputs": [
                {
                    "internalType": "address",
                    "name": "account",
                    "type": "address"
                }
            ],
            "name": "balanceOf",
            "outputs": [
                {
                    "internalType": "uint256",
                    "name": "",
                    "type": "uint256"
                }
            ],
            "stateMutability": "view",
            "type": "function"
        },
        {
            "inputs": [
                {
                    "internalType": "address",
                    "name": "",
                    "type": "address"
                }
            ],
            "name": "blacklist",
            "outputs": [
                {
                    "internalType": "bool",
                    "name": "",
                    "type": "bool"
                }
            ],
            "stateMutability": "view",
            "type": "function"
        },
        {
            "inputs": [
                {
                    "internalType": "address",
                    "name": "",
                    "type": "address"
                }
            ],
            "name": "burnRequests",
            "outputs": [
                {
                    "internalType": "uint256",
                    "name": "amount",
                    "type": "uint256"
                },
                {
                    "internalType": "bool",
                    "name": "executed",
                    "type": "bool"
                }
            ],
            "stateMutability": "view",
            "type": "function"
        },
        {
            "inputs": [],
            "name": "decimals",
            "outputs": [
                {
                    "internalType": "uint8",
                    "name": "",
                    "type": "uint8"
                }
            ],
            "stateMutability": "view",
            "type": "function"
        },
        {
            "inputs": [],
            "name": "eip712Domain",
            "outputs": [
                {
                    "internalType": "bytes1",
                    "name": "fields",
                    "type": "bytes1"
                },
                {
                    "internalType": "string",
                    "name": "name",
                    "type": "string"
                },
                {
                    "internalType": "string",
                    "name": "version",
                    "type": "string"
                },
                {
                    "internalType": "uint256",
                    "name": "chainId",
                    "type": "uint256"
                },
                {
                    "internalType": "address",
                    "name": "verifyingContract",
                    "type": "address"
                },
                {
                    "internalType": "bytes32",
                    "name": "salt",
                    "type": "bytes32"
                },
                {
                    "internalType": "uint256[]",
                    "name": "extensions",
                    "type": "uint256[]"
                }
            ],
            "stateMutability": "view",
            "type": "function"
        },
        {
            "inputs": [],
            "name": "getOwnerCount",
            "outputs": [
                {
                    "internalType": "uint256",
                    "name": "",
                    "type": "uint256"
                }
            ],
            "stateMutability": "view",
            "type": "function"
        },
        {
            "inputs": [],
            "name": "getOwners",
            "outputs": [
                {
                    "internalType": "address[]",
                    "name": "",
                    "type": "address[]"
                }
            ],
            "stateMutability": "view",
            "type": "function"
        },
        {
            "inputs": [
                {
                    "internalType": "bytes32",
                    "name": "role",
                    "type": "bytes32"
                }
            ],
            "name": "getRoleAdmin",
            "outputs": [
                {
                    "internalType": "bytes32",
                    "name": "",
                    "type": "bytes32"
                }
            ],
            "stateMutability": "view",
            "type": "function"
        },
        {
            "inputs": [
                {
                    "internalType": "bytes32",
                    "name": "role",
                    "type": "bytes32"
                },
                {
                    "internalType": "address",
                    "name": "account",
                    "type": "address"
                }
            ],
            "name": "grantRole",
            "outputs": [],
            "stateMutability": "nonpayable",
            "type": "function"
        },
        {
            "inputs": [
                {
                    "internalType": "bytes32",
                    "name": "role",
                    "type": "bytes32"
                },
                {
                    "internalType": "address",
                    "name": "account",
                    "type": "address"
                }
            ],
            "name": "hasRole",
            "outputs": [
                {
                    "internalType": "bool",
                    "name": "",
                    "type": "bool"
                }
            ],
            "stateMutability": "view",
            "type": "function"
        },
        {
            "inputs": [
                {
                    "internalType": "string",
                    "name": "name",
                    "type": "string"
                },
                {
                    "internalType": "string",
                    "name": "symbol",
                    "type": "string"
                },
                {
                    "internalType": "address",
                    "name": "initialAdmin",
                    "type": "address"
                },
                {
                    "internalType": "address",
                    "name": "initialTreasury",
                    "type": "address"
                },
                {
                    "internalType": "uint256",
                    "name": "initialSupply",
                    "type": "uint256"
                },
                {
                    "internalType": "address[]",
                    "name": "initialOwners",
                    "type": "address[]"
                }
            ],
            "name": "initialize",
            "outputs": [],
            "stateMutability": "nonpayable",
            "type": "function"
        },
        {
            "inputs": [
                {
                    "internalType": "address",
                    "name": "",
                    "type": "address"
                }
            ],
            "name": "isOwner",
            "outputs": [
                {
                    "internalType": "bool",
                    "name": "",
                    "type": "bool"
                }
            ],
            "stateMutability": "view",
            "type": "function"
        },
        {
            "inputs": [
                {
                    "internalType": "uint256",
                    "name": "amount",
                    "type": "uint256"
                }
            ],
            "name": "mint",
            "outputs": [],
            "stateMutability": "nonpayable",
            "type": "function"
        },
        {
            "inputs": [],
            "name": "name",
            "outputs": [
                {
                    "internalType": "string",
                    "name": "",
                    "type": "string"
                }
            ],
            "stateMutability": "view",
            "type": "function"
        },
        {
            "inputs": [
                {
                    "internalType": "address",
                    "name": "owner",
                    "type": "address"
                }
            ],
            "name": "nonces",
            "outputs": [
                {
                    "internalType": "uint256",
                    "name": "",
                    "type": "uint256"
                }
            ],
            "stateMutability": "view",
            "type": "function"
        },
        {
            "inputs": [
                {
                    "internalType": "uint256",
                    "name": "",
                    "type": "uint256"
                }
            ],
            "name": "owners",
            "outputs": [
                {
                    "internalType": "address",
                    "name": "",
                    "type": "address"
                }
            ],
            "stateMutability": "view",
            "type": "function"
        },
        {
            "inputs": [],
            "name": "pause",
            "outputs": [],
            "stateMutability": "nonpayable",
            "type": "function"
        },
        {
            "inputs": [],
            "name": "paused",
            "outputs": [
                {
                    "internalType": "bool",
                    "name": "",
                    "type": "bool"
                }
            ],
            "stateMutability": "view",
            "type": "function"
        },
        {
            "inputs": [
                {
                    "internalType": "address",
                    "name": "owner",
                    "type": "address"
                },
                {
                    "internalType": "address",
                    "name": "spender",
                    "type": "address"
                },
                {
                    "internalType": "uint256",
                    "name": "value",
                    "type": "uint256"
                },
                {
                    "internalType": "uint256",
                    "name": "deadline",
                    "type": "uint256"
                },
                {
                    "internalType": "uint8",
                    "name": "v",
                    "type": "uint8"
                },
                {
                    "internalType": "bytes32",
                    "name": "r",
                    "type": "bytes32"
                },
                {
                    "internalType": "bytes32",
                    "name": "s",
                    "type": "bytes32"
                }
            ],
            "name": "permit",
            "outputs": [],
            "stateMutability": "nonpayable",
            "type": "function"
        },
        {
            "inputs": [],
            "name": "proxiableUUID",
            "outputs": [
                {
                    "internalType": "bytes32",
                    "name": "",
                    "type": "bytes32"
                }
            ],
            "stateMutability": "view",
            "type": "function"
        },
        {
            "inputs": [
                {
                    "internalType": "address",
                    "name": "ownerToRemove",
                    "type": "address"
                }
            ],
            "name": "removeOwner",
            "outputs": [],
            "stateMutability": "nonpayable",
            "type": "function"
        },
        {
            "inputs": [
                {
                    "internalType": "bytes32",
                    "name": "role",
                    "type": "bytes32"
                },
                {
                    "internalType": "address",
                    "name": "callerConfirmation",
                    "type": "address"
                }
            ],
            "name": "renounceRole",
            "outputs": [],
            "stateMutability": "nonpayable",
            "type": "function"
        },
        {
            "inputs": [
                {
                    "internalType": "uint256",
                    "name": "amount",
                    "type": "uint256"
                }
            ],
            "name": "requestBurn",
            "outputs": [],
            "stateMutability": "nonpayable",
            "type": "function"
        },
        {
            "inputs": [
                {
                    "internalType": "bytes32",
                    "name": "role",
                    "type": "bytes32"
                },
                {
                    "internalType": "address",
                    "name": "account",
                    "type": "address"
                }
            ],
            "name": "revokeRole",
            "outputs": [],
            "stateMutability": "nonpayable",
            "type": "function"
        },
        {
            "inputs": [
                {
                    "internalType": "address",
                    "name": "account",
                    "type": "address"
                },
                {
                    "internalType": "bool",
                    "name": "isBlacklisted",
                    "type": "bool"
                }
            ],
            "name": "setBlacklist",
            "outputs": [],
            "stateMutability": "nonpayable",
            "type": "function"
        },
        {
            "inputs": [
                {
                    "internalType": "bytes4",
                    "name": "interfaceId",
                    "type": "bytes4"
                }
            ],
            "name": "supportsInterface",
            "outputs": [
                {
                    "internalType": "bool",
                    "name": "",
                    "type": "bool"
                }
            ],
            "stateMutability": "view",
            "type": "function"
        },
        {
            "inputs": [],
            "name": "symbol",
            "outputs": [
                {
                    "internalType": "string",
                    "name": "",
                    "type": "string"
                }
            ],
            "stateMutability": "view",
            "type": "function"
        },
        {
            "inputs": [],
            "name": "totalSupply",
            "outputs": [
                {
                    "internalType": "uint256",
                    "name": "",
                    "type": "uint256"
                }
            ],
            "stateMutability": "view",
            "type": "function"
        },
        {
            "inputs": [
                {
                    "internalType": "address",
                    "name": "to",
                    "type": "address"
                },
                {
                    "internalType": "uint256",
                    "name": "amount",
                    "type": "uint256"
                }
            ],
            "name": "transfer",
            "outputs": [
                {
                    "internalType": "bool",
                    "name": "",
                    "type": "bool"
                }
            ],
            "stateMutability": "nonpayable",
            "type": "function"
        },
        {
            "inputs": [
                {
                    "internalType": "address",
                    "name": "from",
                    "type": "address"
                },
                {
                    "internalType": "address",
                    "name": "to",
                    "type": "address"
                },
                {
                    "internalType": "uint256",
                    "name": "value",
                    "type": "uint256"
                }
            ],
            "name": "transferFrom",
            "outputs": [
                {
                    "internalType": "bool",
                    "name": "",
                    "type": "bool"
                }
            ],
            "stateMutability": "nonpayable",
            "type": "function"
        },
        {
            "inputs": [],
            "name": "treasury",
            "outputs": [
                {
                    "internalType": "address",
                    "name": "",
                    "type": "address"
                }
            ],
            "stateMutability": "view",
            "type": "function"
        },
        {
            "inputs": [],
            "name": "unpause",
            "outputs": [],
            "stateMutability": "nonpayable",
            "type": "function"
        },
        {
            "inputs": [
                {
                    "internalType": "address",
                    "name": "newTreasury",
                    "type": "address"
                }
            ],
            "name": "updateTreasury",
            "outputs": [],
            "stateMutability": "nonpayable",
            "type": "function"
        },
        {
            "inputs": [
                {
                    "internalType": "address",
                    "name": "newImplementation",
                    "type": "address"
                },
                {
                    "internalType": "bytes",
                    "name": "data",
                    "type": "bytes"
                }
            ],
            "name": "upgradeToAndCall",
            "outputs": [],
            "stateMutability": "payable",
            "type": "function"
        }
    ],
    "bytecode": "0x60a080604052346100cd57306080527ff0c57e16840df040f15088dc2f81fe391c3923bec73e23a9662efc9c229c6a009081549060ff8260401c166100be57506001600160401b036002600160401b031982821601610079575b6040516135899081620000d382396080518181816110b6015261115d0152f35b6001600160401b031990911681179091556040519081527fc7f505b2f371ae2175ee4913f4499e1f2633a7b5936321eed1cdaeb6115181d290602090a1388080610059565b63f92ee8a960e01b8152600490fd5b600080fdfe608080604052600436101561001357600080fd5b60003560e01c90816301ffc9a71461263757508063025e7c27146125f557806306fdde0314612557578063095ea7b314612531578063153b0d1e146124a6578063173825d9146122ea57806318160ddd146122bf57806323b872dd146121cf578063248a9ca314612193578063298826cf146116ca5780632f2ff15d1461167e5780632f54bf6e1461163f5780632f8d75e3146115105780633103c113146114c8578063313ce567146114ac5780633644e5151461148957806336568abe146114425780633f4ba83a146113715780634f1ef2861461110e57806352d1902d146110a35780635588f51514610e0a5780635c975abb14610dda57806361d027b314610db15780637065cb4814610c7657806370a0823114610c2f5780637ecebe0014610bd65780637f51bb1f14610b3a5780638456cb5914610a7b57806384b0196e1461094457806391d14854146108ea57806395d89b411461080f578063a0712d6814610713578063a0e67e2b14610668578063a217fddf1461064c578063a9059cbb146105a4578063ad3cb1cc1461055a578063d505accf146103cf578063d539139314610394578063d547741f14610346578063dd62ed3e146102fd578063e63ab1e9146102c2578063ef18374a146102a4578063f72c0d8b1461027b578063f851a440146102525763f9f92be41461020e57600080fd5b3461024d57602036600319011261024d576001600160a01b0361022f6126fb565b166000526000602052602060ff604060002054166040519015158152f35b600080fd5b3461024d57600036600319011261024d576003546040516001600160a01b039091168152602090f35b3461024d57600036600319011261024d5760206040516000805160206134348339815191528152f35b3461024d57600036600319011261024d576020600554604051908152f35b3461024d57600036600319011261024d5760206040517f65d7a28e3265b37a6474929f336521b332c1681b933f6cb9f3376673440d862a8152f35b3461024d57604036600319011261024d576103166126fb565b610327610321612711565b916127d3565b9060018060a01b03166000526020526020604060002054604051908152f35b3461024d57604036600319011261024d57610392600435610365612711565b90806000526000805160206134b483398151915260205261038d60016040600020015461280c565b612b40565b005b3461024d57600036600319011261024d5760206040517f9f2df0fed2c77648de5860a4cc508cd0818c85b8b8a1ab4ceeef8d981c8956a68152f35b3461024d5760e036600319011261024d576103e86126fb565b6103f0612711565b60443590606435926084359360ff8516850361024d578042116105425760018060a01b039081831695866000527f5ab42ced628888259c08ac98db1eb0cf702fc1501344311d8b100cd1bfe4bb006020526040600020908154916001830190556040519260208401927f6e71edae12b1b97f4d1f60370fef10105fa2faae0126114a169c64845d6126c98452896040860152858816606086015288608086015260a085015260c084015260c0835260e08301918383106001600160401b0384111761052c576104fb936104f2936040525190206104cb612e6a565b906040519161190160f01b83526002830152602282015260c43591604260a4359220612fcd565b90929192613053565b1684810361050e57506103929350612e0c565b60449085604051916325c0072360e11b835260048301526024820152fd5b634e487b7160e01b600052604160045260246000fd5b6024906040519063313c898160e11b82526004820152fd5b3461024d57600036600319011261024d576105a060405161057a81612727565b60058152640352e302e360dc1b60208201526040519182916020835260208301906126bb565b0390f35b3461024d57604036600319011261024d576105bd6126fb565b602435906105c96131e1565b6105d161320c565b3360005260006020526105ec60ff604060002054161561319f565b6105f7828233612d41565b6040519182526001600160a01b03169033907fc46393c51fb2221caaec70cc70adecd0bbd1f605f3a19747f4ec3a8aff00cf7c90602090a360016000805160206134f483398151915255602060405160018152f35b3461024d57600036600319011261024d57602060405160008152f35b3461024d57600036600319011261024d5760405180600554808352602080930180916005600052846000209060005b868282106106f65786866106ad82880383612742565b604051928392818401908285525180915260408401929160005b8281106106d657505050500390f35b83516001600160a01b0316855286955093810193928101926001016106c7565b83546001600160a01b031685529093019260019283019201610697565b3461024d57602036600319011261024d5760043561072f6131e1565b61073761320c565b3360009081527f549fe2656c81d2947b3b913f0a53b9ea86c71e049f3a1b8aa23c09a8a05cb8d4602052604090205460ff16156107d15761077981151561323c565b7f30385c845b448a36257a6a1716e6ad2e1bc2cbe333cde1e69fe849ad6511adfe602060018060a01b036107b184826004541661312d565b6004541692604051908152a260016000805160206134f483398151915255005b60405162461bcd60e51b815260206004820152601660248201527521b0b63632b91034b9903737ba10309036b4b73a32b960511b6044820152606490fd5b3461024d57600036600319011261024d576040516000906000805160206133b483398151915280549061084182612bc3565b9081845260019283811690816000146108c25750600114610881575b6105a08461086d81880382612742565b6040519182916020835260208301906126bb565b90935060005260209283600020916000925b8284106108af57505050816105a09361086d928201019361085d565b8054858501870152928501928101610893565b6105a0965061086d9450602092508593915060ff191682840152151560051b8201019361085d565b3461024d57604036600319011261024d57610903612711565b6004356000526000805160206134b483398151915260205260406000209060018060a01b0316600052602052602060ff604060002054166040519015158152f35b3461024d57600036600319011261024d57600080516020613414833981519152541580610a64575b15610a2757610979612bfd565b610981612cb2565b6040516020808201928284106001600160401b0385111761052c5791816109da85946109cc979660405260008452604051978897600f60f81b895260e0858a015260e08901906126bb565b9087820360408901526126bb565b91466060870152306080870152600060a087015285830360c0870152519182815201929160005b828110610a1057505050500390f35b835185528695509381019392810192600101610a01565b60405162461bcd60e51b81526020600482015260156024820152741152540dcc4c8e88155b9a5b9a5d1a585b1a5e9959605a1b6044820152606490fd5b50600080516020613534833981519152541561096c565b3461024d57600036600319011261024d57336000908152600080516020613474833981519152602052604090205460ff1615610aff57610ab96131e1565b6000805160206134d4833981519152600160ff198254161790557f62e78cea01bee320cd4e420270b5ea74000d11b0c9f74754ebdbfc544b05a2586020604051338152a1005b60405162461bcd60e51b815260206004820152601360248201527243616c6c65722063616e6e6f7420706175736560681b6044820152606490fd5b3461024d57602036600319011261024d577f7dae230f18360d76a040c81f050aa14eb9d6dc7901b20fc5d855e2a20fe814d16020610b766126fb565b600080526000805160206134b483398151915282526040600020336000528252610ba760ff60406000205416613293565b6001600160a01b0316610bbb8115156132d5565b600480546001600160a01b03191682179055604051908152a1005b3461024d57602036600319011261024d576001600160a01b03610bf76126fb565b166000527f5ab42ced628888259c08ac98db1eb0cf702fc1501344311d8b100cd1bfe4bb006020526020604060002054604051908152f35b3461024d57602036600319011261024d576001600160a01b03610c506126fb565b166000526000805160206133748339815191526020526020604060002054604051908152f35b3461024d5760208060031936011261024d57610c906126fb565b600080526000805160206134b483398151915282526040600020336000528252610cc160ff60406000205416613293565b6001600160a01b03811691610cd78315156132d5565b826000526001815260ff60406000205416610d6d5760019083600052526040600020600160ff1982541617905560055490600160401b82101561052c57610d27826001610d46940160055561268a565b90919082549060031b9160018060a01b03809116831b921b1916179055565b7f994a936646fe87ffe4f1e469d3d6aa417d6b855598397f323de5b449f765f0c3600080a2005b6064906040519062461bcd60e51b82526004820152601b60248201527f4164647265737320697320616c726561647920616e206f776e657200000000006044820152fd5b3461024d57600036600319011261024d576004546040516001600160a01b039091168152602090f35b3461024d57600036600319011261024d57602060ff6000805160206134d483398151915254166040519015158152f35b3461024d5760208060031936011261024d57610e246126fb565b90610e2d61320c565b336000526001815260ff6040600020541615611066576001600160a01b03821660008181526002835260409020805491939091908115611029576001830180549060ff8216610fe45786600052600080516020613374833981519152918287526040600020548511610f915760ff191660011790558515610f7857610eb06131e1565b8560005280855260406000205491838310610f45575060008051602061349483398151915285847f739611d15e888dd4ca8f49e927e7231d4b02720705140af955144b2a9b3d35ab96956000958a9586885284520360408620556000805160206133d4833981519152818154039055604051908152a354916040519283523392a360016000805160206134f483398151915255005b60405163391434e360e21b81526001600160a01b0391909116600482015260248101929092525060448101829052606490fd5b604051634b637e8f60e11b815260006004820152602490fd5b60405162461bcd60e51b815260048101889052602560248201527f52657175657374656420616d6f756e74206578636565647320757365722062616044820152646c616e636560d81b6064820152608490fd5b60405162461bcd60e51b815260048101879052601d60248201527f4275726e207265717565737420616c72656164792065786563757465640000006044820152606490fd5b60405162461bcd60e51b8152600481018590526015602482015274139bc8189d5c9b881c995c5d595cdd08199bdd5b99605a1b6044820152606490fd5b6064906040519062461bcd60e51b82526004820152601660248201527521b0b63632b91034b9903737ba1030b71037bbb732b960511b6044820152fd5b3461024d57600036600319011261024d577f00000000000000000000000000000000000000000000000000000000000000006001600160a01b031630036110fc5760206040516000805160206134548339815191528152f35b60405163703e46dd60e11b8152600490fd5b604036600319011261024d576111226126fb565b60249081356001600160401b03811161024d573660238201121561024d57611153903690848160040135910161277e565b6001600160a01b037f00000000000000000000000000000000000000000000000000000000000000008116308114908115611355575b506110fc573360009081527fab71e3f32666744d246edff3f96e4bdafee2e9867098cdd118a979a7464786a860209081526040909120549091906000805160206134348339815191529060ff161561133857508316926040516352d1902d60e01b81528281600481885afa60009181611309575b5061121a57604051634c9c8ce360e01b8152600481018690528690fd5b849086600080516020613454833981519152918281036112f45750833b156112de575080546001600160a01b03191682179055604051907fbc7cd75a20ee27fd9adebab32041f755214dbc6bffa90cc0225b39da2e5c2d3b600080a28351156112c45750600080848461039296519101845af4903d156112bb573d61129e81612763565b906112ac6040519283612742565b8152600081943d92013e612f6a565b60609250612f6a565b92505050346112cf57005b63b398979f60e01b8152600490fd5b604051634c9c8ce360e01b815260048101849052fd5b60405190632a87526960e21b82526004820152fd5b9091508381813d8311611331575b6113218183612742565b8101031261024d575190876111fd565b503d611317565b856044916040519163e2517d3f60e01b8352336004840152820152fd5b9050816000805160206134548339815191525416141585611189565b3461024d57600036600319011261024d57336000908152600080516020613474833981519152602052604090205460ff1615611405576000805160206134d4833981519152805460ff8116156113f35760ff191690557f5db9ee0a495bf2e6ff9c91a7834c1ba4fdd244a5e8aa4e537bd38aeae4b073aa6020604051338152a1005b604051638dfc202b60e01b8152600490fd5b60405162461bcd60e51b815260206004820152601560248201527443616c6c65722063616e6e6f7420756e706175736560581b6044820152606490fd5b3461024d57604036600319011261024d5761145b612711565b336001600160a01b038216036114775761039290600435612b40565b60405163334bd91960e11b8152600490fd5b3461024d57600036600319011261024d5760206114a4612e6a565b604051908152f35b3461024d57600036600319011261024d57602060405160128152f35b3461024d57602036600319011261024d576001600160a01b036114e96126fb565b16600052600260205260408060002060ff6001825492015416825191825215156020820152f35b3461024d5760208060031936011261024d5760043590336000526000815261154060ff604060002054161561319f565b61154b82151561323c565b33600052600080516020613374833981519152815260406000205482116115ed5760405190604082018281106001600160401b0382111761052c577f5d06931c8dc69a16ea07030839ba70d3794cbda4dc0e16718165f9054db87a5a926115e291604052848152600183820160008152336000526002855260406000209251835551151591019060ff801983541691151516179055565b6040519283523392a2005b6084906040519062461bcd60e51b82526004820152602560248201527f416d6f756e742073686f756c64206e6f742065786365656420757365722062616044820152646c616e636560d81b6064820152fd5b3461024d57602036600319011261024d576001600160a01b036116606126fb565b166000526001602052602060ff604060002054166040519015158152f35b3461024d57604036600319011261024d5761039260043561169d612711565b90806000526000805160206134b48339815191526020526116c560016040600020015461280c565b612acb565b3461024d5760c036600319011261024d576004356001600160401b03811161024d576116fa9036906004016127b5565b6024356001600160401b03811161024d576117199036906004016127b5565b6044356001600160a01b038116900361024d57606435906001600160a01b038216820361024d576001600160401b0360a4351161024d5736602360a43501121561024d576001600160401b0360a435600401351161052c576040519161178b602060a4356004013560051b0184612742565b60a43560040135835260208301938436602460a4356004013560051b60a43501011161024d57602460a43501905b602460a4356004013560051b60a4350101821061217357505060008051602061351483398151915254926001600160401b0384161580612165575b60016001600160401b03861614908161215b575b159081612152575b506121405760016001600160401b03198516176000805160206135148339815191525560ff8460401c1615612113575b6118486130fe565b6118506130fe565b81516001600160401b03811161052c5761187860008051602061335483398151915254612bc3565b601f81116120b7575b50806020601f82116001146120185760009161200d575b508160011b916000199060031b1c191617600080516020613354833981519152555b8051906001600160401b03821161052c5781906118e56000805160206133b483398151915254612bc3565b601f8111611fb1575b50602090601f8311600114611f0d57600092611f02575b50508160011b916000199060031b1c1916176000805160206133b4833981519152555b6119306130fe565b6040519061193d82612727565b60018252603160f81b60208301526119536130fe565b8051906001600160401b03821161052c57819061197e60008051602061339483398151915254612bc3565b601f8111611ea6575b50602090601f8311600114611e0257600092611df7575b50508160011b916000199060031b1c191617600080516020613394833981519152555b8051906001600160401b03821161052c5781906119ec6000805160206133f483398151915254612bc3565b601f8111611d90575b50602090601f8311600114611cec57600092611ce1575b50508160011b916000199060031b1c1916176000805160206133f4833981519152555b600060008051602061341483398151915255600060008051602061353483398151915255611a5b6130fe565b611a636130fe565b6000805160206134d4833981519152805460ff19169055611a826130fe565b611a8a6130fe565b600380546001600160a01b03199081166044356001600160a01b038181169290921790935560048054909216931692909217909155611ac89061285d565b50611ad46044356128eb565b50611ae060443561299b565b50611aec604435612a33565b5060005b8251811015611b9557600581901b8301602001516001600160a01b0316908115611b605781611b5b9260005260016020526040600020600160ff198254161790557f994a936646fe87ffe4f1e469d3d6aa417d6b855598397f323de5b449f765f0c3600080a26130d8565b611af0565b60405162461bcd60e51b815260206004820152600d60248201526c24b73b30b634b21037bbb732b960991b6044820152606490fd5b50919051906001600160401b03821161052c57600160401b821161052c5760055482600555808310611ca6575b506005600052602060002060005b838110611c895760ff85608435611bf18160018060a01b036004541661312d565b6004546040519182526001600160a01b0316907f30385c845b448a36257a6a1716e6ad2e1bc2cbe333cde1e69fe849ad6511adfe90602090a260401c1615611c3557005b60ff60401b196000805160206135148339815191525416600080516020613514833981519152557fc7f505b2f371ae2175ee4913f4499e1f2633a7b5936321eed1cdaeb6115181d2602060405160018152a1005b82516001600160a01b031681830155602090920191600101611bd0565b6005600052611cdb907f036b6384b5eca791c62761152d0c79bb0604c104a5fb6f4eb0703f3154bb3db09081019084016130e7565b83611bc2565b015190508680611a0c565b6000805160206133f4833981519152600090815293507f5f9ce34815f8e11431c7bb75a8e6886a91478f7ffc1dbb0a98dc240fddd76b7591905b601f1984168510611d75576001945083601f19811610611d5c575b505050811b016000805160206133f483398151915255611a2f565b015160001960f88460031b161c19169055868080611d41565b81810151835560209485019460019093019290910190611d26565b6000805160206133f4833981519152600052611de7907f5f9ce34815f8e11431c7bb75a8e6886a91478f7ffc1dbb0a98dc240fddd76b75601f850160051c81019160208610611ded575b601f0160051c01906130e7565b876119f5565b9091508190611dda565b01519050878061199e565b600080516020613394833981519152600090815293507f42ad5d3e1f2e6e70edcf6d991b8a3023d3fca8047a131592f9edb9fd9b89d57d91905b601f1984168510611e8b576001945083601f19811610611e72575b505050811b01600080516020613394833981519152556119c1565b015160001960f88460031b161c19169055878080611e57565b81810151835560209485019460019093019290910190611e3c565b600080516020613394833981519152600052611efc907f42ad5d3e1f2e6e70edcf6d991b8a3023d3fca8047a131592f9edb9fd9b89d57d601f850160051c81019160208610611ded57601f0160051c01906130e7565b88611987565b015190508780611905565b6000805160206133b4833981519152600090815293507f46a2803e59a4de4e7a4c574b1243f25977ac4c77d5a1a4a609b5394cebb4a2aa91905b601f1984168510611f96576001945083601f19811610611f7d575b505050811b016000805160206133b483398151915255611928565b015160001960f88460031b161c19169055878080611f62565b81810151835560209485019460019093019290910190611f47565b6000805160206133b4833981519152600052612007907f46a2803e59a4de4e7a4c574b1243f25977ac4c77d5a1a4a609b5394cebb4a2aa601f850160051c81019160208610611ded57601f0160051c01906130e7565b886118ee565b905083015188611898565b600080516020613354833981519152600090815292507f2ae08a8e29253f69ac5d979a101956ab8f8d9d7ded63fa7a83b16fc47648eab0905b601f198316841061209f576001935082601f19811610612086575b5050811b01600080516020613354833981519152556118ba565b85015160001960f88460031b161c19169055888061206c565b85810151825560209384019360019092019101612051565b60008051602061335483398151915260005261210d907f2ae08a8e29253f69ac5d979a101956ab8f8d9d7ded63fa7a83b16fc47648eab0601f840160051c81019160208510611ded57601f0160051c01906130e7565b87611881565b68ffffffffffffffffff198416680100000000000000011760008051602061351483398151915255611840565b60405163f92ee8a960e01b8152600490fd5b90501587611810565b303b159150611808565b5060ff8460401c16156117f4565b81356001600160a01b038116810361024d578152602091820191016117b9565b3461024d57602036600319011261024d576004356000526000805160206134b48339815191526020526020600160406000200154604051908152f35b3461024d57606036600319011261024d576121e86126fb565b6121f0612711565b604435906121fd836127d3565b3360005260205260406000205492600019840361222a575b61221f9350612d41565b602060405160018152f35b828410612299576001600160a01b03811615612280573315612267578261221f94612254836127d3565b3360005260205203604060002055612215565b604051634a1406b160e11b815260006004820152602490fd5b60405163e602df0560e01b815260006004820152602490fd5b604051637dc7a0d960e11b81523360048201526024810185905260448101849052606490fd5b3461024d57600036600319011261024d5760206000805160206133d483398151915254604051908152f35b3461024d5760208060031936011261024d576123046126fb565b90600080526000805160206134b48339815191528152604060002033600052815261233660ff60406000205416613293565b60018060a01b03809216918260005260019182815260ff604060002054161561246857918091928460005252604060002060ff198154169055806000905b6123a1575b837f58619076adf5bb0943d100ef88d52d7c3fd691b19d3a9071b555b651fbf418da600080a2005b60059081549182821015612461578492866123bb8461268a565b979054600398891b1c16146123e05750506123d8919293506130d8565b829192612374565b9093506000199182820191821161244b57610d278461240161240e9461268a565b905490891b1c169161268a565b825480156124355701926124218461268a565b81939154921b1b1916905555818080612379565b634e487b7160e01b600052603160045260246000fd5b634e487b7160e01b600052601160045260246000fd5b5050612379565b6064906040519062461bcd60e51b82526004820152601760248201527620b2323932b9b99034b9903737ba1030b71037bbb732b960491b6044820152fd5b3461024d57604036600319011261024d576124bf6126fb565b602435801515810361024d573360009081527fb7db2dd08fcb62d0c9e08c51941cae53c267786a0b75803fb7960902fc8ef97d6020526040902054610392929061250b9060ff16613293565b60018060a01b0316600052600060205260406000209060ff801983541691151516179055565b3461024d57604036600319011261024d5761221f61254d6126fb565b6024359033612e0c565b3461024d57600036600319011261024d5760405160009060008051602061335483398151915280549061258982612bc3565b9081845260019283811690816000146108c257506001146125b4576105a08461086d81880382612742565b90935060005260209283600020916000925b8284106125e257505050816105a09361086d928201019361085d565b80548585018701529285019281016125c6565b3461024d57602036600319011261024d5760043560055481101561024d5761261e60209161268a565b905460405160039290921b1c6001600160a01b03168152f35b3461024d57602036600319011261024d576004359063ffffffff60e01b821680920361024d57602091637965db0b60e01b8114908115612679575b5015158152f35b6301ffc9a760e01b14905083612672565b6005548110156126a557600560005260206000200190600090565b634e487b7160e01b600052603260045260246000fd5b919082519283825260005b8481106126e7575050826000602080949584010152601f8019910116010190565b6020818301810151848301820152016126c6565b600435906001600160a01b038216820361024d57565b602435906001600160a01b038216820361024d57565b604081019081106001600160401b0382111761052c57604052565b90601f801991011681019081106001600160401b0382111761052c57604052565b6001600160401b03811161052c57601f01601f191660200190565b92919261278a82612763565b916127986040519384612742565b82948184528183011161024d578281602093846000960137010152565b9080601f8301121561024d578160206127d09335910161277e565b90565b6001600160a01b031660009081527f52c63247e1f47db19d5ce0460030c497f067ca4cebf71ba98eeadabe20bace016020526040902090565b806000526000805160206134b483398151915260205260406000203360005260205260ff604060002054161561283f5750565b6044906040519063e2517d3f60e01b82523360048301526024820152fd5b6001600160a01b031660008181527fb7db2dd08fcb62d0c9e08c51941cae53c267786a0b75803fb7960902fc8ef97d60205260408120549091906000805160206134b48339815191529060ff166128e6578280526020526040822081835260205260408220600160ff1982541617905533916000805160206133348339815191528180a4600190565b505090565b6001600160a01b031660008181527f549fe2656c81d2947b3b913f0a53b9ea86c71e049f3a1b8aa23c09a8a05cb8d460205260408120549091907f9f2df0fed2c77648de5860a4cc508cd0818c85b8b8a1ab4ceeef8d981c8956a6906000805160206134b48339815191529060ff16612995578184526020526040832082845260205260408320600160ff19825416179055600080516020613334833981519152339380a4600190565b50505090565b6001600160a01b0316600081815260008051602061347483398151915260205260408120549091907f65d7a28e3265b37a6474929f336521b332c1681b933f6cb9f3376673440d862a906000805160206134b48339815191529060ff16612995578184526020526040832082845260205260408320600160ff19825416179055600080516020613334833981519152339380a4600190565b6001600160a01b031660008181527fab71e3f32666744d246edff3f96e4bdafee2e9867098cdd118a979a7464786a86020526040812054909190600080516020613434833981519152906000805160206134b48339815191529060ff16612995578184526020526040832082845260205260408320600160ff19825416179055600080516020613334833981519152339380a4600190565b906000918083526000805160206134b483398151915280602052604084209260018060a01b03169283855260205260ff60408520541615600014612995578184526020526040832082845260205260408320600160ff19825416179055600080516020613334833981519152339380a4600190565b906000918083526000805160206134b483398151915280602052604084209260018060a01b03169283855260205260ff60408520541660001461299557818452602052604083208284526020526040832060ff1981541690557ff6391f5c32d9c69d2a47ea670b442974b53935d1edc7fd64eb21e047a839171b339380a4600190565b90600182811c92168015612bf3575b6020831014612bdd57565b634e487b7160e01b600052602260045260246000fd5b91607f1691612bd2565b6040519060008260008051602061339483398151915291825492612c2084612bc3565b908184526001948581169081600014612c8f5750600114612c4c575b5050612c4a92500383612742565b565b9093915060005260209081600020936000915b818310612c77575050612c4a93508201013880612c3c565b85548884018501529485019487945091830191612c5f565b915050612c4a94506020925060ff191682840152151560051b8201013880612c3c565b604051906000826000805160206133f483398151915291825492612cd584612bc3565b908184526001948581169081600014612c8f5750600114612cfe575050612c4a92500383612742565b9093915060005260209081600020936000915b818310612d29575050612c4a93508201013880612c3c565b85548884018501529485019487945091830191612d11565b916001600160a01b03808416928315610f785716928315612df357612d646131e1565b60009083825260008051602061337483398151915280602052604083205491848310612dc057508284600080516020613494833981519152959360409388602097528652038282205586815220818154019055604051908152a3565b60405163391434e360e21b81526001600160a01b0391909116600482015260248101929092525060448101839052606490fd5b60405163ec442f0560e01b815260006004820152602490fd5b916001600160a01b038084169283156122805716928315612267577f8c5be1e5ebec7d5bd14f71427d1e84f3dd0314c0f7b2291e5b200ac8c7c3b92591612e546020926127d3565b85600052825280604060002055604051908152a3565b612e72612edf565b612e7a612f37565b6040519060208201927f8b73c3c69bb8fe3d512ecc4cf759cc79239f7b179b0ffacaa9a75d522b39400f8452604083015260608201524660808201523060a082015260a0815260c081018181106001600160401b0382111761052c5760405251902090565b612ee7612bfd565b8051908115612ef7576020012090565b5050600080516020613414833981519152548015612f125790565b507fc5d2460186f7233c927e7db2dcc703c0e500b653ca82273b7bfad8045d85a47090565b612f3f612cb2565b8051908115612f4f576020012090565b5050600080516020613534833981519152548015612f125790565b90612f915750805115612f7f57805190602001fd5b604051630a12f52160e11b8152600490fd5b81511580612fc4575b612fa2575090565b604051639996b31560e01b81526001600160a01b039091166004820152602490fd5b50803b15612f9a565b91906fa2a8918ca85bafe22016d0b997e4df60600160ff1b03841161304757926020929160ff608095604051948552168484015260408301526060820152600092839182805260015afa1561303b5780516001600160a01b0381161561303257918190565b50809160019190565b604051903d90823e3d90fd5b50505060009160039190565b60048110156130c25780613065575050565b6001810361307f5760405163f645eedf60e01b8152600490fd5b600281036130a05760405163fce698f760e01b815260048101839052602490fd5b6003146130aa5750565b602490604051906335e2f38360e21b82526004820152fd5b634e487b7160e01b600052602160045260246000fd5b600019811461244b5760010190565b8181106130f2575050565b600081556001016130e7565b60ff6000805160206135148339815191525460401c161561311b57565b604051631afcd79f60e31b8152600490fd5b6001600160a01b0316908115612df3576131456131e1565b6000805160206133d483398151915280549082820180921161244b576000926000805160206134948339815191529260209255848452600080516020613374833981519152825260408420818154019055604051908152a3565b156131a657565b60405162461bcd60e51b8152602060048201526013602482015272426c61636b6c6973746564206164647265737360681b6044820152606490fd5b60ff6000805160206134d483398151915254166131fa57565b60405163d93c066560e01b8152600490fd5b6000805160206134f4833981519152600281541461322a5760029055565b604051633ee5aeb560e01b8152600490fd5b1561324357565b60405162461bcd60e51b815260206004820152602260248201527f416d6f756e742073686f756c642062652067726561746572207468616e207a65604482015261726f60f01b6064820152608490fd5b1561329a57565b60405162461bcd60e51b815260206004820152601360248201527221b0b63632b91034b9903737ba1030b236b4b760691b6044820152606490fd5b156132dc57565b60405162461bcd60e51b815260206004820152602960248201527f496e76616c696420616464726573733a207a65726f2061646472657373206e6f6044820152681d08185b1b1bddd95960ba1b6064820152608490fdfe2f8788117e7eff1d82e926ec794901d17c78024a50270940304540a733656f0d52c63247e1f47db19d5ce0460030c497f067ca4cebf71ba98eeadabe20bace0352c63247e1f47db19d5ce0460030c497f067ca4cebf71ba98eeadabe20bace00a16a46d94261c7517cc8ff89f61c0ce93598e3c849801011dee649a6a557d10252c63247e1f47db19d5ce0460030c497f067ca4cebf71ba98eeadabe20bace0452c63247e1f47db19d5ce0460030c497f067ca4cebf71ba98eeadabe20bace02a16a46d94261c7517cc8ff89f61c0ce93598e3c849801011dee649a6a557d103a16a46d94261c7517cc8ff89f61c0ce93598e3c849801011dee649a6a557d100189ab7a9244df0848122154315af71fe140f3db0fe014031783b0946b8c9d2e3360894a13ba1a3210667c828492db98dca3e2076cc3735a920a3ca505d382bbc75442b0a96088b5456bc4ed01394c96a4feec0f883c9494257d76b96ab1c9b6bddf252ad1be2c89b69c2b068fc378daa952ba7f163c4a11628f55a4df523b3ef02dd7bc7dec4dceedda775e58dd541e08a116c6c53815c0bd028192f7b626800cd5ed15c6e187e77e9aee88184c21f4f2182ab5827cb3b7e07fbedcd63f033009b779b17422d0df92223018b32b4d1fa46e071723d6817e2486d003becc55f00f0c57e16840df040f15088dc2f81fe391c3923bec73e23a9662efc9c229c6a00a16a46d94261c7517cc8ff89f61c0ce93598e3c849801011dee649a6a557d101a264697066735822122028563ad445db157444a0fc78d4f6c0ec584942d07ddfa70fa5e7f9e22c60f0ff64736f6c63430008140033",
    "linkReferences": {},
    "deployedLinkReferences": {}
}