{
    "_format": "hh-sol-artifact-1",
    "contractName": "LydiaTokenDistribution",
    "sourceName": "contracts/TokenDistribution.sol",
    "abi": [
        {
            "inputs": [],
            "stateMutability": "nonpayable",
            "type": "constructor"
        },
        {
            "inputs": [],
            "name": "AccessControlBadConfirmation",
            "type": "error"
        },
        {
            "inputs": [
                {
                    "internalType": "address",
                    "name": "account",
                    "type": "address"
                },
                {
                    "internalType": "bytes32",
                    "name": "neededRole",
                    "type": "bytes32"
                }
            ],
            "name": "AccessControlUnauthorizedAccount",
            "type": "error"
        },
        {
            "inputs": [
                {
                    "internalType": "address",
                    "name": "target",
                    "type": "address"
                }
            ],
            "name": "AddressEmptyCode",
            "type": "error"
        },
        {
            "inputs": [
                {
                    "internalType": "address",
                    "name": "account",
                    "type": "address"
                }
            ],
            "name": "AddressInsufficientBalance",
            "type": "error"
        },
        {
            "inputs": [
                {
                    "internalType": "address",
                    "name": "implementation",
                    "type": "address"
                }
            ],
            "name": "ERC1967InvalidImplementation",
            "type": "error"
        },
        {
            "inputs": [],
            "name": "ERC1967NonPayable",
            "type": "error"
        },
        {
            "inputs": [],
            "name": "EnforcedPause",
            "type": "error"
        },
        {
            "inputs": [],
            "name": "ExpectedPause",
            "type": "error"
        },
        {
            "inputs": [],
            "name": "FailedInnerCall",
            "type": "error"
        },
        {
            "inputs": [],
            "name": "InsufficientTokenBalance",
            "type": "error"
        },
        {
            "inputs": [],
            "name": "InvalidInitialization",
            "type": "error"
        },
        {
            "inputs": [],
            "name": "InvalidTokenType",
            "type": "error"
        },
        {
            "inputs": [],
            "name": "NotEnoughTokensInVault",
            "type": "error"
        },
        {
            "inputs": [],
            "name": "NotInitializing",
            "type": "error"
        },
        {
            "inputs": [],
            "name": "ReentrancyGuardReentrantCall",
            "type": "error"
        },
        {
            "inputs": [
                {
                    "internalType": "address",
                    "name": "token",
                    "type": "address"
                }
            ],
            "name": "SafeERC20FailedOperation",
            "type": "error"
        },
        {
            "inputs": [],
            "name": "UUPSUnauthorizedCallContext",
            "type": "error"
        },
        {
            "inputs": [
                {
                    "internalType": "bytes32",
                    "name": "slot",
                    "type": "bytes32"
                }
            ],
            "name": "UUPSUnsupportedProxiableUUID",
            "type": "error"
        },
        {
            "anonymous": false,
            "inputs": [
                {
                    "indexed": false,
                    "internalType": "uint64",
                    "name": "version",
                    "type": "uint64"
                }
            ],
            "name": "Initialized",
            "type": "event"
        },
        {
            "anonymous": false,
            "inputs": [
                {
                    "indexed": false,
                    "internalType": "address",
                    "name": "account",
                    "type": "address"
                }
            ],
            "name": "Paused",
            "type": "event"
        },
        {
            "anonymous": false,
            "inputs": [
                {
                    "indexed": true,
                    "internalType": "bytes32",
                    "name": "role",
                    "type": "bytes32"
                },
                {
                    "indexed": true,
                    "internalType": "bytes32",
                    "name": "previousAdminRole",
                    "type": "bytes32"
                },
                {
                    "indexed": true,
                    "internalType": "bytes32",
                    "name": "newAdminRole",
                    "type": "bytes32"
                }
            ],
            "name": "RoleAdminChanged",
            "type": "event"
        },
        {
            "anonymous": false,
            "inputs": [
                {
                    "indexed": true,
                    "internalType": "bytes32",
                    "name": "role",
                    "type": "bytes32"
                },
                {
                    "indexed": true,
                    "internalType": "address",
                    "name": "account",
                    "type": "address"
                },
                {
                    "indexed": true,
                    "internalType": "address",
                    "name": "sender",
                    "type": "address"
                }
            ],
            "name": "RoleGranted",
            "type": "event"
        },
        {
            "anonymous": false,
            "inputs": [
                {
                    "indexed": true,
                    "internalType": "bytes32",
                    "name": "role",
                    "type": "bytes32"
                },
                {
                    "indexed": true,
                    "internalType": "address",
                    "name": "account",
                    "type": "address"
                },
                {
                    "indexed": true,
                    "internalType": "address",
                    "name": "sender",
                    "type": "address"
                }
            ],
            "name": "RoleRevoked",
            "type": "event"
        },
        {
            "anonymous": false,
            "inputs": [
                {
                    "indexed": true,
                    "internalType": "address",
                    "name": "owner",
                    "type": "address"
                },
                {
                    "indexed": true,
                    "internalType": "address",
                    "name": "recipient",
                    "type": "address"
                },
                {
                    "indexed": false,
                    "internalType": "uint256",
                    "name": "amount",
                    "type": "uint256"
                }
            ],
            "name": "TokensTransferred",
            "type": "event"
        },
        {
            "anonymous": false,
            "inputs": [
                {
                    "indexed": true,
                    "internalType": "address",
                    "name": "owner",
                    "type": "address"
                },
                {
                    "indexed": false,
                    "internalType": "uint256",
                    "name": "amount",
                    "type": "uint256"
                }
            ],
            "name": "TokensWithdrawn",
            "type": "event"
        },
        {
            "anonymous": false,
            "inputs": [
                {
                    "indexed": false,
                    "internalType": "address",
                    "name": "account",
                    "type": "address"
                }
            ],
            "name": "Unpaused",
            "type": "event"
        },
        {
            "anonymous": false,
            "inputs": [
                {
                    "indexed": true,
                    "internalType": "address",
                    "name": "implementation",
                    "type": "address"
                }
            ],
            "name": "Upgraded",
            "type": "event"
        },
        {
            "inputs": [],
            "name": "DEFAULT_ADMIN_ROLE",
            "outputs": [
                {
                    "internalType": "bytes32",
                    "name": "",
                    "type": "bytes32"
                }
            ],
            "stateMutability": "view",
            "type": "function"
        },
        {
            "inputs": [],
            "name": "UPGRADER_ROLE",
            "outputs": [
                {
                    "internalType": "bytes32",
                    "name": "",
                    "type": "bytes32"
                }
            ],
            "stateMutability": "view",
            "type": "function"
        },
        {
            "inputs": [],
            "name": "UPGRADE_INTERFACE_VERSION",
            "outputs": [
                {
                    "internalType": "string",
                    "name": "",
                    "type": "string"
                }
            ],
            "stateMutability": "view",
            "type": "function"
        },
        {
            "inputs": [
                {
                    "internalType": "uint256",
                    "name": "_amount",
                    "type": "uint256"
                }
            ],
            "name": "burnTokens",
            "outputs": [],
            "stateMutability": "nonpayable",
            "type": "function"
        },
        {
            "inputs": [
                {
                    "internalType": "bytes32",
                    "name": "role",
                    "type": "bytes32"
                }
            ],
            "name": "getRoleAdmin",
            "outputs": [
                {
                    "internalType": "bytes32",
                    "name": "",
                    "type": "bytes32"
                }
            ],
            "stateMutability": "view",
            "type": "function"
        },
        {
            "inputs": [
                {
                    "internalType": "address",
                    "name": "_walletAddress",
                    "type": "address"
                }
            ],
            "name": "getTokenBalance",
            "outputs": [
                {
                    "internalType": "uint256",
                    "name": "",
                    "type": "uint256"
                }
            ],
            "stateMutability": "view",
            "type": "function"
        },
        {
            "inputs": [
                {
                    "internalType": "bytes32",
                    "name": "role",
                    "type": "bytes32"
                },
                {
                    "internalType": "address",
                    "name": "account",
                    "type": "address"
                }
            ],
            "name": "grantRole",
            "outputs": [],
            "stateMutability": "nonpayable",
            "type": "function"
        },
        {
            "inputs": [
                {
                    "internalType": "bytes32",
                    "name": "role",
                    "type": "bytes32"
                },
                {
                    "internalType": "address",
                    "name": "account",
                    "type": "address"
                }
            ],
            "name": "hasRole",
            "outputs": [
                {
                    "internalType": "bool",
                    "name": "",
                    "type": "bool"
                }
            ],
            "stateMutability": "view",
            "type": "function"
        },
        {
            "inputs": [
                {
                    "internalType": "address",
                    "name": "_lydiaCoin",
                    "type": "address"
                }
            ],
            "name": "initialize",
            "outputs": [],
            "stateMutability": "nonpayable",
            "type": "function"
        },
        {
            "inputs": [],
            "name": "lydiaCoin",
            "outputs": [
                {
                    "internalType": "contract IERC20",
                    "name": "",
                    "type": "address"
                }
            ],
            "stateMutability": "view",
            "type": "function"
        },
        {
            "inputs": [],
            "name": "pause",
            "outputs": [],
            "stateMutability": "nonpayable",
            "type": "function"
        },
        {
            "inputs": [],
            "name": "paused",
            "outputs": [
                {
                    "internalType": "bool",
                    "name": "",
                    "type": "bool"
                }
            ],
            "stateMutability": "view",
            "type": "function"
        },
        {
            "inputs": [],
            "name": "proxiableUUID",
            "outputs": [
                {
                    "internalType": "bytes32",
                    "name": "",
                    "type": "bytes32"
                }
            ],
            "stateMutability": "view",
            "type": "function"
        },
        {
            "inputs": [
                {
                    "internalType": "bytes32",
                    "name": "role",
                    "type": "bytes32"
                },
                {
                    "internalType": "address",
                    "name": "callerConfirmation",
                    "type": "address"
                }
            ],
            "name": "renounceRole",
            "outputs": [],
            "stateMutability": "nonpayable",
            "type": "function"
        },
        {
            "inputs": [
                {
                    "internalType": "bytes32",
                    "name": "role",
                    "type": "bytes32"
                },
                {
                    "internalType": "address",
                    "name": "account",
                    "type": "address"
                }
            ],
            "name": "revokeRole",
            "outputs": [],
            "stateMutability": "nonpayable",
            "type": "function"
        },
        {
            "inputs": [
                {
                    "internalType": "bytes4",
                    "name": "interfaceId",
                    "type": "bytes4"
                }
            ],
            "name": "supportsInterface",
            "outputs": [
                {
                    "internalType": "bool",
                    "name": "",
                    "type": "bool"
                }
            ],
            "stateMutability": "view",
            "type": "function"
        },
        {
            "inputs": [
                {
                    "internalType": "address",
                    "name": "_recipient",
                    "type": "address"
                },
                {
                    "internalType": "uint256",
                    "name": "_tokenAmount",
                    "type": "uint256"
                }
            ],
            "name": "transferToken",
            "outputs": [],
            "stateMutability": "nonpayable",
            "type": "function"
        },
        {
            "inputs": [],
            "name": "unpause",
            "outputs": [],
            "stateMutability": "nonpayable",
            "type": "function"
        },
        {
            "inputs": [
                {
                    "internalType": "address",
                    "name": "newImplementation",
                    "type": "address"
                },
                {
                    "internalType": "bytes",
                    "name": "data",
                    "type": "bytes"
                }
            ],
            "name": "upgradeToAndCall",
            "outputs": [],
            "stateMutability": "payable",
            "type": "function"
        },
        {
            "inputs": [
                {
                    "internalType": "uint256",
                    "name": "_amount",
                    "type": "uint256"
                }
            ],
            "name": "withdrawTokens",
            "outputs": [],
            "stateMutability": "nonpayable",
            "type": "function"
        }
    ],
    "bytecode": "0x60a080604052346100cc57306080527ff0c57e16840df040f15088dc2f81fe391c3923bec73e23a9662efc9c229c6a009081549060ff8260401c166100bd57506001600160401b036002600160401b031982821601610078575b60405161136790816100d2823960805181818161063e015261070e0152f35b6001600160401b031990911681179091556040519081527fc7f505b2f371ae2175ee4913f4499e1f2633a7b5936321eed1cdaeb6115181d290602090a1388080610059565b63f92ee8a960e01b8152600490fd5b600080fdfe608060408181526004918236101561001657600080fd5b600092833560e01c91826301ffc9a714610cfa575081631072cbea14610be65781631180e51914610bbe578163248a9ca314610b865781632f2ff15d14610b5c578163315a095d14610a4f57816336568abe14610a095781633aecd0e31461096e5781633f4ba83a146108f65781634f1ef2861461069357816352d1902d146106295781635c975abb146105f85781636d1b229d1461046d5781638456cb591461040557816391d14854146103b2578163a217fddf14610397578163ad3cb1cc146102fa578163c4d66de81461017d578163d547741f1461012c575063f72c0d8b1461010157600080fd5b34610128578160031936011261012857602090516000805160206112928339815191528152f35b5080fd5b9190503461017957806003193601126101795761017591356101706001610151610d68565b938387526000805160206112d283398151915260205286200154610e28565b610ffc565b5080f35b8280fd5b90503461017957602036600319011261017957610198610d4d565b907ff0c57e16840df040f15088dc2f81fe391c3923bec73e23a9662efc9c229c6a0091825460ff81861c1615926001600160401b038216801590816102f2575b60011490816102e8575b1590816102df575b506102d1575067ffffffffffffffff1981166001178455826102b2575b50610210611112565b610218611112565b610220611112565b610228611112565b6000805160206112f2833981519152805460ff1916905584546001600160a01b0319166001600160a01b039190911617845561026333610e5b565b5061026d33610ee9565b50610276578280f35b805460ff60401b1916905551600181527fc7f505b2f371ae2175ee4913f4499e1f2633a7b5936321eed1cdaeb6115181d290602090a138808280f35b68ffffffffffffffffff19166801000000000000000117835538610207565b855163f92ee8a960e01b8152fd5b905015386101ea565b303b1591506101e2565b8591506101d8565b905034610179578260031936011261017957815190828201908282106001600160401b038311176103825750825260058152602090640352e302e360dc1b8282015282519382859384528251928382860152825b84811061036c57505050828201840152601f01601f19168101030190f35b818101830151888201880152879550820161034e565b604190634e487b7160e01b6000525260246000fd5b50503461012857816003193601126101285751908152602090f35b905034610179578160031936011261017957816020936103d0610d68565b923581526000805160206112d28339815191528552209060018060a01b0316600052825260ff81600020541690519015158152f35b50503461012857816003193601126101285760207f62e78cea01bee320cd4e420270b5ea74000d11b0c9f74754ebdbfc544b05a25891610443610dd0565b61044b611153565b6000805160206112f2833981519152805460ff1916600117905551338152a180f35b838334610128576020928360031936011261017957803561048c610dd0565b61049461117e565b61049c611153565b80156105ab57835483516370a0823160e01b815230848201526001600160a01b03909116959081816024818a5afa9182156105a157908392918792610570575b505010610561578484953b1561055d576024859285519687938492632f8d75e360e01b8452878401525af1801561055357610528575b8360016000805160206113128339815191525580f35b6001600160401b038311610540575052818080610512565b634e487b7160e01b845260419052602483fd5b82513d86823e3d90fd5b8480fd5b509051631739d01b60e31b8152fd5b8193508092503d831161059a575b6105888183610d7e565b8101031261055d5781905187806104dc565b503d61057e565b85513d88823e3d90fd5b5083608492519162461bcd60e51b8352820152602260248201527f416d6f756e742073686f756c642062652067726561746572207468616e207a65604482015261726f60f01b6064820152fd5b50503461012857816003193601126101285760209060ff6000805160206112f2833981519152541690519015158152f35b828434610690578060031936011261069057507f00000000000000000000000000000000000000000000000000000000000000006001600160a01b0316300361068357602090516000805160206112b28339815191528152f35b5163703e46dd60e11b8152fd5b80fd5b91809150600319360112610179576106a9610d4d565b9060249384356001600160401b03811161012857366023820112156101285780850135936106d685610db5565b6106e285519182610d7e565b85815260209586820193368a83830101116108a2578186928b8a93018737830101526001600160a01b037f000000000000000000000000000000000000000000000000000000000000000081163081149081156108da575b506108ca576000805160206112928339815191528086526000805160206112d28339815191528852868620338752885260ff8787205416156108ad575085516352d1902d60e01b81529083169680828a818b5afa9182918793610879575b50506107b45750505050505191634c9c8ce360e01b8352820152fd5b86899689926000805160206112b2833981519152908181036108645750853b1561084f5780546001600160a01b0319168317905551869392917fbc7cd75a20ee27fd9adebab32041f755214dbc6bffa90cc0225b39da2e5c2d3b8580a28251156108335750506101759382915190845af461082d61107f565b916110af565b9350935050503461084357505080f35b63b398979f60e01b8152fd5b5051634c9c8ce360e01b815291820152859150fd5b848a91845191632a87526960e21b8352820152fd5b9080929350813d83116108a6575b6108918183610d7e565b810103126108a25751903880610798565b8580fd5b503d610887565b865163e2517d3f60e01b815233818b0152808b0191909152604490fd5b855163703e46dd60e11b81528890fd5b9050816000805160206112b2833981519152541614153861073a565b905034610179578260031936011261017957610910610dd0565b6000805160206112f28339815191529081549060ff821615610960575060ff19169055513381527f5db9ee0a495bf2e6ff9c91a7834c1ba4fdd244a5e8aa4e537bd38aeae4b073aa90602090a180f35b8351638dfc202b60e01b8152fd5b8383346101285760209283600319360112610179578361098c610d4d565b845484516370a0823160e01b81526001600160a01b039283169481019490945283916024918391165afa9283156109fe5780936109cc575b505051908152f35b909192508382813d83116109f7575b6109e58183610d7e565b810103126106905750519083806109c4565b503d6109db565b8251903d90823e3d90fd5b838334610128578060031936011261012857610a23610d68565b90336001600160a01b03831603610a405750610175919235610ffc565b5163334bd91960e11b81528390fd5b919050346101795760209081600319360112610b5857823592610a70611153565b610a7861117e565b610a80610dd0565b845482516370a0823160e01b815230838201526001600160a01b0390911691908481602481865afa908115610b4e579086918891610b19575b5010610b0b575090610aef847f6352c5382c4a4578e712449ca65e83cdb392d045dfcf1cad9615189db2da244b949333906111ae565b519283523392a260016000805160206113128339815191525580f35b8251637222ae5760e11b8152fd5b809250868092503d8311610b47575b610b328183610d7e565b81010312610b435785905138610ab9565b8680fd5b503d610b28565b84513d89823e3d90fd5b8380fd5b919050346101795780600319360112610179576101759135610b816001610151610d68565b610f87565b90503461017957602036600319011261017957816020936001923581526000805160206112d283398151915285522001549051908152f35b505034610128578160031936011261012857905490516001600160a01b039091168152602090f35b905034610179578160031936011261017957610c00610d4d565b60243592610c0c611153565b610c1461117e565b610c1c610dd0565b845481516370a0823160e01b815230818601526001600160a01b03949185169190602081602481865afa908115610cf0579087918991610cb8575b5010610caa57508483610c69926111ae565b5192835216907f1b89874203ff7f0bba87c969ada3f32fda22ed38a6706d35199d21280c7811b160203392a360016000805160206113128339815191525580f35b8251631739d01b60e31b8152fd5b9150506020813d8211610ce8575b81610cd360209383610d7e565b81010312610ce45786905138610c57565b8780fd5b3d9150610cc6565b84513d8a823e3d90fd5b849134610179576020366003190112610179573563ffffffff60e01b81168091036101795760209250637965db0b60e01b8114908115610d3c575b5015158152f35b6301ffc9a760e01b14905083610d35565b600435906001600160a01b0382168203610d6357565b600080fd5b602435906001600160a01b0382168203610d6357565b90601f801991011681019081106001600160401b03821117610d9f57604052565b634e487b7160e01b600052604160045260246000fd5b6001600160401b038111610d9f57601f01601f191660200190565b3360009081527fb7db2dd08fcb62d0c9e08c51941cae53c267786a0b75803fb7960902fc8ef97d602052604081205460ff1615610e0a5750565b6044906040519063e2517d3f60e01b82523360048301526024820152fd5b806000526000805160206112d283398151915260205260406000203360005260205260ff6040600020541615610e0a5750565b6001600160a01b031660008181527fb7db2dd08fcb62d0c9e08c51941cae53c267786a0b75803fb7960902fc8ef97d60205260408120549091906000805160206112d28339815191529060ff16610ee4578280526020526040822081835260205260408220600160ff1982541617905533916000805160206112728339815191528180a4600190565b505090565b6001600160a01b031660008181527fab71e3f32666744d246edff3f96e4bdafee2e9867098cdd118a979a7464786a86020526040812054909190600080516020611292833981519152906000805160206112d28339815191529060ff16610f81578184526020526040832082845260205260408320600160ff19825416179055600080516020611272833981519152339380a4600190565b50505090565b906000918083526000805160206112d283398151915280602052604084209260018060a01b03169283855260205260ff60408520541615600014610f81578184526020526040832082845260205260408320600160ff19825416179055600080516020611272833981519152339380a4600190565b906000918083526000805160206112d283398151915280602052604084209260018060a01b03169283855260205260ff604085205416600014610f8157818452602052604083208284526020526040832060ff1981541690557ff6391f5c32d9c69d2a47ea670b442974b53935d1edc7fd64eb21e047a839171b339380a4600190565b3d156110aa573d9061109082610db5565b9161109e6040519384610d7e565b82523d6000602084013e565b606090565b906110d657508051156110c457805190602001fd5b604051630a12f52160e11b8152600490fd5b81511580611109575b6110e7575090565b604051639996b31560e01b81526001600160a01b039091166004820152602490fd5b50803b156110df565b60ff7ff0c57e16840df040f15088dc2f81fe391c3923bec73e23a9662efc9c229c6a005460401c161561114157565b604051631afcd79f60e31b8152600490fd5b60ff6000805160206112f2833981519152541661116c57565b60405163d93c066560e01b8152600490fd5b600080516020611312833981519152600281541461119c5760029055565b604051633ee5aeb560e01b8152600490fd5b60405163a9059cbb60e01b602082019081526001600160a01b039384166024830152604480830195909552938152929160808401916001600160401b03831185841017610d9f57611219926040521692600080938192519082875af161121261107f565b90846110af565b908151918215159283611249575b5050506112315750565b60249060405190635274afe760e01b82526004820152fd5b819293509060209181010312610128576020015190811591821503610690575038808061122756fe2f8788117e7eff1d82e926ec794901d17c78024a50270940304540a733656f0d189ab7a9244df0848122154315af71fe140f3db0fe014031783b0946b8c9d2e3360894a13ba1a3210667c828492db98dca3e2076cc3735a920a3ca505d382bbc02dd7bc7dec4dceedda775e58dd541e08a116c6c53815c0bd028192f7b626800cd5ed15c6e187e77e9aee88184c21f4f2182ab5827cb3b7e07fbedcd63f033009b779b17422d0df92223018b32b4d1fa46e071723d6817e2486d003becc55f00a26469706673582212201d37e589c611ec843e00af1bafb4dc8090995ad87699ca205024ecb3451b334f64736f6c63430008140033",
    "linkReferences": {},
    "deployedLinkReferences": {}
}