{
    "_format": "hh-sol-artifact-1",
    "contractName": "LydiaToken",
    "sourceName": "contracts/LydiaToken.sol",
    "abi": [
        {
            "inputs": [],
            "stateMutability": "nonpayable",
            "type": "constructor"
        },
        {
            "inputs": [],
            "name": "AccessControlBadConfirmation",
            "type": "error"
        },
        {
            "inputs": [
                {
                    "internalType": "address",
                    "name": "account",
                    "type": "address"
                },
                {
                    "internalType": "bytes32",
                    "name": "neededRole",
                    "type": "bytes32"
                }
            ],
            "name": "AccessControlUnauthorizedAccount",
            "type": "error"
        },
        {
            "inputs": [
                {
                    "internalType": "address",
                    "name": "target",
                    "type": "address"
                }
            ],
            "name": "AddressEmptyCode",
            "type": "error"
        },
        {
            "inputs": [],
            "name": "ECDSAInvalidSignature",
            "type": "error"
        },
        {
            "inputs": [
                {
                    "internalType": "uint256",
                    "name": "length",
                    "type": "uint256"
                }
            ],
            "name": "ECDSAInvalidSignatureLength",
            "type": "error"
        },
        {
            "inputs": [
                {
                    "internalType": "bytes32",
                    "name": "s",
                    "type": "bytes32"
                }
            ],
            "name": "ECDSAInvalidSignatureS",
            "type": "error"
        },
        {
            "inputs": [
                {
                    "internalType": "address",
                    "name": "implementation",
                    "type": "address"
                }
            ],
            "name": "ERC1967InvalidImplementation",
            "type": "error"
        },
        {
            "inputs": [],
            "name": "ERC1967NonPayable",
            "type": "error"
        },
        {
            "inputs": [
                {
                    "internalType": "address",
                    "name": "spender",
                    "type": "address"
                },
                {
                    "internalType": "uint256",
                    "name": "allowance",
                    "type": "uint256"
                },
                {
                    "internalType": "uint256",
                    "name": "needed",
                    "type": "uint256"
                }
            ],
            "name": "ERC20InsufficientAllowance",
            "type": "error"
        },
        {
            "inputs": [
                {
                    "internalType": "address",
                    "name": "sender",
                    "type": "address"
                },
                {
                    "internalType": "uint256",
                    "name": "balance",
                    "type": "uint256"
                },
                {
                    "internalType": "uint256",
                    "name": "needed",
                    "type": "uint256"
                }
            ],
            "name": "ERC20InsufficientBalance",
            "type": "error"
        },
        {
            "inputs": [
                {
                    "internalType": "address",
                    "name": "approver",
                    "type": "address"
                }
            ],
            "name": "ERC20InvalidApprover",
            "type": "error"
        },
        {
            "inputs": [
                {
                    "internalType": "address",
                    "name": "receiver",
                    "type": "address"
                }
            ],
            "name": "ERC20InvalidReceiver",
            "type": "error"
        },
        {
            "inputs": [
                {
                    "internalType": "address",
                    "name": "sender",
                    "type": "address"
                }
            ],
            "name": "ERC20InvalidSender",
            "type": "error"
        },
        {
            "inputs": [
                {
                    "internalType": "address",
                    "name": "spender",
                    "type": "address"
                }
            ],
            "name": "ERC20InvalidSpender",
            "type": "error"
        },
        {
            "inputs": [
                {
                    "internalType": "uint256",
                    "name": "deadline",
                    "type": "uint256"
                }
            ],
            "name": "ERC2612ExpiredSignature",
            "type": "error"
        },
        {
            "inputs": [
                {
                    "internalType": "address",
                    "name": "signer",
                    "type": "address"
                },
                {
                    "internalType": "address",
                    "name": "owner",
                    "type": "address"
                }
            ],
            "name": "ERC2612InvalidSigner",
            "type": "error"
        },
        {
            "inputs": [],
            "name": "EnforcedPause",
            "type": "error"
        },
        {
            "inputs": [],
            "name": "ExpectedPause",
            "type": "error"
        },
        {
            "inputs": [],
            "name": "FailedInnerCall",
            "type": "error"
        },
        {
            "inputs": [
                {
                    "internalType": "address",
                    "name": "account",
                    "type": "address"
                },
                {
                    "internalType": "uint256",
                    "name": "currentNonce",
                    "type": "uint256"
                }
            ],
            "name": "InvalidAccountNonce",
            "type": "error"
        },
        {
            "inputs": [],
            "name": "InvalidInitialization",
            "type": "error"
        },
        {
            "inputs": [],
            "name": "NotInitializing",
            "type": "error"
        },
        {
            "inputs": [],
            "name": "ReentrancyGuardReentrantCall",
            "type": "error"
        },
        {
            "inputs": [],
            "name": "UUPSUnauthorizedCallContext",
            "type": "error"
        },
        {
            "inputs": [
                {
                    "internalType": "bytes32",
                    "name": "slot",
                    "type": "bytes32"
                }
            ],
            "name": "UUPSUnsupportedProxiableUUID",
            "type": "error"
        },
        {
            "anonymous": false,
            "inputs": [
                {
                    "indexed": true,
                    "internalType": "address",
                    "name": "owner",
                    "type": "address"
                },
                {
                    "indexed": true,
                    "internalType": "address",
                    "name": "spender",
                    "type": "address"
                },
                {
                    "indexed": false,
                    "internalType": "uint256",
                    "name": "value",
                    "type": "uint256"
                }
            ],
            "name": "Approval",
            "type": "event"
        },
        {
            "anonymous": false,
            "inputs": [
                {
                    "indexed": true,
                    "internalType": "address",
                    "name": "from",
                    "type": "address"
                },
                {
                    "indexed": false,
                    "internalType": "uint256",
                    "name": "amount",
                    "type": "uint256"
                }
            ],
            "name": "Burned",
            "type": "event"
        },
        {
            "anonymous": false,
            "inputs": [],
            "name": "EIP712DomainChanged",
            "type": "event"
        },
        {
            "anonymous": false,
            "inputs": [
                {
                    "indexed": false,
                    "internalType": "uint64",
                    "name": "version",
                    "type": "uint64"
                }
            ],
            "name": "Initialized",
            "type": "event"
        },
        {
            "anonymous": false,
            "inputs": [
                {
                    "indexed": true,
                    "internalType": "address",
                    "name": "to",
                    "type": "address"
                },
                {
                    "indexed": false,
                    "internalType": "uint256",
                    "name": "amount",
                    "type": "uint256"
                }
            ],
            "name": "Minted",
            "type": "event"
        },
        {
            "anonymous": false,
            "inputs": [
                {
                    "indexed": false,
                    "internalType": "address",
                    "name": "account",
                    "type": "address"
                }
            ],
            "name": "Paused",
            "type": "event"
        },
        {
            "anonymous": false,
            "inputs": [
                {
                    "indexed": true,
                    "internalType": "bytes32",
                    "name": "role",
                    "type": "bytes32"
                },
                {
                    "indexed": true,
                    "internalType": "bytes32",
                    "name": "previousAdminRole",
                    "type": "bytes32"
                },
                {
                    "indexed": true,
                    "internalType": "bytes32",
                    "name": "newAdminRole",
                    "type": "bytes32"
                }
            ],
            "name": "RoleAdminChanged",
            "type": "event"
        },
        {
            "anonymous": false,
            "inputs": [
                {
                    "indexed": true,
                    "internalType": "bytes32",
                    "name": "role",
                    "type": "bytes32"
                },
                {
                    "indexed": true,
                    "internalType": "address",
                    "name": "account",
                    "type": "address"
                },
                {
                    "indexed": true,
                    "internalType": "address",
                    "name": "sender",
                    "type": "address"
                }
            ],
            "name": "RoleGranted",
            "type": "event"
        },
        {
            "anonymous": false,
            "inputs": [
                {
                    "indexed": true,
                    "internalType": "bytes32",
                    "name": "role",
                    "type": "bytes32"
                },
                {
                    "indexed": true,
                    "internalType": "address",
                    "name": "account",
                    "type": "address"
                },
                {
                    "indexed": true,
                    "internalType": "address",
                    "name": "sender",
                    "type": "address"
                }
            ],
            "name": "RoleRevoked",
            "type": "event"
        },
        {
            "anonymous": false,
            "inputs": [
                {
                    "indexed": true,
                    "internalType": "address",
                    "name": "from",
                    "type": "address"
                },
                {
                    "indexed": true,
                    "internalType": "address",
                    "name": "to",
                    "type": "address"
                },
                {
                    "indexed": false,
                    "internalType": "uint256",
                    "name": "value",
                    "type": "uint256"
                }
            ],
            "name": "Transfer",
            "type": "event"
        },
        {
            "anonymous": false,
            "inputs": [
                {
                    "indexed": false,
                    "internalType": "address",
                    "name": "account",
                    "type": "address"
                }
            ],
            "name": "Unpaused",
            "type": "event"
        },
        {
            "anonymous": false,
            "inputs": [
                {
                    "indexed": true,
                    "internalType": "address",
                    "name": "implementation",
                    "type": "address"
                }
            ],
            "name": "Upgraded",
            "type": "event"
        },
        {
            "inputs": [],
            "name": "DEFAULT_ADMIN_ROLE",
            "outputs": [
                {
                    "internalType": "bytes32",
                    "name": "",
                    "type": "bytes32"
                }
            ],
            "stateMutability": "view",
            "type": "function"
        },
        {
            "inputs": [],
            "name": "DOMAIN_SEPARATOR",
            "outputs": [
                {
                    "internalType": "bytes32",
                    "name": "",
                    "type": "bytes32"
                }
            ],
            "stateMutability": "view",
            "type": "function"
        },
        {
            "inputs": [],
            "name": "MINTER_ROLE",
            "outputs": [
                {
                    "internalType": "bytes32",
                    "name": "",
                    "type": "bytes32"
                }
            ],
            "stateMutability": "view",
            "type": "function"
        },
        {
            "inputs": [],
            "name": "PAUSER_ROLE",
            "outputs": [
                {
                    "internalType": "bytes32",
                    "name": "",
                    "type": "bytes32"
                }
            ],
            "stateMutability": "view",
            "type": "function"
        },
        {
            "inputs": [],
            "name": "UPGRADER_ROLE",
            "outputs": [
                {
                    "internalType": "bytes32",
                    "name": "",
                    "type": "bytes32"
                }
            ],
            "stateMutability": "view",
            "type": "function"
        },
        {
            "inputs": [],
            "name": "UPGRADE_INTERFACE_VERSION",
            "outputs": [
                {
                    "internalType": "string",
                    "name": "",
                    "type": "string"
                }
            ],
            "stateMutability": "view",
            "type": "function"
        },
        {
            "inputs": [
                {
                    "internalType": "address",
                    "name": "owner",
                    "type": "address"
                },
                {
                    "internalType": "address",
                    "name": "spender",
                    "type": "address"
                }
            ],
            "name": "allowance",
            "outputs": [
                {
                    "internalType": "uint256",
                    "name": "",
                    "type": "uint256"
                }
            ],
            "stateMutability": "view",
            "type": "function"
        },
        {
            "inputs": [
                {
                    "internalType": "address",
                    "name": "spender",
                    "type": "address"
                },
                {
                    "internalType": "uint256",
                    "name": "value",
                    "type": "uint256"
                }
            ],
            "name": "approve",
            "outputs": [
                {
                    "internalType": "bool",
                    "name": "",
                    "type": "bool"
                }
            ],
            "stateMutability": "nonpayable",
            "type": "function"
        },
        {
            "inputs": [
                {
                    "internalType": "address",
                    "name": "account",
                    "type": "address"
                }
            ],
            "name": "balanceOf",
            "outputs": [
                {
                    "internalType": "uint256",
                    "name": "",
                    "type": "uint256"
                }
            ],
            "stateMutability": "view",
            "type": "function"
        },
        {
            "inputs": [
                {
                    "internalType": "uint256",
                    "name": "amount",
                    "type": "uint256"
                }
            ],
            "name": "burn",
            "outputs": [],
            "stateMutability": "nonpayable",
            "type": "function"
        },
        {
            "inputs": [],
            "name": "decimals",
            "outputs": [
                {
                    "internalType": "uint8",
                    "name": "",
                    "type": "uint8"
                }
            ],
            "stateMutability": "view",
            "type": "function"
        },
        {
            "inputs": [],
            "name": "eip712Domain",
            "outputs": [
                {
                    "internalType": "bytes1",
                    "name": "fields",
                    "type": "bytes1"
                },
                {
                    "internalType": "string",
                    "name": "name",
                    "type": "string"
                },
                {
                    "internalType": "string",
                    "name": "version",
                    "type": "string"
                },
                {
                    "internalType": "uint256",
                    "name": "chainId",
                    "type": "uint256"
                },
                {
                    "internalType": "address",
                    "name": "verifyingContract",
                    "type": "address"
                },
                {
                    "internalType": "bytes32",
                    "name": "salt",
                    "type": "bytes32"
                },
                {
                    "internalType": "uint256[]",
                    "name": "extensions",
                    "type": "uint256[]"
                }
            ],
            "stateMutability": "view",
            "type": "function"
        },
        {
            "inputs": [
                {
                    "internalType": "bytes32",
                    "name": "role",
                    "type": "bytes32"
                }
            ],
            "name": "getRoleAdmin",
            "outputs": [
                {
                    "internalType": "bytes32",
                    "name": "",
                    "type": "bytes32"
                }
            ],
            "stateMutability": "view",
            "type": "function"
        },
        {
            "inputs": [
                {
                    "internalType": "bytes32",
                    "name": "role",
                    "type": "bytes32"
                },
                {
                    "internalType": "address",
                    "name": "account",
                    "type": "address"
                }
            ],
            "name": "grantRole",
            "outputs": [],
            "stateMutability": "nonpayable",
            "type": "function"
        },
        {
            "inputs": [
                {
                    "internalType": "bytes32",
                    "name": "role",
                    "type": "bytes32"
                },
                {
                    "internalType": "address",
                    "name": "account",
                    "type": "address"
                }
            ],
            "name": "hasRole",
            "outputs": [
                {
                    "internalType": "bool",
                    "name": "",
                    "type": "bool"
                }
            ],
            "stateMutability": "view",
            "type": "function"
        },
        {
            "inputs": [
                {
                    "internalType": "address",
                    "name": "admin",
                    "type": "address"
                }
            ],
            "name": "initialize",
            "outputs": [],
            "stateMutability": "nonpayable",
            "type": "function"
        },
        {
            "inputs": [
                {
                    "internalType": "uint256",
                    "name": "amount",
                    "type": "uint256"
                },
                {
                    "internalType": "address",
                    "name": "mintAddress",
                    "type": "address"
                }
            ],
            "name": "mint",
            "outputs": [],
            "stateMutability": "nonpayable",
            "type": "function"
        },
        {
            "inputs": [],
            "name": "name",
            "outputs": [
                {
                    "internalType": "string",
                    "name": "",
                    "type": "string"
                }
            ],
            "stateMutability": "view",
            "type": "function"
        },
        {
            "inputs": [
                {
                    "internalType": "address",
                    "name": "owner",
                    "type": "address"
                }
            ],
            "name": "nonces",
            "outputs": [
                {
                    "internalType": "uint256",
                    "name": "",
                    "type": "uint256"
                }
            ],
            "stateMutability": "view",
            "type": "function"
        },
        {
            "inputs": [],
            "name": "pause",
            "outputs": [],
            "stateMutability": "nonpayable",
            "type": "function"
        },
        {
            "inputs": [],
            "name": "paused",
            "outputs": [
                {
                    "internalType": "bool",
                    "name": "",
                    "type": "bool"
                }
            ],
            "stateMutability": "view",
            "type": "function"
        },
        {
            "inputs": [
                {
                    "internalType": "address",
                    "name": "owner",
                    "type": "address"
                },
                {
                    "internalType": "address",
                    "name": "spender",
                    "type": "address"
                },
                {
                    "internalType": "uint256",
                    "name": "value",
                    "type": "uint256"
                },
                {
                    "internalType": "uint256",
                    "name": "deadline",
                    "type": "uint256"
                },
                {
                    "internalType": "uint8",
                    "name": "v",
                    "type": "uint8"
                },
                {
                    "internalType": "bytes32",
                    "name": "r",
                    "type": "bytes32"
                },
                {
                    "internalType": "bytes32",
                    "name": "s",
                    "type": "bytes32"
                }
            ],
            "name": "permit",
            "outputs": [],
            "stateMutability": "nonpayable",
            "type": "function"
        },
        {
            "inputs": [],
            "name": "proxiableUUID",
            "outputs": [
                {
                    "internalType": "bytes32",
                    "name": "",
                    "type": "bytes32"
                }
            ],
            "stateMutability": "view",
            "type": "function"
        },
        {
            "inputs": [
                {
                    "internalType": "bytes32",
                    "name": "role",
                    "type": "bytes32"
                },
                {
                    "internalType": "address",
                    "name": "callerConfirmation",
                    "type": "address"
                }
            ],
            "name": "renounceRole",
            "outputs": [],
            "stateMutability": "nonpayable",
            "type": "function"
        },
        {
            "inputs": [
                {
                    "internalType": "bytes32",
                    "name": "role",
                    "type": "bytes32"
                },
                {
                    "internalType": "address",
                    "name": "account",
                    "type": "address"
                }
            ],
            "name": "revokeRole",
            "outputs": [],
            "stateMutability": "nonpayable",
            "type": "function"
        },
        {
            "inputs": [
                {
                    "internalType": "bytes4",
                    "name": "interfaceId",
                    "type": "bytes4"
                }
            ],
            "name": "supportsInterface",
            "outputs": [
                {
                    "internalType": "bool",
                    "name": "",
                    "type": "bool"
                }
            ],
            "stateMutability": "view",
            "type": "function"
        },
        {
            "inputs": [],
            "name": "symbol",
            "outputs": [
                {
                    "internalType": "string",
                    "name": "",
                    "type": "string"
                }
            ],
            "stateMutability": "view",
            "type": "function"
        },
        {
            "inputs": [],
            "name": "totalSupply",
            "outputs": [
                {
                    "internalType": "uint256",
                    "name": "",
                    "type": "uint256"
                }
            ],
            "stateMutability": "view",
            "type": "function"
        },
        {
            "inputs": [
                {
                    "internalType": "address",
                    "name": "to",
                    "type": "address"
                },
                {
                    "internalType": "uint256",
                    "name": "value",
                    "type": "uint256"
                }
            ],
            "name": "transfer",
            "outputs": [
                {
                    "internalType": "bool",
                    "name": "",
                    "type": "bool"
                }
            ],
            "stateMutability": "nonpayable",
            "type": "function"
        },
        {
            "inputs": [
                {
                    "internalType": "address",
                    "name": "from",
                    "type": "address"
                },
                {
                    "internalType": "address",
                    "name": "to",
                    "type": "address"
                },
                {
                    "internalType": "uint256",
                    "name": "value",
                    "type": "uint256"
                }
            ],
            "name": "transferFrom",
            "outputs": [
                {
                    "internalType": "bool",
                    "name": "",
                    "type": "bool"
                }
            ],
            "stateMutability": "nonpayable",
            "type": "function"
        },
        {
            "inputs": [],
            "name": "unpause",
            "outputs": [],
            "stateMutability": "nonpayable",
            "type": "function"
        },
        {
            "inputs": [
                {
                    "internalType": "address",
                    "name": "newImplementation",
                    "type": "address"
                },
                {
                    "internalType": "bytes",
                    "name": "data",
                    "type": "bytes"
                }
            ],
            "name": "upgradeToAndCall",
            "outputs": [],
            "stateMutability": "payable",
            "type": "function"
        }
    ],
    "bytecode": "0x60a080604052346100cc57306080527ff0c57e16840df040f15088dc2f81fe391c3923bec73e23a9662efc9c229c6a009081549060ff8260401c166100bd57506001600160401b036002600160401b031982821601610078575b60405161270a90816100d2823960805181818161121b01526112ee0152f35b6001600160401b031990911681179091556040519081527fc7f505b2f371ae2175ee4913f4499e1f2633a7b5936321eed1cdaeb6115181d290602090a1388080610059565b63f92ee8a960e01b8152600490fd5b600080fdfe608080604052600436101561001357600080fd5b60003560e01c90816301ffc9a7146119c85750806306fdde031461192a578063095ea7b31461190457806318160ddd146118d957806323b872dd146117f4578063248a9ca3146117b85780632f2ff15d1461176c578063313ce567146117505780633644e5151461172d57806336568abe146116e65780633f4ba83a1461161557806342966c68146114f15780634f1ef2861461127357806352d1902d146112085780635c975abb146111d857806370a08231146111915780637ecebe00146111385780638456cb591461107957806384b0196e14610f4257806391d1485414610ee857806394bf804d14610d6d57806395d89b4114610c92578063a217fddf14610c76578063a9059cbb14610c45578063ad3cb1cc14610bfb578063c4d66de814610433578063d505accf146102a8578063d53913931461027f578063d547741f14610231578063dd62ed3e146101e8578063e63ab1e9146101ad5763f72c0d8b1461017f57600080fd5b346101a85760003660031901126101a85760206040516000805160206125958339815191528152f35b600080fd5b346101a85760003660031901126101a85760206040517f65d7a28e3265b37a6474929f336521b332c1681b933f6cb9f3376673440d862a8152f35b346101a85760403660031901126101a857610201611a5b565b61021261020c611a71565b91611ade565b9060018060a01b03166000526020526020604060002054604051908152f35b346101a85760403660031901126101a85761027d600435610250611a71565b9080600052600080516020612635833981519152602052610278600160406000200154611b17565b611e1b565b005b346101a85760003660031901126101a85760206040516000805160206125f58339815191528152f35b346101a85760e03660031901126101a8576102c1611a5b565b6102c9611a71565b60443590606435926084359360ff851685036101a85780421161041b5760018060a01b039081831695866000527f5ab42ced628888259c08ac98db1eb0cf702fc1501344311d8b100cd1bfe4bb006020526040600020908154916001830190556040519260208401927f6e71edae12b1b97f4d1f60370fef10105fa2faae0126114a169c64845d6126c98452896040860152858816606086015288608086015260a085015260c084015260c0835260e08301918383106001600160401b03841117610405576103d4936103cb936040525190206103a461213e565b906040519161190160f01b83526002830152602282015260c43591604260a43592206122a1565b90929192612327565b168481036103e7575061027d93506120e0565b60449085604051916325c0072360e11b835260048301526024820152fd5b634e487b7160e01b600052604160045260246000fd5b6024906040519063313c898160e11b82526004820152fd5b346101a85760203660031901126101a85761044c611a5b565b60008051602061269583398151915254906001600160401b03821680159081610beb575b6001149081610be1575b159081610bd8575b50610bc65760016001600160401b03198316176000805160206126958339815191525560ff8260401c1615610b99575b6104ba6123ac565b91604051916104c883611a87565b600383526242535760e81b60208401526104e06123d3565b6104e86123d3565b83516001600160401b038111610405576105106000805160206124d583398151915254611e9e565b601f8111610b2b575b506020601f8211600114610aa6578192939495600092610a9b575b50508160011b916000199060031b1c1916176000805160206124d5833981519152555b82516001600160401b0381116104055761057f60008051602061253583398151915254611e9e565b601f8111610a29575b506020601f821160011461098a578192939460009261097f575b50508160011b916000199060031b1c191617600080516020612535833981519152555b6105cd6123ac565b916105d66123d3565b604051916105e383611a87565b60018352603160f81b60208401526105f96123d3565b83516001600160401b0381116104055761062160008051602061251583398151915254611e9e565b601f8111610911575b506020601f821160011461088c578192939495600092610881575b50508160011b916000199060031b1c191617600080516020612515833981519152555b82516001600160401b038111610405577fa16a46d94261c7517cc8ff89f61c0ce93598e3c849801011dee649a6a557d103906106a48254611e9e565b601f8111610839575b506020601f82116001146107cb57908061076094939260ff976000926107c0575b50508160011b916000199060031b1c19161790555b60006000805160206125758339815191525560006000805160206126b58339815191525561070f6123d3565b6107176123d3565b600080516020612655833981519152841981541690556107356123d3565b61073d6123d3565b61074681611b4a565b5061075081611bd8565b5061075a81611c76565b50611d0e565b5060401c161561076c57005b60ff60401b196000805160206126958339815191525416600080516020612695833981519152557fc7f505b2f371ae2175ee4913f4499e1f2633a7b5936321eed1cdaeb6115181d2602060405160018152a1005b0151905087806106ce565b601f198216958360005260206000209660005b818110610821575096600192849261076097969560ff9a10610808575b505050811b0190556106e3565b015160001960f88460031b161c191690558780806107fb565b838301518955600190980197602093840193016107de565b826000526020600020601f830160051c81019160208410610877575b601f0160051c01905b81811061086b57506106ad565b6000815560010161085e565b9091508190610855565b015190508580610645565b60008051602061251583398151915260005260206000209060005b601f19841681106108f9575060019394959683601f198116106108e0575b505050811b0160008051602061251583398151915255610668565b015160001960f88460031b161c191690558580806108c5565b9091602060018192858b0151815501930191016108a7565b6000805160206125158339815191526000527f42ad5d3e1f2e6e70edcf6d991b8a3023d3fca8047a131592f9edb9fd9b89d57d601f830160051c810160208410610978575b601f830160051c8201811061096c57505061062a565b60008155600101610956565b5080610956565b0151905084806105a2565b60008051602061253583398151915260009081527f46a2803e59a4de4e7a4c574b1243f25977ac4c77d5a1a4a609b5394cebb4a2aa9190601f198416905b818110610a11575095836001959697106109f8575b505050811b01600080516020612535833981519152556105c5565b015160001960f88460031b161c191690558480806109dd565b9192602060018192868b0151815501940192016109c8565b6000805160206125358339815191526000527f46a2803e59a4de4e7a4c574b1243f25977ac4c77d5a1a4a609b5394cebb4a2aa601f830160051c81019160208410610a91575b601f0160051c01905b818110610a855750610588565b60008155600101610a78565b9091508190610a6f565b015190508580610534565b6000805160206124d583398151915260005260206000209060005b601f1984168110610b13575060019394959683601f19811610610afa575b505050811b016000805160206124d583398151915255610557565b015160001960f88460031b161c19169055858080610adf565b9091602060018192858b015181550193019101610ac1565b6000805160206124d58339815191526000527f2ae08a8e29253f69ac5d979a101956ab8f8d9d7ded63fa7a83b16fc47648eab0601f830160051c810160208410610b92575b601f830160051c82018110610b86575050610519565b60008155600101610b70565b5080610b70565b68ffffffffffffffffff1982166801000000000000000117600080516020612695833981519152556104b2565b60405163f92ee8a960e01b8152600490fd5b90501583610482565b303b15915061047a565b604084901c60ff16159150610470565b346101a85760003660031901126101a857610c41604051610c1b81611a87565b60058152640352e302e360dc1b6020820152604051918291602083526020830190611a1b565b0390f35b346101a85760403660031901126101a857610c6b610c61611a5b565b602435903361202e565b602060405160018152f35b346101a85760003660031901126101a857602060405160008152f35b346101a85760003660031901126101a857604051600090600080516020612535833981519152805490610cc482611e9e565b908184526001928381169081600014610d455750600114610d04575b610c4184610cf081880382611aa2565b604051918291602083526020830190611a1b565b90935060005260209283600020916000925b828410610d325750505081610c4193610cf09282010193610ce0565b8054858501870152928501928101610d16565b610c419650610cf09450602092508593915060ff191682840152151560051b82010193610ce0565b346101a85760403660031901126101a857600435610d89611a71565b3360009081527f549fe2656c81d2947b3b913f0a53b9ea86c71e049f3a1b8aa23c09a8a05cb8d460205260409020546000805160206125f58339815191529060ff1615610eca5750610dd9612459565b610de1612484565b610dec821515612402565b6001600160a01b0316908115610eb157610e04612459565b600080516020612555833981519152805491808301809311610e9b577f30385c845b448a36257a6a1716e6ad2e1bc2cbe333cde1e69fe849ad6511adfe9260209255836000526000805160206124f58339815191528252604060002081815401905583600060008051602061261583398151915284604051858152a3604051908152a2600160008051602061267583398151915255005b634e487b7160e01b600052601160045260246000fd5b60405163ec442f0560e01b815260006004820152602490fd5b6044906040519063e2517d3f60e01b82523360048301526024820152fd5b346101a85760403660031901126101a857610f01611a71565b60043560005260008051602061263583398151915260205260406000209060018060a01b0316600052602052602060ff604060002054166040519015158152f35b346101a85760003660031901126101a857600080516020612575833981519152541580611062575b1561102557610f77611ed8565b610f7f611f8d565b6040516020808201928284106001600160401b03851117610405579181610fd88594610fca979660405260008452604051978897600f60f81b895260e0858a015260e0890190611a1b565b908782036040890152611a1b565b91466060870152306080870152600060a087015285830360c0870152519182815201929160005b82811061100e57505050500390f35b835185528695509381019392810192600101610fff565b60405162461bcd60e51b81526020600482015260156024820152741152540dcc4c8e88155b9a5b9a5d1a585b1a5e9959605a1b6044820152606490fd5b506000805160206126b58339815191525415610f6a565b346101a85760003660031901126101a8573360009081526000805160206125d5833981519152602052604090205460ff16156110fd576110b7612459565b600080516020612655833981519152600160ff198254161790557f62e78cea01bee320cd4e420270b5ea74000d11b0c9f74754ebdbfc544b05a2586020604051338152a1005b60405162461bcd60e51b815260206004820152601360248201527243616c6c65722063616e6e6f7420706175736560681b6044820152606490fd5b346101a85760203660031901126101a8576001600160a01b03611159611a5b565b166000527f5ab42ced628888259c08ac98db1eb0cf702fc1501344311d8b100cd1bfe4bb006020526020604060002054604051908152f35b346101a85760203660031901126101a8576001600160a01b036111b2611a5b565b166000526000805160206124f58339815191526020526020604060002054604051908152f35b346101a85760003660031901126101a857602060ff60008051602061265583398151915254166040519015158152f35b346101a85760003660031901126101a8577f00000000000000000000000000000000000000000000000000000000000000006001600160a01b031630036112615760206040516000805160206125b58339815191528152f35b60405163703e46dd60e11b8152600490fd5b60403660031901126101a857611287611a5b565b60249081356001600160401b0381116101a857366023820112156101a85780600401356112b381611ac3565b926112c16040519485611aa2565b81845260209182850193368783830101116101a85781600092888693018737860101526001600160a01b037f000000000000000000000000000000000000000000000000000000000000000081163081149081156114d5575b5061126157600080516020612595833981519152806000526000805160206126358339815191528452604060002033600052845260ff60406000205416156114b857508116936040516352d1902d60e01b81528381600481895afa60009181611489575b5061139b57604051634c9c8ce360e01b8152600481018790528790fd5b8590876000805160206125b5833981519152918281036114745750843b1561145e575080546001600160a01b03191682179055604051907fbc7cd75a20ee27fd9adebab32041f755214dbc6bffa90cc0225b39da2e5c2d3b600080a28151156114435750600061027d9481925190845af4903d1561143a573d61141d81611ac3565b9061142b6040519283611aa2565b8152600081943d92013e61223e565b6060925061223e565b93505050503461144f57005b63b398979f60e01b8152600490fd5b604051634c9c8ce360e01b815260048101849052fd5b60405190632a87526960e21b82526004820152fd5b9091508481813d83116114b1575b6114a18183611aa2565b810103126101a85751908861137e565b503d611497565b866044916040519163e2517d3f60e01b8352336004840152820152fd5b9050816000805160206125b5833981519152541614158761131a565b346101a85760203660031901126101a85760043561150d612459565b611515612484565b611520811515612402565b33156115fc5761152e612459565b33600052806000805160206124f583398151915280602052604060002054908282106115d3573360005260205203604060002055600080516020612555833981519152818154039055600060405182815260008051602061261583398151915260203392a36040519081527f696de425f79f4a40bc6d2122ca50507f0efbeabbff86a84871b7196ab8ea8df760203392a2600160008051602061267583398151915255005b5060405163391434e360e21b815233600482015260248101919091526044810191909152606490fd5b604051634b637e8f60e11b815260006004820152602490fd5b346101a85760003660031901126101a8573360009081526000805160206125d5833981519152602052604090205460ff16156116a957600080516020612655833981519152805460ff8116156116975760ff191690557f5db9ee0a495bf2e6ff9c91a7834c1ba4fdd244a5e8aa4e537bd38aeae4b073aa6020604051338152a1005b604051638dfc202b60e01b8152600490fd5b60405162461bcd60e51b815260206004820152601560248201527443616c6c65722063616e6e6f7420756e706175736560581b6044820152606490fd5b346101a85760403660031901126101a8576116ff611a71565b336001600160a01b0382160361171b5761027d90600435611e1b565b60405163334bd91960e11b8152600490fd5b346101a85760003660031901126101a857602061174861213e565b604051908152f35b346101a85760003660031901126101a857602060405160128152f35b346101a85760403660031901126101a85761027d60043561178b611a71565b90806000526000805160206126358339815191526020526117b3600160406000200154611b17565b611da6565b346101a85760203660031901126101a8576004356000526000805160206126358339815191526020526020600160406000200154604051908152f35b346101a85760603660031901126101a85761180d611a5b565b611815611a71565b6044359061182283611ade565b33600052602052604060002054926000198403611844575b610c6b935061202e565b8284106118b3576001600160a01b0381161561189a5733156118815782610c6b9461186e83611ade565b336000526020520360406000205561183a565b604051634a1406b160e11b815260006004820152602490fd5b60405163e602df0560e01b815260006004820152602490fd5b604051637dc7a0d960e11b81523360048201526024810185905260448101849052606490fd5b346101a85760003660031901126101a857602060008051602061255583398151915254604051908152f35b346101a85760403660031901126101a857610c6b611920611a5b565b60243590336120e0565b346101a85760003660031901126101a8576040516000906000805160206124d583398151915280549061195c82611e9e565b908184526001928381169081600014610d45575060011461198757610c4184610cf081880382611aa2565b90935060005260209283600020916000925b8284106119b55750505081610c4193610cf09282010193610ce0565b8054858501870152928501928101611999565b346101a85760203660031901126101a8576004359063ffffffff60e01b82168092036101a857602091637965db0b60e01b8114908115611a0a575b5015158152f35b6301ffc9a760e01b14905083611a03565b919082519283825260005b848110611a47575050826000602080949584010152601f8019910116010190565b602081830181015184830182015201611a26565b600435906001600160a01b03821682036101a857565b602435906001600160a01b03821682036101a857565b604081019081106001600160401b0382111761040557604052565b90601f801991011681019081106001600160401b0382111761040557604052565b6001600160401b03811161040557601f01601f191660200190565b6001600160a01b031660009081527f52c63247e1f47db19d5ce0460030c497f067ca4cebf71ba98eeadabe20bace016020526040902090565b8060005260008051602061263583398151915260205260406000203360005260205260ff6040600020541615610eca5750565b6001600160a01b031660008181527fb7db2dd08fcb62d0c9e08c51941cae53c267786a0b75803fb7960902fc8ef97d60205260408120549091906000805160206126358339815191529060ff16611bd3578280526020526040822081835260205260408220600160ff1982541617905533916000805160206124b58339815191528180a4600190565b505090565b6001600160a01b031660008181527f549fe2656c81d2947b3b913f0a53b9ea86c71e049f3a1b8aa23c09a8a05cb8d460205260408120549091906000805160206125f5833981519152906000805160206126358339815191529060ff16611c70578184526020526040832082845260205260408320600160ff198254161790556000805160206124b5833981519152339380a4600190565b50505090565b6001600160a01b031660008181527fab71e3f32666744d246edff3f96e4bdafee2e9867098cdd118a979a7464786a86020526040812054909190600080516020612595833981519152906000805160206126358339815191529060ff16611c70578184526020526040832082845260205260408320600160ff198254161790556000805160206124b5833981519152339380a4600190565b6001600160a01b031660008181526000805160206125d583398151915260205260408120549091907f65d7a28e3265b37a6474929f336521b332c1681b933f6cb9f3376673440d862a906000805160206126358339815191529060ff16611c70578184526020526040832082845260205260408320600160ff198254161790556000805160206124b5833981519152339380a4600190565b9060009180835260008051602061263583398151915280602052604084209260018060a01b03169283855260205260ff60408520541615600014611c70578184526020526040832082845260205260408320600160ff198254161790556000805160206124b5833981519152339380a4600190565b9060009180835260008051602061263583398151915280602052604084209260018060a01b03169283855260205260ff604085205416600014611c7057818452602052604083208284526020526040832060ff1981541690557ff6391f5c32d9c69d2a47ea670b442974b53935d1edc7fd64eb21e047a839171b339380a4600190565b90600182811c92168015611ece575b6020831014611eb857565b634e487b7160e01b600052602260045260246000fd5b91607f1691611ead565b6040519060008260008051602061251583398151915291825492611efb84611e9e565b908184526001948581169081600014611f6a5750600114611f27575b5050611f2592500383611aa2565b565b9093915060005260209081600020936000915b818310611f52575050611f2593508201013880611f17565b85548884018501529485019487945091830191611f3a565b915050611f2594506020925060ff191682840152151560051b8201013880611f17565b604051906000827fa16a46d94261c7517cc8ff89f61c0ce93598e3c849801011dee649a6a557d10391825492611fc284611e9e565b908184526001948581169081600014611f6a5750600114611feb575050611f2592500383611aa2565b9093915060005260209081600020936000915b818310612016575050611f2593508201013880611f17565b85548884018501529485019487945091830191611ffe565b916001600160a01b038084169283156115fc5716928315610eb157612051612459565b6000908382526000805160206124f5833981519152806020526040832054918483106120ad57508284600080516020612615833981519152959360409388602097528652038282205586815220818154019055604051908152a3565b60405163391434e360e21b81526001600160a01b0391909116600482015260248101929092525060448101839052606490fd5b916001600160a01b0380841692831561189a5716928315611881577f8c5be1e5ebec7d5bd14f71427d1e84f3dd0314c0f7b2291e5b200ac8c7c3b92591612128602092611ade565b85600052825280604060002055604051908152a3565b6121466121b3565b61214e61220b565b6040519060208201927f8b73c3c69bb8fe3d512ecc4cf759cc79239f7b179b0ffacaa9a75d522b39400f8452604083015260608201524660808201523060a082015260a0815260c081018181106001600160401b038211176104055760405251902090565b6121bb611ed8565b80519081156121cb576020012090565b50506000805160206125758339815191525480156121e65790565b507fc5d2460186f7233c927e7db2dcc703c0e500b653ca82273b7bfad8045d85a47090565b612213611f8d565b8051908115612223576020012090565b50506000805160206126b58339815191525480156121e65790565b90612265575080511561225357805190602001fd5b604051630a12f52160e11b8152600490fd5b81511580612298575b612276575090565b604051639996b31560e01b81526001600160a01b039091166004820152602490fd5b50803b1561226e565b91906fa2a8918ca85bafe22016d0b997e4df60600160ff1b03841161231b57926020929160ff608095604051948552168484015260408301526060820152600092839182805260015afa1561230f5780516001600160a01b0381161561230657918190565b50809160019190565b604051903d90823e3d90fd5b50505060009160039190565b60048110156123965780612339575050565b600181036123535760405163f645eedf60e01b8152600490fd5b600281036123745760405163fce698f760e01b815260048101839052602490fd5b60031461237e5750565b602490604051906335e2f38360e21b82526004820152fd5b634e487b7160e01b600052602160045260246000fd5b604051906123b982611a87565b600b82526a263cb234b0902a37b5b2b760a91b6020830152565b60ff6000805160206126958339815191525460401c16156123f057565b604051631afcd79f60e31b8152600490fd5b1561240957565b60405162461bcd60e51b815260206004820152602260248201527f416d6f756e742073686f756c642062652067726561746572207468616e207a65604482015261726f60f01b6064820152608490fd5b60ff600080516020612655833981519152541661247257565b60405163d93c066560e01b8152600490fd5b60008051602061267583398151915260028154146124a25760029055565b604051633ee5aeb560e01b8152600490fdfe2f8788117e7eff1d82e926ec794901d17c78024a50270940304540a733656f0d52c63247e1f47db19d5ce0460030c497f067ca4cebf71ba98eeadabe20bace0352c63247e1f47db19d5ce0460030c497f067ca4cebf71ba98eeadabe20bace00a16a46d94261c7517cc8ff89f61c0ce93598e3c849801011dee649a6a557d10252c63247e1f47db19d5ce0460030c497f067ca4cebf71ba98eeadabe20bace0452c63247e1f47db19d5ce0460030c497f067ca4cebf71ba98eeadabe20bace02a16a46d94261c7517cc8ff89f61c0ce93598e3c849801011dee649a6a557d100189ab7a9244df0848122154315af71fe140f3db0fe014031783b0946b8c9d2e3360894a13ba1a3210667c828492db98dca3e2076cc3735a920a3ca505d382bbc75442b0a96088b5456bc4ed01394c96a4feec0f883c9494257d76b96ab1c9b6b9f2df0fed2c77648de5860a4cc508cd0818c85b8b8a1ab4ceeef8d981c8956a6ddf252ad1be2c89b69c2b068fc378daa952ba7f163c4a11628f55a4df523b3ef02dd7bc7dec4dceedda775e58dd541e08a116c6c53815c0bd028192f7b626800cd5ed15c6e187e77e9aee88184c21f4f2182ab5827cb3b7e07fbedcd63f033009b779b17422d0df92223018b32b4d1fa46e071723d6817e2486d003becc55f00f0c57e16840df040f15088dc2f81fe391c3923bec73e23a9662efc9c229c6a00a16a46d94261c7517cc8ff89f61c0ce93598e3c849801011dee649a6a557d101a2646970667358221220fe561958bb6e877ffe9a6809f5bf75054bd0a8f1b64307190bf4da375fde105864736f6c63430008140033",
    "linkReferences": {},
    "deployedLinkReferences": {}
}