{
  "_format": "hh-sol-artifact-1",
  "contractName": "MNFTMarketplace",
  "sourceName": "contracts/MNFTMarketplace.sol",
  "abi": [
    {
      "anonymous": false,
      "inputs": [
        {
          "indexed": true,
          "internalType": "address",
          "name": "admin",
          "type": "address"
        },
        {
          "indexed": false,
          "internalType": "uint256",
          "name": "oldFee",
          "type": "uint256"
        },
        {
          "indexed": false,
          "internalType": "uint256",
          "name": "newFee",
          "type": "uint256"
        }
      ],
      "name": "DepositFeeChanged",
      "type": "event"
    },
    {
      "anonymous": false,
      "inputs": [
        {
          "indexed": true,
          "internalType": "uint256",
          "name": "itemId",
          "type": "uint256"
        },
        {
          "indexed": true,
          "internalType": "address",
          "name": "account",
          "type": "address"
        },
        {
          "indexed": false,
          "internalType": "uint256",
          "name": "amount",
          "type": "uint256"
        }
      ],
      "name": "DepositFeeTransferred",
      "type": "event"
    },
    {
      "anonymous": false,
      "inputs": [
        {
          "indexed": true,
          "internalType": "uint256",
          "name": "itemId",
          "type": "uint256"
        },
        {
          "indexed": true,
          "internalType": "address",
          "name": "account",
          "type": "address"
        },
        {
          "indexed": false,
          "internalType": "uint256",
          "name": "amount",
          "type": "uint256"
        }
      ],
      "name": "ExcessDepositFeeTransferred",
      "type": "event"
    },
    {
      "anonymous": false,
      "inputs": [
        {
          "indexed": true,
          "internalType": "uint256",
          "name": "itemId",
          "type": "uint256"
        },
        {
          "indexed": true,
          "internalType": "uint256",
          "name": "tokenId",
          "type": "uint256"
        },
        {
          "indexed": true,
          "internalType": "address",
          "name": "nftContract",
          "type": "address"
        },
        {
          "indexed": false,
          "internalType": "address",
          "name": "seller",
          "type": "address"
        },
        {
          "indexed": false,
          "internalType": "uint256",
          "name": "numberOfItemsAvailable",
          "type": "uint256"
        },
        {
          "indexed": false,
          "internalType": "uint256",
          "name": "pricePerItem",
          "type": "uint256"
        },
        {
          "indexed": false,
          "internalType": "uint256",
          "name": "depositFee",
          "type": "uint256"
        },
        {
          "indexed": false,
          "internalType": "uint8",
          "name": "paymentOption",
          "type": "uint8"
        }
      ],
      "name": "MarketItemCreated",
      "type": "event"
    },
    {
      "anonymous": false,
      "inputs": [
        {
          "indexed": true,
          "internalType": "uint256",
          "name": "itemId",
          "type": "uint256"
        },
        {
          "indexed": true,
          "internalType": "address",
          "name": "seller",
          "type": "address"
        },
        {
          "indexed": false,
          "internalType": "uint256",
          "name": "numberOfItemsRemoved",
          "type": "uint256"
        },
        {
          "indexed": false,
          "internalType": "uint256",
          "name": "numberOfItemsRemaining",
          "type": "uint256"
        }
      ],
      "name": "MarketItemRemoved",
      "type": "event"
    },
    {
      "anonymous": false,
      "inputs": [
        {
          "indexed": true,
          "internalType": "uint256",
          "name": "itemId",
          "type": "uint256"
        },
        {
          "indexed": true,
          "internalType": "address",
          "name": "seller",
          "type": "address"
        },
        {
          "indexed": false,
          "internalType": "address",
          "name": "owner",
          "type": "address"
        },
        {
          "indexed": false,
          "internalType": "uint256",
          "name": "numberOfItems",
          "type": "uint256"
        },
        {
          "indexed": false,
          "internalType": "uint256",
          "name": "pricePerItem",
          "type": "uint256"
        },
        {
          "indexed": true,
          "internalType": "address",
          "name": "creator",
          "type": "address"
        },
        {
          "indexed": false,
          "internalType": "uint256",
          "name": "royalty",
          "type": "uint256"
        },
        {
          "indexed": false,
          "internalType": "uint256",
          "name": "serviceFee",
          "type": "uint256"
        },
        {
          "indexed": false,
          "internalType": "uint8",
          "name": "paymentOption",
          "type": "uint8"
        }
      ],
      "name": "MarketItemSold",
      "type": "event"
    },
    {
      "anonymous": false,
      "inputs": [
        {
          "indexed": true,
          "internalType": "bytes32",
          "name": "role",
          "type": "bytes32"
        },
        {
          "indexed": true,
          "internalType": "bytes32",
          "name": "previousAdminRole",
          "type": "bytes32"
        },
        {
          "indexed": true,
          "internalType": "bytes32",
          "name": "newAdminRole",
          "type": "bytes32"
        }
      ],
      "name": "RoleAdminChanged",
      "type": "event"
    },
    {
      "anonymous": false,
      "inputs": [
        {
          "indexed": true,
          "internalType": "bytes32",
          "name": "role",
          "type": "bytes32"
        },
        {
          "indexed": true,
          "internalType": "address",
          "name": "account",
          "type": "address"
        },
        {
          "indexed": true,
          "internalType": "address",
          "name": "sender",
          "type": "address"
        }
      ],
      "name": "RoleGranted",
      "type": "event"
    },
    {
      "anonymous": false,
      "inputs": [
        {
          "indexed": true,
          "internalType": "bytes32",
          "name": "role",
          "type": "bytes32"
        },
        {
          "indexed": true,
          "internalType": "address",
          "name": "account",
          "type": "address"
        },
        {
          "indexed": true,
          "internalType": "address",
          "name": "sender",
          "type": "address"
        }
      ],
      "name": "RoleRevoked",
      "type": "event"
    },
    {
      "anonymous": false,
      "inputs": [
        {
          "indexed": true,
          "internalType": "address",
          "name": "admin",
          "type": "address"
        },
        {
          "indexed": false,
          "internalType": "uint256",
          "name": "oldFee",
          "type": "uint256"
        },
        {
          "indexed": false,
          "internalType": "uint256",
          "name": "newFee",
          "type": "uint256"
        }
      ],
      "name": "ServiceFeeChanged",
      "type": "event"
    },
    {
      "anonymous": false,
      "inputs": [
        {
          "indexed": true,
          "internalType": "address",
          "name": "admin",
          "type": "address"
        },
        {
          "indexed": true,
          "internalType": "address",
          "name": "account",
          "type": "address"
        },
        {
          "indexed": false,
          "internalType": "uint256",
          "name": "amount",
          "type": "uint256"
        },
        {
          "indexed": false,
          "internalType": "uint8",
          "name": "paymentOption",
          "type": "uint8"
        }
      ],
      "name": "ServiceFeeClaimed",
      "type": "event"
    },
    {
      "anonymous": false,
      "inputs": [
        {
          "indexed": true,
          "internalType": "uint256",
          "name": "itemId",
          "type": "uint256"
        },
        {
          "indexed": true,
          "internalType": "address",
          "name": "from",
          "type": "address"
        },
        {
          "indexed": true,
          "internalType": "address",
          "name": "to",
          "type": "address"
        },
        {
          "indexed": false,
          "internalType": "uint256",
          "name": "amount",
          "type": "uint256"
        }
      ],
      "name": "TransferredPaymentToTheSeller",
      "type": "event"
    },
    {
      "anonymous": false,
      "inputs": [
        {
          "indexed": true,
          "internalType": "uint256",
          "name": "itemId",
          "type": "uint256"
        },
        {
          "indexed": true,
          "internalType": "address",
          "name": "account",
          "type": "address"
        },
        {
          "indexed": false,
          "internalType": "uint256",
          "name": "amount",
          "type": "uint256"
        }
      ],
      "name": "TransferredRoyaltyToTheCreator",
      "type": "event"
    },
    {
      "anonymous": false,
      "inputs": [
        {
          "indexed": true,
          "internalType": "address",
          "name": "admin",
          "type": "address"
        },
        {
          "indexed": false,
          "internalType": "address[]",
          "name": "nftContracts",
          "type": "address[]"
        }
      ],
      "name": "WhitelistedNFTContracts",
      "type": "event"
    },
    {
      "inputs": [],
      "name": "ADMIN_ROLE",
      "outputs": [
        {
          "internalType": "bytes32",
          "name": "",
          "type": "bytes32"
        }
      ],
      "stateMutability": "view",
      "type": "function"
    },
    {
      "inputs": [],
      "name": "DEFAULT_ADMIN_ROLE",
      "outputs": [
        {
          "internalType": "bytes32",
          "name": "",
          "type": "bytes32"
        }
      ],
      "stateMutability": "view",
      "type": "function"
    },
    {
      "inputs": [
        {
          "internalType": "uint256",
          "name": "_itemId",
          "type": "uint256"
        }
      ],
      "name": "blackListMarketItems",
      "outputs": [],
      "stateMutability": "nonpayable",
      "type": "function"
    },
    {
      "inputs": [
        {
          "internalType": "uint256",
          "name": "_itemId",
          "type": "uint256"
        },
        {
          "internalType": "uint256",
          "name": "_numberOfItems",
          "type": "uint256"
        }
      ],
      "name": "buyMarketItem",
      "outputs": [],
      "stateMutability": "payable",
      "type": "function"
    },
    {
      "inputs": [
        {
          "internalType": "uint256",
          "name": "_newFee",
          "type": "uint256"
        }
      ],
      "name": "changeDepositFee",
      "outputs": [],
      "stateMutability": "nonpayable",
      "type": "function"
    },
    {
      "inputs": [
        {
          "internalType": "uint256",
          "name": "_newFee",
          "type": "uint256"
        }
      ],
      "name": "changeServiceFee",
      "outputs": [],
      "stateMutability": "nonpayable",
      "type": "function"
    },
    {
      "inputs": [
        {
          "internalType": "uint256",
          "name": "_tokenId",
          "type": "uint256"
        },
        {
          "internalType": "address",
          "name": "_nftContract",
          "type": "address"
        },
        {
          "internalType": "uint256",
          "name": "_numberOfItems",
          "type": "uint256"
        },
        {
          "internalType": "uint256",
          "name": "_pricePerItem",
          "type": "uint256"
        },
        {
          "internalType": "uint8",
          "name": "_paymentOption",
          "type": "uint8"
        }
      ],
      "name": "createMarketItem",
      "outputs": [],
      "stateMutability": "payable",
      "type": "function"
    },
    {
      "inputs": [],
      "name": "getCurrentItemId",
      "outputs": [
        {
          "internalType": "uint256",
          "name": "",
          "type": "uint256"
        }
      ],
      "stateMutability": "view",
      "type": "function"
    },
    {
      "inputs": [],
      "name": "getDepositFee",
      "outputs": [
        {
          "internalType": "uint256",
          "name": "",
          "type": "uint256"
        }
      ],
      "stateMutability": "view",
      "type": "function"
    },
    {
      "inputs": [
        {
          "internalType": "bytes32",
          "name": "role",
          "type": "bytes32"
        }
      ],
      "name": "getRoleAdmin",
      "outputs": [
        {
          "internalType": "bytes32",
          "name": "",
          "type": "bytes32"
        }
      ],
      "stateMutability": "view",
      "type": "function"
    },
    {
      "inputs": [],
      "name": "getServiceFee",
      "outputs": [
        {
          "internalType": "uint256",
          "name": "",
          "type": "uint256"
        }
      ],
      "stateMutability": "view",
      "type": "function"
    },
    {
      "inputs": [],
      "name": "getWhitelistedContracts",
      "outputs": [
        {
          "internalType": "address[]",
          "name": "",
          "type": "address[]"
        }
      ],
      "stateMutability": "view",
      "type": "function"
    },
    {
      "inputs": [
        {
          "internalType": "bytes32",
          "name": "role",
          "type": "bytes32"
        },
        {
          "internalType": "address",
          "name": "account",
          "type": "address"
        }
      ],
      "name": "grantRole",
      "outputs": [],
      "stateMutability": "nonpayable",
      "type": "function"
    },
    {
      "inputs": [
        {
          "internalType": "bytes32",
          "name": "role",
          "type": "bytes32"
        },
        {
          "internalType": "address",
          "name": "account",
          "type": "address"
        }
      ],
      "name": "hasRole",
      "outputs": [
        {
          "internalType": "bool",
          "name": "",
          "type": "bool"
        }
      ],
      "stateMutability": "view",
      "type": "function"
    },
    {
      "inputs": [
        {
          "internalType": "address",
          "name": "token",
          "type": "address"
        }
      ],
      "name": "initialize",
      "outputs": [],
      "stateMutability": "nonpayable",
      "type": "function"
    },
    {
      "inputs": [
        {
          "internalType": "uint256",
          "name": "",
          "type": "uint256"
        }
      ],
      "name": "marketItems",
      "outputs": [
        {
          "internalType": "address",
          "name": "nftContract",
          "type": "address"
        },
        {
          "internalType": "address",
          "name": "seller",
          "type": "address"
        },
        {
          "internalType": "uint256",
          "name": "tokenId",
          "type": "uint256"
        },
        {
          "internalType": "uint256",
          "name": "itemsAvailable",
          "type": "uint256"
        },
        {
          "internalType": "uint256",
          "name": "pricePerItem",
          "type": "uint256"
        },
        {
          "internalType": "uint256",
          "name": "itemsSold",
          "type": "uint256"
        },
        {
          "internalType": "uint256",
          "name": "depositFee",
          "type": "uint256"
        },
        {
          "internalType": "uint8",
          "name": "paymentOption",
          "type": "uint8"
        },
        {
          "internalType": "uint8",
          "name": "nftType",
          "type": "uint8"
        }
      ],
      "stateMutability": "view",
      "type": "function"
    },
    {
      "inputs": [
        {
          "internalType": "address",
          "name": "",
          "type": "address"
        },
        {
          "internalType": "address",
          "name": "",
          "type": "address"
        },
        {
          "internalType": "uint256[]",
          "name": "",
          "type": "uint256[]"
        },
        {
          "internalType": "uint256[]",
          "name": "",
          "type": "uint256[]"
        },
        {
          "internalType": "bytes",
          "name": "",
          "type": "bytes"
        }
      ],
      "name": "onERC1155BatchReceived",
      "outputs": [
        {
          "internalType": "bytes4",
          "name": "",
          "type": "bytes4"
        }
      ],
      "stateMutability": "nonpayable",
      "type": "function"
    },
    {
      "inputs": [
        {
          "internalType": "address",
          "name": "",
          "type": "address"
        },
        {
          "internalType": "address",
          "name": "",
          "type": "address"
        },
        {
          "internalType": "uint256",
          "name": "",
          "type": "uint256"
        },
        {
          "internalType": "uint256",
          "name": "",
          "type": "uint256"
        },
        {
          "internalType": "bytes",
          "name": "",
          "type": "bytes"
        }
      ],
      "name": "onERC1155Received",
      "outputs": [
        {
          "internalType": "bytes4",
          "name": "",
          "type": "bytes4"
        }
      ],
      "stateMutability": "nonpayable",
      "type": "function"
    },
    {
      "inputs": [
        {
          "internalType": "address",
          "name": "",
          "type": "address"
        },
        {
          "internalType": "address",
          "name": "",
          "type": "address"
        },
        {
          "internalType": "uint256",
          "name": "",
          "type": "uint256"
        },
        {
          "internalType": "bytes",
          "name": "",
          "type": "bytes"
        }
      ],
      "name": "onERC721Received",
      "outputs": [
        {
          "internalType": "bytes4",
          "name": "",
          "type": "bytes4"
        }
      ],
      "stateMutability": "nonpayable",
      "type": "function"
    },
    {
      "inputs": [
        {
          "internalType": "uint256",
          "name": "_itemId",
          "type": "uint256"
        },
        {
          "internalType": "uint256",
          "name": "_amount",
          "type": "uint256"
        }
      ],
      "name": "removeMarketItems",
      "outputs": [],
      "stateMutability": "nonpayable",
      "type": "function"
    },
    {
      "inputs": [
        {
          "internalType": "bytes32",
          "name": "role",
          "type": "bytes32"
        },
        {
          "internalType": "address",
          "name": "account",
          "type": "address"
        }
      ],
      "name": "renounceRole",
      "outputs": [],
      "stateMutability": "nonpayable",
      "type": "function"
    },
    {
      "inputs": [
        {
          "internalType": "bytes32",
          "name": "role",
          "type": "bytes32"
        },
        {
          "internalType": "address",
          "name": "account",
          "type": "address"
        }
      ],
      "name": "revokeRole",
      "outputs": [],
      "stateMutability": "nonpayable",
      "type": "function"
    },
    {
      "inputs": [
        {
          "internalType": "bytes4",
          "name": "interfaceId",
          "type": "bytes4"
        }
      ],
      "name": "supportsInterface",
      "outputs": [
        {
          "internalType": "bool",
          "name": "",
          "type": "bool"
        }
      ],
      "stateMutability": "view",
      "type": "function"
    },
    {
      "inputs": [],
      "name": "tokenContract",
      "outputs": [
        {
          "internalType": "contract IERC20Upgradeable",
          "name": "",
          "type": "address"
        }
      ],
      "stateMutability": "view",
      "type": "function"
    },
    {
      "inputs": [
        {
          "internalType": "address[]",
          "name": "_nftContracts",
          "type": "address[]"
        }
      ],
      "name": "whitelistNFTContracts",
      "outputs": [],
      "stateMutability": "nonpayable",
      "type": "function"
    },
    {
      "inputs": [
        {
          "internalType": "address",
          "name": "_account",
          "type": "address"
        },
        {
          "internalType": "uint256",
          "name": "_amount",
          "type": "uint256"
        },
        {
          "internalType": "uint8",
          "name": "_paymentOption",
          "type": "uint8"
        }
      ],
      "name": "withdrawServiceFees",
      "outputs": [],
      "stateMutability": "nonpayable",
      "type": "function"
    }
  ],
  "bytecode": "0x608060405234801561001057600080fd5b5061363c806100206000396000f3fe6080604052600436106101815760003560e01c80637e47daa1116100d1578063c4d66de81161008a578063d547741f11610064578063d547741f1461053b578063d89fb5001461055b578063e88d95671461056e578063f23a6e611461058e57600080fd5b8063c4d66de8146104db578063d1800eb7146104fb578063d3e256bf1461051b57600080fd5b80637e47daa11461042557806391d1485414610447578063a217fddf14610467578063b173b45c1461047c578063bc197c811461049c578063c1617fd0146104c857600080fd5b806336568abe1161013e57806355a373d61161011857806355a373d61461039557806368eb4949146103ce57806375b238fc146103e35780637d8c74e11461040557600080fd5b806336568abe146102885780634094c729146102a857806351f28e14146102c857600080fd5b806301ffc9a7146101865780630de705b5146101bb57806311a1933c146101db578063150b7a02146101f1578063248a9ca3146102355780632f2ff15d14610266575b600080fd5b34801561019257600080fd5b506101a66101a1366004613172565b6105ba565b60405190151581526020015b60405180910390f35b3480156101c757600080fd5b50610160545b6040519081526020016101b2565b3480156101e757600080fd5b50610161546101cd565b3480156101fd57600080fd5b5061021c61020c366004612f34565b630a85bd0160e11b949350505050565b6040516001600160e01b031990911681526020016101b2565b34801561024157600080fd5b506101cd61025036600461312b565b600090815261012d602052604090206001015490565b34801561027257600080fd5b50610286610281366004613143565b6105cb565b005b34801561029457600080fd5b506102866102a3366004613143565b6105f7565b3480156102b457600080fd5b506102866102c336600461306f565b61067a565b3480156102d457600080fd5b506103406102e336600461312b565b61016560205260009081526040902080546001820154600283015460038401546004850154600586015460068701546007909701546001600160a01b03968716979590961695939492939192909160ff8082169161010090041689565b604080516001600160a01b039a8b1681529990981660208a0152968801959095526060870193909352608086019190915260a085015260c084015260ff90811660e084015216610100820152610120016101b2565b3480156103a157600080fd5b5061015f546103b6906001600160a01b031681565b6040516001600160a01b0390911681526020016101b2565b3480156103da57600080fd5b506101cd6108ab565b3480156103ef57600080fd5b506101cd6000805160206135e783398151915281565b34801561041157600080fd5b50610286610420366004613203565b6108bc565b34801561043157600080fd5b5061043a610ce3565b6040516101b29190613311565b34801561045357600080fd5b506101a6610462366004613143565b610d46565b34801561047357600080fd5b506101cd600081565b34801561048857600080fd5b5061028661049736600461312b565b610d72565b3480156104a857600080fd5b5061021c6104b7366004612e8a565b63bc197c8160e01b95945050505050565b6102866104d6366004613203565b61102c565b3480156104e757600080fd5b506102866104f6366004612e6e565b611743565b34801561050757600080fd5b50610286610516366004613032565b6118d6565b34801561052757600080fd5b5061028661053636600461312b565b611b22565b34801561054757600080fd5b50610286610556366004613143565b611c1a565b6102866105693660046131b2565b611c41565b34801561057a57600080fd5b5061028661058936600461312b565b61227b565b34801561059a57600080fd5b5061021c6105a9366004612f9e565b63f23a6e6160e01b95945050505050565b60006105c582612335565b92915050565b600082815261012d60205260409020600101546105e8813361235a565b6105f283836123be565b505050565b6001600160a01b038116331461066c5760405162461bcd60e51b815260206004820152602f60248201527f416363657373436f6e74726f6c3a2063616e206f6e6c792072656e6f756e636560448201526e103937b632b9903337b91039b2b63360891b60648201526084015b60405180910390fd5b6106768282612445565b5050565b6000805160206135e7833981519152610693813361235a565b8151806106e25760405162461bcd60e51b815260206004820181905260248201527f4d76636d703a2061727261792073697a652063616e6e6f74206265207a65726f6044820152606401610663565b60005b818110156108645760006001600160a01b031684828151811061071857634e487b7160e01b600052603260045260246000fd5b60200260200101516001600160a01b031614156107775760405162461bcd60e51b815260206004820152601d60248201527f4d76636d703a20616464726573732063616e6e6f74206265207a65726f0000006044820152606401610663565b6107a784828151811061079a57634e487b7160e01b600052603260045260246000fd5b60200260200101516124ad565b156107f45760405162461bcd60e51b815260206004820152601d60248201527f4d76636d703a206164647265737320616c7265616479206578697374730000006044820152606401610663565b61016384828151811061081757634e487b7160e01b600052603260045260246000fd5b60209081029190910181015182546001810184556000938452919092200180546001600160a01b0319166001600160a01b039092169190911790558061085c81613587565b9150506106e5565b50336001600160a01b03167fc301ed3dc00910149cd9ce35439b4f115fcf3d2b8255aded1cc99710a86da2e38460405161089e9190613311565b60405180910390a2505050565b60006108b76101645490565b905090565b600260fb5414156108df5760405162461bcd60e51b81526004016106639061344a565b600260fb5533806109025760405162461bcd60e51b8152600401610663906133c8565b60008381526101656020526040902060018101546001600160a01b031633811461096e5760405162461bcd60e51b815260206004820152601a60248201527f4d76636d703a20756e617574686f72697a6564206163636573730000000000006044820152606401610663565b600084116109be5760405162461bcd60e51b815260206004820152601b60248201527f4d76636d703a20726571756573746564207a65726f206974656d7300000000006044820152606401610663565b600382015480610a105760405162461bcd60e51b815260206004820152601f60248201527f4d76636d703a2063616e6e6f742072656d6f766520736f6c64206974656d73006044820152606401610663565b84811015610a605760405162461bcd60e51b815260206004820181905260248201527f4d76636d703a7265717565737420616d6f756e7420756e617661696c61626c656044820152606401610663565b6000610a6c868361352d565b600785015490915060ff6101009091041660011415610af45783546002850154604051637921219560e11b81526001600160a01b039092169163f242432a91610abd91309188918c906004016132d9565b600060405180830381600087803b158015610ad757600080fd5b505af1158015610aeb573d6000803e3d6000fd5b50505050610b5d565b83546002850154604051632142170760e11b81526001600160a01b03909216916342842e0e91610b2a91309188916004016132b5565b600060405180830381600087803b158015610b4457600080fd5b505af1158015610b58573d6000803e3d6000fd5b505050505b80610c9057600084600601549050806101626000828254610b7e919061352d565b90915550506040518181526001600160a01b0385169089907fa1351299aa285c6dc6482ee4fbe7c81099877409da4697969ebbc20b09845c8c9060200160405180910390a36000888152610165602052604080822080546001600160a01b0319908116825560018201805490911690556002810183905560038101839055600481018390556005810183905560068101839055600701805461ffff19169055516001600160a01b0386169083908381818185875af1925050503d8060008114610c63576040519150601f19603f3d011682016040523d82523d6000602084013e610c68565b606091505b5050905080610c895760405162461bcd60e51b815260040161066390613391565b5050610c98565b600384018190555b6040805187815260208101839052339189917f2279b881160af8732a3492df9a09f24c52192c49a26ac9266747bb72a1d67009910160405180910390a35050600160fb555050505050565b6060610163805480602002602001604051908101604052809291908181526020018280548015610d3c57602002820191906000526020600020905b81546001600160a01b03168152600190910190602001808311610d1e575b5050505050905090565b600091825261012d602090815260408084206001600160a01b0393909316845291905290205460ff1690565b6000805160206135e7833981519152610d8b813361235a565b600082815261016560205260409020600781015460ff6101009091041660011415610e2557805460028201546003830154604051637921219560e11b81526001600160a01b039093169263f242432a92610dee92309260009291906004016132d9565b600060405180830381600087803b158015610e0857600080fd5b505af1158015610e1c573d6000803e3d6000fd5b50505050610e8f565b80546002820154604051632142170760e11b81526001600160a01b03909216916342842e0e91610e5c9130916000916004016132b5565b600060405180830381600087803b158015610e7657600080fd5b505af1158015610e8a573d6000803e3d6000fd5b505050505b600081600601549050806101626000828254610eab919061352d565b9091555050604051818152339085907fa1351299aa285c6dc6482ee4fbe7c81099877409da4697969ebbc20b09845c8c9060200160405180910390a36001820154600383015460408051918252600060208301526001600160a01b039092169186917f2279b881160af8732a3492df9a09f24c52192c49a26ac9266747bb72a1d67009910160405180910390a36000848152610165602052604080822080546001600160a01b0319908116825560018201805490911690556002810183905560038101839055600481018390556005810183905560068101839055600701805461ffff1916905551339083908381818185875af1925050503d8060008114610fcf576040519150601f19603f3d011682016040523d82523d6000602084013e610fd4565b606091505b50509050806110255760405162461bcd60e51b815260206004820152601b60248201527f4d76636d703a2073656e6420746f2061646d696e206661696c656400000000006044820152606401610663565b5050505050565b600260fb54141561104f5760405162461bcd60e51b81526004016106639061344a565b600260fb5533806110725760405162461bcd60e51b8152600401610663906133c8565b60008381526101656020526040902060038101548311156110d55760405162461bcd60e51b815260206004820152601d60248201527f4d76636d703a206e6f7420656e6f756768206e66747320746f206275790000006044820152606401610663565b60008382600401546110e7919061350e565b600783015490915060ff1661114b57803410156111465760405162461bcd60e51b815260206004820181905260248201527f4d76636d703a206e6f7420656e6f756768206d767420666f7220627579696e676044820152606401610663565b611225565b61015f5481906001600160a01b03166370a08231336040516001600160e01b031960e084901b1681526001600160a01b03909116600482015260240160206040518083038186803b15801561119f57600080fd5b505afa1580156111b3573d6000803e3d6000fd5b505050506040513d601f19601f820116820180604052508101906111d7919061319a565b10156112255760405162461bcd60e51b815260206004820181905260248201527f4d76636d703a6e6f7420656e6f756768207573647420666f7220627579696e676044820152606401610663565b6001820154600283015483546001600160a01b0392831692600092839261124e92879116612521565b91509150600061125d856125b9565b905060008161126c848861352d565b611276919061352d565b90508887600301600082825461128c919061352d565b92505081905550888760050160008282546112a791906134d6565b90915550506004870154600788015460408051338152602081018d905290810192909252606082018590526080820184905260ff1660a08201526001600160a01b0385811691908716908c907f988ca63fb61fe498f117a8a732b3dc0a4e5c270e4f4f20185827162a19ccdbbe9060c00160405180910390a46001600160a01b038516336001600160a01b03168b7f367de19cc7ae8005799d9615f0866d69ec71d71b4cf6f09fa443f01fb957f9238460405161136691815260200190565b60405180910390a4836001600160a01b03168a7f6dc4525f9d31bc5fb0ed96d2b0ad26f459f90b032fa4a39cc5da8bbba54afe2f856040516113aa91815260200190565b60405180910390a3600787015460ff166114f9576000856001600160a01b03168260405160006040518083038185875af1925050503d806000811461140b576040519150601f19603f3d011682016040523d82523d6000602084013e611410565b606091505b50509050806114315760405162461bcd60e51b815260040161066390613391565b6001600160a01b038516158015906114495750600084115b156114f3576000856001600160a01b03168560405160006040518083038185875af1925050503d806000811461149b576040519150601f19603f3d011682016040523d82523d6000602084013e6114a0565b606091505b50509050806114f15760405162461bcd60e51b815260206004820152601d60248201527f4d76636d703a2073656e6420746f2063726561746f72206661696c65640000006044820152606401610663565b505b50611561565b6115123361015f546001600160a01b03169087846125d7565b6001600160a01b0384161580159061152a5750600083115b15611548576115483361015f546001600160a01b03169086866125d7565b6115613361015f546001600160a01b03169030856125d7565b600387015461164457846001600160a01b03168a7fa1351299aa285c6dc6482ee4fbe7c81099877409da4697969ebbc20b09845c8c89600601546040516115aa91815260200190565b60405180910390a3866006015461016260008282546115c9919061352d565b909155505060068701546040516000916001600160a01b038816918381818185875af1925050503d806000811461161c576040519150601f19603f3d011682016040523d82523d6000602084013e611621565b606091505b50509050806116425760405162461bcd60e51b815260040161066390613391565b505b600787015460ff61010090910416600114156116c95786546002880154604051637921219560e11b81526001600160a01b039092169163f242432a9161169291309133918f906004016132d9565b600060405180830381600087803b1580156116ac57600080fd5b505af11580156116c0573d6000803e3d6000fd5b50505050611732565b86546002880154604051632142170760e11b81526001600160a01b03909216916342842e0e916116ff91309133916004016132b5565b600060405180830381600087803b15801561171957600080fd5b505af115801561172d573d6000803e3d6000fd5b505050505b5050600160fb555050505050505050565b806001600160a01b03811661176a5760405162461bcd60e51b8152600401610663906133c8565b600054610100900460ff166117855760005460ff1615611789565b303b155b6117ec5760405162461bcd60e51b815260206004820152602e60248201527f496e697469616c697a61626c653a20636f6e747261637420697320616c72656160448201526d191e481a5b9a5d1a585b1a5e995960921b6064820152608401610663565b600054610100900460ff1615801561180e576000805461ffff19166101011790555b611816612635565b61181e612676565b61182661269d565b61182e612635565b6118466000805160206135e7833981519152336126cc565b6118726000805160206135e783398151915273280aac0ef356abcb522ecd67bf193deaa2c11a616126cc565b61188a6000805160206135e7833981519152806126d6565b61015f80546001600160a01b0319166001600160a01b03851617905568056bc75e2d631000006101605560fa6101615560006101625580156105f2576000805461ff0019169055505050565b6000805160206135e78339815191526118ef813361235a565b600260fb5414156119125760405162461bcd60e51b81526004016106639061344a565b600260fb55600060ff8316611936576101625461192f904761352d565b90506119b5565b61015f546040516370a0823160e01b81523060048201526001600160a01b03909116906370a082319060240160206040518083038186803b15801561197a57600080fd5b505afa15801561198e573d6000803e3d6000fd5b505050506040513d601f19601f820116820180604052508101906119b2919061319a565b90505b83811015611a055760405162461bcd60e51b815260206004820152601f60248201527f4d76636d703a20696e73756666696369656e74207365727669636520666565006044820152606401610663565b6040805185815260ff851660208201526001600160a01b0387169133917f8390c29f0081e1876b8afb0632c9fdba49cbd33d1f3ed90efbab14a4b4b08564910160405180910390a360ff8316611afe576000856001600160a01b03168560405160006040518083038185875af1925050503d8060008114611aa2576040519150601f19603f3d011682016040523d82523d6000602084013e611aa7565b606091505b5050905080611af85760405162461bcd60e51b815260206004820152601e60248201527f4d76636d703a2073656e64207365727669636520666565206661696c656400006044820152606401610663565b50611b16565b61015f54611b16906001600160a01b03168686612722565b5050600160fb55505050565b6000805160206135e7833981519152611b3b813361235a565b6103e8821115611b8d5760405162461bcd60e51b815260206004820152601860248201527f4d76636d703a20707269636520657863656564732031302500000000000000006044820152606401610663565b81610161541415611bd95760405162461bcd60e51b8152602060048201526016602482015275135d98db5c0e881cd85b5948185cc818dd5c9c995b9d60521b6044820152606401610663565b610161805490839055604080518281526020810185905233917fea943276b7af14e01ef5207cd2cee75f7c7b742afe03d223779a096273019655910161089e565b600082815261012d6020526040902060010154611c37813361235a565b6105f28383612445565b600260fb541415611c645760405162461bcd60e51b81526004016106639061344a565b600260fb553380611c875760405162461bcd60e51b8152600401610663906133c8565b611c9661016480546001019055565b6000611ca26101645490565b90506000611caf87612752565b9050611cba876124ad565b1515600114611d0b5760405162461bcd60e51b815260206004820152601f60248201527f4d76636d703a20636f6e7472616374206e6f742077686974656c6973746564006044820152606401610663565b60008611611d5b5760405162461bcd60e51b815260206004820152601b60248201527f4d76636d703a207a65726f206e756d626572206f66206974656d7300000000006044820152606401610663565b61016054341015611dae5760405162461bcd60e51b815260206004820152601a60248201527f4d76636d703a206465706f73697420666565206973206c6573730000000000006044820152606401610663565b60008511611dfe5760405162461bcd60e51b815260206004820152601b60248201527f4d76636d703a2070726963652063616e6e6f74206265207a65726f00000000006044820152606401610663565b8060ff1660011415611eeb57856001600160a01b03881662fdd58e336040516001600160e01b031960e084901b1681526001600160a01b039091166004820152602481018c905260440160206040518083038186803b158015611e6057600080fd5b505afa158015611e74573d6000803e3d6000fd5b505050506040513d601f19601f82011682018060405250810190611e98919061319a565b1015611ee65760405162461bcd60e51b815260206004820152601d60248201527f4d76636d703a206e6f7420656e6f756768206e66742062616c616e63650000006044820152606401610663565b611ef0565b600195505b60ff84161580611f0357508360ff166001145b611f4f5760405162461bcd60e51b815260206004820152601d60248201527f4d76636d703a20696e76616c6964207061796d656e74206f7074696f6e0000006044820152606401610663565b604051806101200160405280886001600160a01b03168152602001611f713390565b6001600160a01b03908116825260208083018c905260408084018b905260608085018b905260006080808701829052610160805460a0808a019190915260ff808f1660c0808c01919091528c821660e09b8c01528d865261016589528786208c518154908c166001600160a01b0319918216178255998d015160018201805491909c169a1699909917909955958a01516002880155938901516003870155908801516004860155918701516005850155938601516006840155938501516007909201805461010096870151831690960261ffff199096169290911691909117939093179092555461016280549192909161206c9084906134d6565b90915550506001600160a01b03871688837f09bbfe20a57f355e738afaf49901fbb8faafa23683a91ddaef1a732522d962d53361016054604080516001600160a01b039093168352602083018d905282018b9052606082015260ff8916608082015260a00160405180910390a48060ff166001141561214e57604051637921219560e11b81526001600160a01b0388169063f242432a9061211790339030908d908c906004016132d9565b600060405180830381600087803b15801561213157600080fd5b505af1158015612145573d6000803e3d6000fd5b505050506121b1565b604051632142170760e11b81526001600160a01b038816906342842e0e9061217e90339030908d906004016132b5565b600060405180830381600087803b15801561219857600080fd5b505af11580156121ac573d6000803e3d6000fd5b505050505b600061016054346121c2919061352d565b9050801561226b57604051818152339084907f623b39469f1ce38781ef2515d3a35e6a2fb4fdd958e7a3557170eca2b30677c59060200160405180910390a3604051600090339083908381818185875af1925050503d8060008114612243576040519150601f19603f3d011682016040523d82523d6000602084013e612248565b606091505b50509050806122695760405162461bcd60e51b815260040161066390613391565b505b5050600160fb5550505050505050565b6000805160206135e7833981519152612294813361235a565b816101605414156122e05760405162461bcd60e51b8152602060048201526016602482015275135d98db5c0e881cd85b5948185cc818dd5c9c995b9d60521b6044820152606401610663565b610160546122f683670de0b6b3a764000061350e565b61016081905560408051838152602081019290925233917f9b68e2ed5b1faf1750bebb69bfa00f8624ff80bb467275a9c1c7d5bf3ca133d1910161089e565b60006001600160e01b03198216637965db0b60e01b14806105c557506105c5826128c1565b6123648282610d46565b6106765761237c816001600160a01b031660146128f6565b6123878360206128f6565b604051602001612398929190613240565b60408051601f198184030181529082905262461bcd60e51b82526106639160040161335e565b6123c88282610d46565b61067657600082815261012d602090815260408083206001600160a01b03851684529091529020805460ff191660011790556124013390565b6001600160a01b0316816001600160a01b0316837f2f8788117e7eff1d82e926ec794901d17c78024a50270940304540a733656f0d60405160405180910390a45050565b61244f8282610d46565b1561067657600082815261012d602090815260408083206001600160a01b0385168085529252808320805460ff1916905551339285917ff6391f5c32d9c69d2a47ea670b442974b53935d1edc7fd64eb21e047a839171b9190a45050565b6000805b610163548110156125185761016381815481106124de57634e487b7160e01b600052603260045260246000fd5b6000918252602090912001546001600160a01b03848116911614156125065750600192915050565b8061251081613587565b9150506124b1565b50600092915050565b60405163152a902d60e11b8152600481018490526024810183905260009081906001600160a01b03841690632a55205a90604401604080518083038186803b15801561256c57600080fd5b505afa92505050801561259c575060408051601f3d908101601f1916820190925261259991810190613005565b60015b6125ab575060009050806125b1565b90925090505b935093915050565b600061271061016154836125cd919061350e565b6105c591906134ee565b61262f846323b872dd60e01b8585856040516024016125f8939291906132b5565b60408051601f198184030181529190526020810180516001600160e01b03166001600160e01b031990931692909217909152612adf565b50505050565b600054610100900460ff1661265c5760405162461bcd60e51b8152600401610663906133ff565b612664612bb1565b61266c612bb1565b612674612bb1565b565b600054610100900460ff1661266c5760405162461bcd60e51b8152600401610663906133ff565b600054610100900460ff166126c45760405162461bcd60e51b8152600401610663906133ff565b612674612bd8565b61067682826123be565b600082815261012d6020526040808220600101805490849055905190918391839186917fbd79b86ffe0ab8e8776151514217cd7cacd52c909f66475c3af44e129f0b00ff9190a4505050565b6040516001600160a01b0383166024820152604481018290526105f290849063a9059cbb60e01b906064016125f8565b6040516301ffc9a760e01b81526380ac58cd60e01b600482015260009081906001600160a01b038416906301ffc9a79060240160206040518083038186803b15801561279d57600080fd5b505afa1580156127b1573d6000803e3d6000fd5b505050506040513d601f19601f820116820180604052508101906127d5919061310b565b9050600181151514156127eb5750600092915050565b6040516301ffc9a760e01b8152636cdb3d1360e11b60048201526000906001600160a01b038516906301ffc9a79060240160206040518083038186803b15801561283457600080fd5b505afa158015612848573d6000803e3d6000fd5b505050506040513d601f19601f8201168201806040525081019061286c919061310b565b905060018115151415612883575060019392505050565b60405162461bcd60e51b8152602060048201526013602482015272496e76616c6964204e4654204164647265737360681b6044820152606401610663565b60006001600160e01b03198216630271189760e51b14806105c557506301ffc9a760e01b6001600160e01b03198316146105c5565b6060600061290583600261350e565b6129109060026134d6565b67ffffffffffffffff81111561293657634e487b7160e01b600052604160045260246000fd5b6040519080825280601f01601f191660200182016040528015612960576020820181803683370190505b509050600360fc1b8160008151811061298957634e487b7160e01b600052603260045260246000fd5b60200101906001600160f81b031916908160001a905350600f60fb1b816001815181106129c657634e487b7160e01b600052603260045260246000fd5b60200101906001600160f81b031916908160001a90535060006129ea84600261350e565b6129f59060016134d6565b90505b6001811115612a89576f181899199a1a9b1b9c1cb0b131b232b360811b85600f1660108110612a3757634e487b7160e01b600052603260045260246000fd5b1a60f81b828281518110612a5b57634e487b7160e01b600052603260045260246000fd5b60200101906001600160f81b031916908160001a90535060049490941c93612a8281613570565b90506129f8565b508315612ad85760405162461bcd60e51b815260206004820181905260248201527f537472696e67733a20686578206c656e67746820696e73756666696369656e746044820152606401610663565b9392505050565b6000612b34826040518060400160405280602081526020017f5361666545524332303a206c6f772d6c6576656c2063616c6c206661696c6564815250856001600160a01b0316612c069092919063ffffffff16565b8051909150156105f25780806020019051810190612b52919061310b565b6105f25760405162461bcd60e51b815260206004820152602a60248201527f5361666545524332303a204552433230206f7065726174696f6e20646964206e6044820152691bdd081cdd58d8d9595960b21b6064820152608401610663565b600054610100900460ff166126745760405162461bcd60e51b8152600401610663906133ff565b600054610100900460ff16612bff5760405162461bcd60e51b8152600401610663906133ff565b600160fb55565b6060612c158484600085612c1d565b949350505050565b606082471015612c7e5760405162461bcd60e51b815260206004820152602660248201527f416464726573733a20696e73756666696369656e742062616c616e636520666f6044820152651c8818d85b1b60d21b6064820152608401610663565b843b612ccc5760405162461bcd60e51b815260206004820152601d60248201527f416464726573733a2063616c6c20746f206e6f6e2d636f6e74726163740000006044820152606401610663565b600080866001600160a01b03168587604051612ce89190613224565b60006040518083038185875af1925050503d8060008114612d25576040519150601f19603f3d011682016040523d82523d6000602084013e612d2a565b606091505b5091509150612d3a828286612d45565b979650505050505050565b60608315612d54575081612ad8565b825115612d645782518084602001fd5b8160405162461bcd60e51b8152600401610663919061335e565b600082601f830112612d8e578081fd5b81356020612da3612d9e836134b2565b613481565b80838252828201915082860187848660051b8901011115612dc2578586fd5b855b85811015612de057813584529284019290840190600101612dc4565b5090979650505050505050565b600082601f830112612dfd578081fd5b813567ffffffffffffffff811115612e1757612e176135b8565b612e2a601f8201601f1916602001613481565b818152846020838601011115612e3e578283fd5b816020850160208301379081016020019190915292915050565b803560ff81168114612e6957600080fd5b919050565b600060208284031215612e7f578081fd5b8135612ad8816135ce565b600080600080600060a08688031215612ea1578081fd5b8535612eac816135ce565b94506020860135612ebc816135ce565b9350604086013567ffffffffffffffff80821115612ed8578283fd5b612ee489838a01612d7e565b94506060880135915080821115612ef9578283fd5b612f0589838a01612d7e565b93506080880135915080821115612f1a578283fd5b50612f2788828901612ded565b9150509295509295909350565b60008060008060808587031215612f49578384fd5b8435612f54816135ce565b93506020850135612f64816135ce565b925060408501359150606085013567ffffffffffffffff811115612f86578182fd5b612f9287828801612ded565b91505092959194509250565b600080600080600060a08688031215612fb5578081fd5b8535612fc0816135ce565b94506020860135612fd0816135ce565b93506040860135925060608601359150608086013567ffffffffffffffff811115612ff9578182fd5b612f2788828901612ded565b60008060408385031215613017578182fd5b8251613022816135ce565b6020939093015192949293505050565b600080600060608486031215613046578283fd5b8335613051816135ce565b92506020840135915061306660408501612e58565b90509250925092565b60006020808385031215613081578182fd5b823567ffffffffffffffff811115613097578283fd5b8301601f810185136130a7578283fd5b80356130b5612d9e826134b2565b80828252848201915084840188868560051b87010111156130d4578687fd5b8694505b838510156130ff5780356130eb816135ce565b8352600194909401939185019185016130d8565b50979650505050505050565b60006020828403121561311c578081fd5b81518015158114612ad8578182fd5b60006020828403121561313c578081fd5b5035919050565b60008060408385031215613155578182fd5b823591506020830135613167816135ce565b809150509250929050565b600060208284031215613183578081fd5b81356001600160e01b031981168114612ad8578182fd5b6000602082840312156131ab578081fd5b5051919050565b600080600080600060a086880312156131c9578283fd5b8535945060208601356131db816135ce565b935060408601359250606086013591506131f760808701612e58565b90509295509295909350565b60008060408385031215613215578182fd5b50508035926020909101359150565b60008251613236818460208701613544565b9190910192915050565b7f416363657373436f6e74726f6c3a206163636f756e7420000000000000000000815260008351613278816017850160208801613544565b7001034b99036b4b9b9b4b733903937b6329607d1b60179184019182015283516132a9816028840160208801613544565b01602801949350505050565b6001600160a01b039384168152919092166020820152604081019190915260600190565b6001600160a01b0394851681529290931660208301526040820152606081019190915260a06080820181905260009082015260c00190565b6020808252825182820181905260009190848201906040850190845b818110156133525783516001600160a01b03168352928401929184019160010161332d565b50909695505050505050565b602081526000825180602084015261337d816040850160208701613544565b601f01601f19169190910160400192915050565b6020808252601c908201527f4d76636d703a2073656e6420746f2073656c6c6572206661696c656400000000604082015260600190565b6020808252601d908201527f4d76636d703a2063616e6e6f74206265207a65726f2061646472657373000000604082015260600190565b6020808252602b908201527f496e697469616c697a61626c653a20636f6e7472616374206973206e6f74206960408201526a6e697469616c697a696e6760a81b606082015260800190565b6020808252601f908201527f5265656e7472616e637947756172643a207265656e7472616e742063616c6c00604082015260600190565b604051601f8201601f1916810167ffffffffffffffff811182821017156134aa576134aa6135b8565b604052919050565b600067ffffffffffffffff8211156134cc576134cc6135b8565b5060051b60200190565b600082198211156134e9576134e96135a2565b500190565b60008261350957634e487b7160e01b81526012600452602481fd5b500490565b6000816000190483118215151615613528576135286135a2565b500290565b60008282101561353f5761353f6135a2565b500390565b60005b8381101561355f578181015183820152602001613547565b8381111561262f5750506000910152565b60008161357f5761357f6135a2565b506000190190565b600060001982141561359b5761359b6135a2565b5060010190565b634e487b7160e01b600052601160045260246000fd5b634e487b7160e01b600052604160045260246000fd5b6001600160a01b03811681146135e357600080fd5b5056fea49807205ce4d355092ef5a8a18f56e8913cf4a201fbe287825b095693c21775a264697066735822122007538461a59dd2859976b88041a56e5fcc920b9363b59f44c3b690e24ab8b6f564736f6c63430008040033",
  "linkReferences": {},
  "deployedLinkReferences": {}
}