{
  "_format": "hh-sol-artifact-1",
  "contractName": "NFTMtv",
  "sourceName": "contracts/NFTMtv.sol",
  "abi": [
    {
      "anonymous": false,
      "inputs": [
        {
          "indexed": true,
          "internalType": "address",
          "name": "account",
          "type": "address"
        },
        {
          "indexed": true,
          "internalType": "address",
          "name": "operator",
          "type": "address"
        },
        {
          "indexed": false,
          "internalType": "bool",
          "name": "approved",
          "type": "bool"
        }
      ],
      "name": "ApprovalForAll",
      "type": "event"
    },
    {
      "anonymous": false,
      "inputs": [
        {
          "indexed": true,
          "internalType": "address",
          "name": "creator",
          "type": "address"
        },
        {
          "indexed": true,
          "internalType": "uint256",
          "name": "id",
          "type": "uint256"
        },
        {
          "indexed": false,
          "internalType": "uint256",
          "name": "amount",
          "type": "uint256"
        },
        {
          "indexed": false,
          "internalType": "uint256",
          "name": "royalty",
          "type": "uint256"
        },
        {
          "indexed": false,
          "internalType": "string",
          "name": "uri",
          "type": "string"
        }
      ],
      "name": "Mint",
      "type": "event"
    },
    {
      "anonymous": false,
      "inputs": [
        {
          "indexed": true,
          "internalType": "address",
          "name": "previousOwner",
          "type": "address"
        },
        {
          "indexed": true,
          "internalType": "address",
          "name": "newOwner",
          "type": "address"
        }
      ],
      "name": "OwnershipTransferred",
      "type": "event"
    },
    {
      "anonymous": false,
      "inputs": [
        {
          "indexed": false,
          "internalType": "uint256",
          "name": "oldValue",
          "type": "uint256"
        },
        {
          "indexed": false,
          "internalType": "uint256",
          "name": "newValue",
          "type": "uint256"
        }
      ],
      "name": "RoyaltyChanged",
      "type": "event"
    },
    {
      "anonymous": false,
      "inputs": [
        {
          "indexed": true,
          "internalType": "address",
          "name": "operator",
          "type": "address"
        },
        {
          "indexed": true,
          "internalType": "address",
          "name": "from",
          "type": "address"
        },
        {
          "indexed": true,
          "internalType": "address",
          "name": "to",
          "type": "address"
        },
        {
          "indexed": false,
          "internalType": "uint256[]",
          "name": "ids",
          "type": "uint256[]"
        },
        {
          "indexed": false,
          "internalType": "uint256[]",
          "name": "values",
          "type": "uint256[]"
        }
      ],
      "name": "TransferBatch",
      "type": "event"
    },
    {
      "anonymous": false,
      "inputs": [
        {
          "indexed": true,
          "internalType": "address",
          "name": "operator",
          "type": "address"
        },
        {
          "indexed": true,
          "internalType": "address",
          "name": "from",
          "type": "address"
        },
        {
          "indexed": true,
          "internalType": "address",
          "name": "to",
          "type": "address"
        },
        {
          "indexed": false,
          "internalType": "uint256",
          "name": "id",
          "type": "uint256"
        },
        {
          "indexed": false,
          "internalType": "uint256",
          "name": "value",
          "type": "uint256"
        }
      ],
      "name": "TransferSingle",
      "type": "event"
    },
    {
      "anonymous": false,
      "inputs": [
        {
          "indexed": false,
          "internalType": "string",
          "name": "value",
          "type": "string"
        },
        {
          "indexed": true,
          "internalType": "uint256",
          "name": "id",
          "type": "uint256"
        }
      ],
      "name": "URI",
      "type": "event"
    },
    {
      "inputs": [
        {
          "internalType": "address",
          "name": "account",
          "type": "address"
        },
        {
          "internalType": "uint256",
          "name": "id",
          "type": "uint256"
        }
      ],
      "name": "balanceOf",
      "outputs": [
        {
          "internalType": "uint256",
          "name": "",
          "type": "uint256"
        }
      ],
      "stateMutability": "view",
      "type": "function"
    },
    {
      "inputs": [
        {
          "internalType": "address[]",
          "name": "accounts",
          "type": "address[]"
        },
        {
          "internalType": "uint256[]",
          "name": "ids",
          "type": "uint256[]"
        }
      ],
      "name": "balanceOfBatch",
      "outputs": [
        {
          "internalType": "uint256[]",
          "name": "",
          "type": "uint256[]"
        }
      ],
      "stateMutability": "view",
      "type": "function"
    },
    {
      "inputs": [
        {
          "internalType": "uint256[]",
          "name": "amounts_",
          "type": "uint256[]"
        },
        {
          "internalType": "uint256[]",
          "name": "royalties_",
          "type": "uint256[]"
        },
        {
          "internalType": "string[]",
          "name": "tokenURIs",
          "type": "string[]"
        }
      ],
      "name": "batchMint",
      "outputs": [],
      "stateMutability": "nonpayable",
      "type": "function"
    },
    {
      "inputs": [
        {
          "internalType": "uint256",
          "name": "",
          "type": "uint256"
        }
      ],
      "name": "creator",
      "outputs": [
        {
          "internalType": "address",
          "name": "",
          "type": "address"
        }
      ],
      "stateMutability": "view",
      "type": "function"
    },
    {
      "inputs": [],
      "name": "initialize",
      "outputs": [],
      "stateMutability": "nonpayable",
      "type": "function"
    },
    {
      "inputs": [
        {
          "internalType": "address",
          "name": "account",
          "type": "address"
        },
        {
          "internalType": "address",
          "name": "operator",
          "type": "address"
        }
      ],
      "name": "isApprovedForAll",
      "outputs": [
        {
          "internalType": "bool",
          "name": "",
          "type": "bool"
        }
      ],
      "stateMutability": "view",
      "type": "function"
    },
    {
      "inputs": [],
      "name": "maxRoyalty",
      "outputs": [
        {
          "internalType": "uint256",
          "name": "",
          "type": "uint256"
        }
      ],
      "stateMutability": "view",
      "type": "function"
    },
    {
      "inputs": [
        {
          "internalType": "uint256",
          "name": "amount_",
          "type": "uint256"
        },
        {
          "internalType": "uint256",
          "name": "royalty_",
          "type": "uint256"
        },
        {
          "internalType": "string",
          "name": "tokenURI",
          "type": "string"
        }
      ],
      "name": "mint",
      "outputs": [],
      "stateMutability": "nonpayable",
      "type": "function"
    },
    {
      "inputs": [],
      "name": "owner",
      "outputs": [
        {
          "internalType": "address",
          "name": "",
          "type": "address"
        }
      ],
      "stateMutability": "view",
      "type": "function"
    },
    {
      "inputs": [],
      "name": "renounceOwnership",
      "outputs": [],
      "stateMutability": "nonpayable",
      "type": "function"
    },
    {
      "inputs": [
        {
          "internalType": "uint256",
          "name": "",
          "type": "uint256"
        }
      ],
      "name": "royalties",
      "outputs": [
        {
          "internalType": "address",
          "name": "recipient",
          "type": "address"
        },
        {
          "internalType": "uint24",
          "name": "amount",
          "type": "uint24"
        }
      ],
      "stateMutability": "view",
      "type": "function"
    },
    {
      "inputs": [
        {
          "internalType": "uint256",
          "name": "id",
          "type": "uint256"
        },
        {
          "internalType": "uint256",
          "name": "value",
          "type": "uint256"
        }
      ],
      "name": "royaltyInfo",
      "outputs": [
        {
          "internalType": "address",
          "name": "receiver",
          "type": "address"
        },
        {
          "internalType": "uint256",
          "name": "royaltyAmount",
          "type": "uint256"
        }
      ],
      "stateMutability": "view",
      "type": "function"
    },
    {
      "inputs": [
        {
          "internalType": "address",
          "name": "from",
          "type": "address"
        },
        {
          "internalType": "address",
          "name": "to",
          "type": "address"
        },
        {
          "internalType": "uint256[]",
          "name": "ids",
          "type": "uint256[]"
        },
        {
          "internalType": "uint256[]",
          "name": "amounts",
          "type": "uint256[]"
        },
        {
          "internalType": "bytes",
          "name": "data",
          "type": "bytes"
        }
      ],
      "name": "safeBatchTransferFrom",
      "outputs": [],
      "stateMutability": "nonpayable",
      "type": "function"
    },
    {
      "inputs": [
        {
          "internalType": "address",
          "name": "from",
          "type": "address"
        },
        {
          "internalType": "address",
          "name": "to",
          "type": "address"
        },
        {
          "internalType": "uint256",
          "name": "id",
          "type": "uint256"
        },
        {
          "internalType": "uint256",
          "name": "amount",
          "type": "uint256"
        },
        {
          "internalType": "bytes",
          "name": "data",
          "type": "bytes"
        }
      ],
      "name": "safeTransferFrom",
      "outputs": [],
      "stateMutability": "nonpayable",
      "type": "function"
    },
    {
      "inputs": [
        {
          "internalType": "address",
          "name": "operator",
          "type": "address"
        },
        {
          "internalType": "bool",
          "name": "approved",
          "type": "bool"
        }
      ],
      "name": "setApprovalForAll",
      "outputs": [],
      "stateMutability": "nonpayable",
      "type": "function"
    },
    {
      "inputs": [
        {
          "internalType": "uint256",
          "name": "maxRoyalty_",
          "type": "uint256"
        }
      ],
      "name": "setMaxRoyalty",
      "outputs": [],
      "stateMutability": "nonpayable",
      "type": "function"
    },
    {
      "inputs": [
        {
          "internalType": "bytes4",
          "name": "interfaceId",
          "type": "bytes4"
        }
      ],
      "name": "supportsInterface",
      "outputs": [
        {
          "internalType": "bool",
          "name": "",
          "type": "bool"
        }
      ],
      "stateMutability": "view",
      "type": "function"
    },
    {
      "inputs": [
        {
          "internalType": "address",
          "name": "newOwner",
          "type": "address"
        }
      ],
      "name": "transferOwnership",
      "outputs": [],
      "stateMutability": "nonpayable",
      "type": "function"
    },
    {
      "inputs": [
        {
          "internalType": "uint256",
          "name": "id",
          "type": "uint256"
        }
      ],
      "name": "uri",
      "outputs": [
        {
          "internalType": "string",
          "name": "",
          "type": "string"
        }
      ],
      "stateMutability": "view",
      "type": "function"
    }
  ],
  "bytecode": "0x608060405234801561001057600080fd5b5061454a806100206000396000f3fe608060405234801561001057600080fd5b50600436106101205760003560e01c8063715018a6116100ad578063c6e64e5311610071578063c6e64e531461031b578063c96e9f4b14610337578063e985e9c514610353578063f242432a14610383578063f2fde38b1461039f57610120565b8063715018a61461029c5780637f77f574146102a65780638129fc1c146102d75780638da5cb5b146102e1578063a22cb465146102ff57610120565b80632eb2c2d6116100f45780632eb2c2d6146101e65780634e1273f414610202578063510b5158146102325780635795c1f914610262578063674a12c71461027e57610120565b8062fdd58e1461012557806301ffc9a7146101555780630e89341c146101855780632a55205a146101b5575b600080fd5b61013f600480360381019061013a9190612e6b565b6103bb565b60405161014c919061393f565b60405180910390f35b61016f600480360381019061016a9190612faa565b610485565b60405161017c9190613662565b60405180910390f35b61019f600480360381019061019a9190612ffc565b610567565b6040516101ac919061367d565b60405180910390f35b6101cf60048036038101906101ca9190613025565b61060c565b6040516101dd9291906135e0565b60405180910390f35b61020060048036038101906101fb9190612ce1565b6106dd565b005b61021c60048036038101906102179190612ea7565b61077e565b6040516102299190613609565b60405180910390f35b61024c60048036038101906102479190612ffc565b61092f565b60405161025991906134da565b60405180910390f35b61027c60048036038101906102779190612f13565b610962565b005b610286610c12565b604051610293919061393f565b60405180910390f35b6102a4610c18565b005b6102c060048036038101906102bb9190612ffc565b610ca0565b6040516102ce9291906135b7565b60405180910390f35b6102df610cf3565b005b6102e9610e00565b6040516102f691906134da565b60405180910390f35b61031960048036038101906103149190612e2f565b610e2a565b005b61033560048036038101906103309190613061565b610e40565b005b610351600480360381019061034c9190612ffc565b610f3e565b005b61036d60048036038101906103689190612ca5565b611089565b60405161037a9190613662565b60405180910390f35b61039d60048036038101906103989190612da0565b61111d565b005b6103b960048036038101906103b49190612c7c565b6111be565b005b60008073ffffffffffffffffffffffffffffffffffffffff168373ffffffffffffffffffffffffffffffffffffffff16141561042c576040517f08c379a0000000000000000000000000000000000000000000000000000000008152600401610423906136df565b60405180910390fd5b6065600083815260200190815260200160002060008473ffffffffffffffffffffffffffffffffffffffff1673ffffffffffffffffffffffffffffffffffffffff16815260200190815260200160002054905092915050565b60007fd9b67a26000000000000000000000000000000000000000000000000000000007bffffffffffffffffffffffffffffffffffffffffffffffffffffffff1916827bffffffffffffffffffffffffffffffffffffffffffffffffffffffff1916148061055057507f0e89341c000000000000000000000000000000000000000000000000000000007bffffffffffffffffffffffffffffffffffffffffffffffffffffffff1916827bffffffffffffffffffffffffffffffffffffffffffffffffffffffff1916145b80610560575061055f826112b6565b5b9050919050565b606060cd6000838152602001908152602001600020805461058790613ce3565b80601f01602080910402602001604051908101604052809291908181526020018280546105b390613ce3565b80156106005780601f106105d557610100808354040283529160200191610600565b820191906000526020600020905b8154815290600101906020018083116105e357829003601f168201915b50505050509050919050565b600080600060cc60008681526020019081526020016000206040518060400160405290816000820160009054906101000a900473ffffffffffffffffffffffffffffffffffffffff1673ffffffffffffffffffffffffffffffffffffffff1673ffffffffffffffffffffffffffffffffffffffff1681526020016000820160149054906101000a900462ffffff1662ffffff1662ffffff1681525050905080600001519250612710816020015162ffffff16856106c99190613bc4565b6106d39190613b93565b9150509250929050565b6106e5611320565b73ffffffffffffffffffffffffffffffffffffffff168573ffffffffffffffffffffffffffffffffffffffff16148061072b575061072a85610725611320565b611089565b5b61076a576040517f08c379a00000000000000000000000000000000000000000000000000000000081526004016107619061379f565b60405180910390fd5b6107778585858585611328565b5050505050565b606081518351146107c4576040517f08c379a00000000000000000000000000000000000000000000000000000000081526004016107bb906138df565b60405180910390fd5b6000835167ffffffffffffffff811115610807577f4e487b7100000000000000000000000000000000000000000000000000000000600052604160045260246000fd5b6040519080825280602002602001820160405280156108355781602001602082028036833780820191505090505b50905060005b8451811015610924576108ce858281518110610880577f4e487b7100000000000000000000000000000000000000000000000000000000600052603260045260246000fd5b60200260200101518583815181106108c1577f4e487b7100000000000000000000000000000000000000000000000000000000600052603260045260246000fd5b60200260200101516103bb565b828281518110610907577f4e487b7100000000000000000000000000000000000000000000000000000000600052603260045260246000fd5b6020026020010181815250508061091d90613d46565b905061083b565b508091505092915050565b60cb6020528060005260406000206000915054906101000a900473ffffffffffffffffffffffffffffffffffffffff1681565b60008151905060008167ffffffffffffffff8111156109aa577f4e487b7100000000000000000000000000000000000000000000000000000000600052604160045260246000fd5b6040519080825280602002602001820160405280156109d85781602001602082028036833780820191505090505b50905060005b82811015610bef576109f060ca61168b565b60006109fc60ca6116a1565b905080838381518110610a38577f4e487b7100000000000000000000000000000000000000000000000000000000600052603260045260246000fd5b6020026020010181815250506000878381518110610a7f577f4e487b7100000000000000000000000000000000000000000000000000000000600052603260045260246000fd5b602002602001015190506000868481518110610ac4577f4e487b7100000000000000000000000000000000000000000000000000000000600052603260045260246000fd5b602002602001015190506000888581518110610b09577f4e487b7100000000000000000000000000000000000000000000000000000000600052603260045260246000fd5b60200260200101519050610b1e8484846116af565b610b2884836117de565b3360cb600086815260200190815260200160002060006101000a81548173ffffffffffffffffffffffffffffffffffffffff021916908373ffffffffffffffffffffffffffffffffffffffff160217905550610b8584338361180a565b833373ffffffffffffffffffffffffffffffffffffffff167f187f4dfea172a3593c9566efe07c3c28a403d32cff4327bb085eb322a05e96b4858486604051610bd093929190613983565b60405180910390a3505050508080610be790613d46565b9150506109de565b50610c0b33828760405180602001604052806000815250611906565b5050505050565b60c95481565b610c20611320565b73ffffffffffffffffffffffffffffffffffffffff16610c3e610e00565b73ffffffffffffffffffffffffffffffffffffffff1614610c94576040517f08c379a0000000000000000000000000000000000000000000000000000000008152600401610c8b9061381f565b60405180910390fd5b610c9e6000611b71565b565b60cc6020528060005260406000206000915090508060000160009054906101000a900473ffffffffffffffffffffffffffffffffffffffff16908060000160149054906101000a900462ffffff16905082565b600060019054906101000a900460ff16610d1b5760008054906101000a900460ff1615610d24565b610d23611c37565b5b610d63576040517f08c379a0000000000000000000000000000000000000000000000000000000008152600401610d5a906137bf565b60405180910390fd5b60008060019054906101000a900460ff161590508015610db3576001600060016101000a81548160ff02191690831515021790555060016000806101000a81548160ff0219169083151502179055505b610dcb60405180602001604052806000815250611c48565b610dd3611cb3565b6103e860c9819055508015610dfd5760008060016101000a81548160ff0219169083151502179055505b50565b6000609760009054906101000a900473ffffffffffffffffffffffffffffffffffffffff16905090565b610e3c610e35611320565b8383611d14565b5050565b610e4a60ca61168b565b6000610e5660ca6116a1565b9050610e638185846116af565b3360cb600083815260200190815260200160002060006101000a81548173ffffffffffffffffffffffffffffffffffffffff021916908373ffffffffffffffffffffffffffffffffffffffff160217905550610ebf81836117de565b610eca81338561180a565b803373ffffffffffffffffffffffffffffffffffffffff167f187f4dfea172a3593c9566efe07c3c28a403d32cff4327bb085eb322a05e96b4868686604051610f1593929190613983565b60405180910390a3610f3833828660405180602001604052806000815250611e81565b50505050565b610f46611320565b73ffffffffffffffffffffffffffffffffffffffff16610f64610e00565b73ffffffffffffffffffffffffffffffffffffffff1614610fba576040517f08c379a0000000000000000000000000000000000000000000000000000000008152600401610fb19061381f565b60405180910390fd5b612710811115610fff576040517f08c379a0000000000000000000000000000000000000000000000000000000008152600401610ff69061383f565b60405180910390fd5b60c954811415611044576040517f08c379a000000000000000000000000000000000000000000000000000000000815260040161103b906137ff565b60405180910390fd5b7f262ef6fcfeaf0f855e21935f3caf9a0dceb413454fb3904757fc2b6fded38cc760c9548260405161107792919061395a565b60405180910390a18060c98190555050565b6000606660008473ffffffffffffffffffffffffffffffffffffffff1673ffffffffffffffffffffffffffffffffffffffff16815260200190815260200160002060008373ffffffffffffffffffffffffffffffffffffffff1673ffffffffffffffffffffffffffffffffffffffff16815260200190815260200160002060009054906101000a900460ff16905092915050565b611125611320565b73ffffffffffffffffffffffffffffffffffffffff168573ffffffffffffffffffffffffffffffffffffffff16148061116b575061116a85611165611320565b611089565b5b6111aa576040517f08c379a00000000000000000000000000000000000000000000000000000000081526004016111a19061373f565b60405180910390fd5b6111b78585858585612018565b5050505050565b6111c6611320565b73ffffffffffffffffffffffffffffffffffffffff166111e4610e00565b73ffffffffffffffffffffffffffffffffffffffff161461123a576040517f08c379a00000000000000000000000000000000000000000000000000000000081526004016112319061381f565b60405180910390fd5b600073ffffffffffffffffffffffffffffffffffffffff168173ffffffffffffffffffffffffffffffffffffffff1614156112aa576040517f08c379a00000000000000000000000000000000000000000000000000000000081526004016112a1906136ff565b60405180910390fd5b6112b381611b71565b50565b60007f01ffc9a7000000000000000000000000000000000000000000000000000000007bffffffffffffffffffffffffffffffffffffffffffffffffffffffff1916827bffffffffffffffffffffffffffffffffffffffffffffffffffffffff1916149050919050565b600033905090565b815183511461136c576040517f08c379a0000000000000000000000000000000000000000000000000000000008152600401611363906138ff565b60405180910390fd5b600073ffffffffffffffffffffffffffffffffffffffff168473ffffffffffffffffffffffffffffffffffffffff1614156113dc576040517f08c379a00000000000000000000000000000000000000000000000000000000081526004016113d39061377f565b60405180910390fd5b60006113e6611320565b90506113f681878787878761229d565b60005b84518110156115f657600085828151811061143d577f4e487b7100000000000000000000000000000000000000000000000000000000600052603260045260246000fd5b602002602001015190506000858381518110611482577f4e487b7100000000000000000000000000000000000000000000000000000000600052603260045260246000fd5b6020026020010151905060006065600084815260200190815260200160002060008b73ffffffffffffffffffffffffffffffffffffffff1673ffffffffffffffffffffffffffffffffffffffff16815260200190815260200160002054905081811015611524576040517f08c379a000000000000000000000000000000000000000000000000000000000815260040161151b906137df565b60405180910390fd5b8181036065600085815260200190815260200160002060008c73ffffffffffffffffffffffffffffffffffffffff1673ffffffffffffffffffffffffffffffffffffffff16815260200190815260200160002081905550816065600085815260200190815260200160002060008b73ffffffffffffffffffffffffffffffffffffffff1673ffffffffffffffffffffffffffffffffffffffff16815260200190815260200160002060008282546115db9190613b3d565b92505081905550505050806115ef90613d46565b90506113f9565b508473ffffffffffffffffffffffffffffffffffffffff168673ffffffffffffffffffffffffffffffffffffffff168273ffffffffffffffffffffffffffffffffffffffff167f4a39dc06d4c0dbc64b70af90fd698a233a518aa5d07e595d983b8c0526c8f7fb878760405161166d92919061362b565b60405180910390a46116838187878787876122a5565b505050505050565b6001816000016000828254019250508190555050565b600081600001549050919050565b600073ffffffffffffffffffffffffffffffffffffffff1660cb600085815260200190815260200160002060009054906101000a900473ffffffffffffffffffffffffffffffffffffffff1673ffffffffffffffffffffffffffffffffffffffff1614611751576040517f08c379a00000000000000000000000000000000000000000000000000000000081526004016117489061385f565b60405180910390fd5b6000821415611795576040517f08c379a000000000000000000000000000000000000000000000000000000000815260040161178c9061375f565b60405180910390fd5b60008151116117d9576040517f08c379a00000000000000000000000000000000000000000000000000000000081526004016117d09061389f565b60405180910390fd5b505050565b8060cd600084815260200190815260200160002090805190602001906118059291906128c4565b505050565b60c95481111561184f576040517f08c379a00000000000000000000000000000000000000000000000000000000081526004016118469061371f565b60405180910390fd5b60405180604001604052808373ffffffffffffffffffffffffffffffffffffffff1681526020018262ffffff1681525060cc600085815260200190815260200160002060008201518160000160006101000a81548173ffffffffffffffffffffffffffffffffffffffff021916908373ffffffffffffffffffffffffffffffffffffffff16021790555060208201518160000160146101000a81548162ffffff021916908362ffffff160217905550905050505050565b600073ffffffffffffffffffffffffffffffffffffffff168473ffffffffffffffffffffffffffffffffffffffff161415611976576040517f08c379a000000000000000000000000000000000000000000000000000000000815260040161196d9061391f565b60405180910390fd5b81518351146119ba576040517f08c379a00000000000000000000000000000000000000000000000000000000081526004016119b1906138ff565b60405180910390fd5b60006119c4611320565b90506119d58160008787878761229d565b60005b8451811015611adb57838181518110611a1a577f4e487b7100000000000000000000000000000000000000000000000000000000600052603260045260246000fd5b602002602001015160656000878481518110611a5f577f4e487b7100000000000000000000000000000000000000000000000000000000600052603260045260246000fd5b6020026020010151815260200190815260200160002060008873ffffffffffffffffffffffffffffffffffffffff1673ffffffffffffffffffffffffffffffffffffffff1681526020019081526020016000206000828254611ac19190613b3d565b925050819055508080611ad390613d46565b9150506119d8565b508473ffffffffffffffffffffffffffffffffffffffff16600073ffffffffffffffffffffffffffffffffffffffff168273ffffffffffffffffffffffffffffffffffffffff167f4a39dc06d4c0dbc64b70af90fd698a233a518aa5d07e595d983b8c0526c8f7fb8787604051611b5392919061362b565b60405180910390a4611b6a816000878787876122a5565b5050505050565b6000609760009054906101000a900473ffffffffffffffffffffffffffffffffffffffff16905081609760006101000a81548173ffffffffffffffffffffffffffffffffffffffff021916908373ffffffffffffffffffffffffffffffffffffffff1602179055508173ffffffffffffffffffffffffffffffffffffffff168173ffffffffffffffffffffffffffffffffffffffff167f8be0079c531659141344cd1fd0a4f28419497f9722a3daafe3b4186f6b6457e060405160405180910390a35050565b6000611c423061248c565b15905090565b600060019054906101000a900460ff16611c97576040517f08c379a0000000000000000000000000000000000000000000000000000000008152600401611c8e9061387f565b60405180910390fd5b611c9f61249f565b611ca76124f0565b611cb081612541565b50565b600060019054906101000a900460ff16611d02576040517f08c379a0000000000000000000000000000000000000000000000000000000008152600401611cf99061387f565b60405180910390fd5b611d0a61249f565b611d1261259c565b565b8173ffffffffffffffffffffffffffffffffffffffff168373ffffffffffffffffffffffffffffffffffffffff161415611d83576040517f08c379a0000000000000000000000000000000000000000000000000000000008152600401611d7a906138bf565b60405180910390fd5b80606660008573ffffffffffffffffffffffffffffffffffffffff1673ffffffffffffffffffffffffffffffffffffffff16815260200190815260200160002060008473ffffffffffffffffffffffffffffffffffffffff1673ffffffffffffffffffffffffffffffffffffffff16815260200190815260200160002060006101000a81548160ff0219169083151502179055508173ffffffffffffffffffffffffffffffffffffffff168373ffffffffffffffffffffffffffffffffffffffff167f17307eab39ab6107e8899845ad3d59bd9653f200f220920489ca2b5937696c3183604051611e749190613662565b60405180910390a3505050565b600073ffffffffffffffffffffffffffffffffffffffff168473ffffffffffffffffffffffffffffffffffffffff161415611ef1576040517f08c379a0000000000000000000000000000000000000000000000000000000008152600401611ee89061391f565b60405180910390fd5b6000611efb611320565b9050611f1c81600087611f0d886125fd565b611f16886125fd565b8761229d565b826065600086815260200190815260200160002060008773ffffffffffffffffffffffffffffffffffffffff1673ffffffffffffffffffffffffffffffffffffffff1681526020019081526020016000206000828254611f7c9190613b3d565b925050819055508473ffffffffffffffffffffffffffffffffffffffff16600073ffffffffffffffffffffffffffffffffffffffff168273ffffffffffffffffffffffffffffffffffffffff167fc3d58168c5ae7397731d063d5bbf3d657854427343f4c083240f7aacaa2d0f628787604051611ffa92919061395a565b60405180910390a4612011816000878787876126c3565b5050505050565b600073ffffffffffffffffffffffffffffffffffffffff168473ffffffffffffffffffffffffffffffffffffffff161415612088576040517f08c379a000000000000000000000000000000000000000000000000000000000815260040161207f9061377f565b60405180910390fd5b6000612092611320565b90506120b28187876120a3886125fd565b6120ac886125fd565b8761229d565b60006065600086815260200190815260200160002060008873ffffffffffffffffffffffffffffffffffffffff1673ffffffffffffffffffffffffffffffffffffffff1681526020019081526020016000205490508381101561214a576040517f08c379a0000000000000000000000000000000000000000000000000000000008152600401612141906137df565b60405180910390fd5b8381036065600087815260200190815260200160002060008973ffffffffffffffffffffffffffffffffffffffff1673ffffffffffffffffffffffffffffffffffffffff16815260200190815260200160002081905550836065600087815260200190815260200160002060008873ffffffffffffffffffffffffffffffffffffffff1673ffffffffffffffffffffffffffffffffffffffff16815260200190815260200160002060008282546122019190613b3d565b925050819055508573ffffffffffffffffffffffffffffffffffffffff168773ffffffffffffffffffffffffffffffffffffffff168373ffffffffffffffffffffffffffffffffffffffff167fc3d58168c5ae7397731d063d5bbf3d657854427343f4c083240f7aacaa2d0f62888860405161227e92919061395a565b60405180910390a46122948288888888886126c3565b50505050505050565b505050505050565b6122c48473ffffffffffffffffffffffffffffffffffffffff1661248c565b15612484578373ffffffffffffffffffffffffffffffffffffffff1663bc197c8187878686866040518663ffffffff1660e01b815260040161230a9594939291906134f5565b602060405180830381600087803b15801561232457600080fd5b505af192505050801561235557506040513d601f19601f820116820180604052508101906123529190612fd3565b60015b6123fb57612361613e4b565b806308c379a014156123be5750612376614422565b8061238157506123c0565b806040517f08c379a00000000000000000000000000000000000000000000000000000000081526004016123b5919061367d565b60405180910390fd5b505b6040517f08c379a00000000000000000000000000000000000000000000000000000000081526004016123f29061369f565b60405180910390fd5b63bc197c8160e01b7bffffffffffffffffffffffffffffffffffffffffffffffffffffffff1916817bffffffffffffffffffffffffffffffffffffffffffffffffffffffff191614612482576040517f08c379a0000000000000000000000000000000000000000000000000000000008152600401612479906136bf565b60405180910390fd5b505b505050505050565b600080823b905060008111915050919050565b600060019054906101000a900460ff166124ee576040517f08c379a00000000000000000000000000000000000000000000000000000000081526004016124e59061387f565b60405180910390fd5b565b600060019054906101000a900460ff1661253f576040517f08c379a00000000000000000000000000000000000000000000000000000000081526004016125369061387f565b60405180910390fd5b565b600060019054906101000a900460ff16612590576040517f08c379a00000000000000000000000000000000000000000000000000000000081526004016125879061387f565b60405180910390fd5b612599816128aa565b50565b600060019054906101000a900460ff166125eb576040517f08c379a00000000000000000000000000000000000000000000000000000000081526004016125e29061387f565b60405180910390fd5b6125fb6125f6611320565b611b71565b565b60606000600167ffffffffffffffff811115612642577f4e487b7100000000000000000000000000000000000000000000000000000000600052604160045260246000fd5b6040519080825280602002602001820160405280156126705781602001602082028036833780820191505090505b50905082816000815181106126ae577f4e487b7100000000000000000000000000000000000000000000000000000000600052603260045260246000fd5b60200260200101818152505080915050919050565b6126e28473ffffffffffffffffffffffffffffffffffffffff1661248c565b156128a2578373ffffffffffffffffffffffffffffffffffffffff1663f23a6e6187878686866040518663ffffffff1660e01b815260040161272895949392919061355d565b602060405180830381600087803b15801561274257600080fd5b505af192505050801561277357506040513d601f19601f820116820180604052508101906127709190612fd3565b60015b6128195761277f613e4b565b806308c379a014156127dc5750612794614422565b8061279f57506127de565b806040517f08c379a00000000000000000000000000000000000000000000000000000000081526004016127d3919061367d565b60405180910390fd5b505b6040517f08c379a00000000000000000000000000000000000000000000000000000000081526004016128109061369f565b60405180910390fd5b63f23a6e6160e01b7bffffffffffffffffffffffffffffffffffffffffffffffffffffffff1916817bffffffffffffffffffffffffffffffffffffffffffffffffffffffff1916146128a0576040517f08c379a0000000000000000000000000000000000000000000000000000000008152600401612897906136bf565b60405180910390fd5b505b505050505050565b80606790805190602001906128c09291906128c4565b5050565b8280546128d090613ce3565b90600052602060002090601f0160209004810192826128f25760008555612939565b82601f1061290b57805160ff1916838001178555612939565b82800160010185558215612939579182015b8281111561293857825182559160200191906001019061291d565b5b509050612946919061294a565b5090565b5b8082111561296357600081600090555060010161294b565b5090565b600061297a612975846139e6565b6139c1565b9050808382526020820190508285602086028201111561299957600080fd5b60005b858110156129c957816129af8882612b41565b84526020840193506020830192505060018101905061299c565b5050509392505050565b60006129e66129e184613a12565b6139c1565b90508083825260208201905082856020860282011115612a0557600080fd5b60005b85811015612a4f57813567ffffffffffffffff811115612a2757600080fd5b808601612a348982612c3d565b85526020850194506020840193505050600181019050612a08565b5050509392505050565b6000612a6c612a6784613a3e565b6139c1565b90508083825260208201905082856020860282011115612a8b57600080fd5b60005b85811015612abb5781612aa18882612c67565b845260208401935060208301925050600181019050612a8e565b5050509392505050565b6000612ad8612ad384613a6a565b6139c1565b905082815260208101848484011115612af057600080fd5b612afb848285613ca1565b509392505050565b6000612b16612b1184613a9b565b6139c1565b905082815260208101848484011115612b2e57600080fd5b612b39848285613ca1565b509392505050565b600081359050612b50816144b8565b92915050565b600082601f830112612b6757600080fd5b8135612b77848260208601612967565b91505092915050565b600082601f830112612b9157600080fd5b8135612ba18482602086016129d3565b91505092915050565b600082601f830112612bbb57600080fd5b8135612bcb848260208601612a59565b91505092915050565b600081359050612be3816144cf565b92915050565b600081359050612bf8816144e6565b92915050565b600081519050612c0d816144e6565b92915050565b600082601f830112612c2457600080fd5b8135612c34848260208601612ac5565b91505092915050565b600082601f830112612c4e57600080fd5b8135612c5e848260208601612b03565b91505092915050565b600081359050612c76816144fd565b92915050565b600060208284031215612c8e57600080fd5b6000612c9c84828501612b41565b91505092915050565b60008060408385031215612cb857600080fd5b6000612cc685828601612b41565b9250506020612cd785828601612b41565b9150509250929050565b600080600080600060a08688031215612cf957600080fd5b6000612d0788828901612b41565b9550506020612d1888828901612b41565b945050604086013567ffffffffffffffff811115612d3557600080fd5b612d4188828901612baa565b935050606086013567ffffffffffffffff811115612d5e57600080fd5b612d6a88828901612baa565b925050608086013567ffffffffffffffff811115612d8757600080fd5b612d9388828901612c13565b9150509295509295909350565b600080600080600060a08688031215612db857600080fd5b6000612dc688828901612b41565b9550506020612dd788828901612b41565b9450506040612de888828901612c67565b9350506060612df988828901612c67565b925050608086013567ffffffffffffffff811115612e1657600080fd5b612e2288828901612c13565b9150509295509295909350565b60008060408385031215612e4257600080fd5b6000612e5085828601612b41565b9250506020612e6185828601612bd4565b9150509250929050565b60008060408385031215612e7e57600080fd5b6000612e8c85828601612b41565b9250506020612e9d85828601612c67565b9150509250929050565b60008060408385031215612eba57600080fd5b600083013567ffffffffffffffff811115612ed457600080fd5b612ee085828601612b56565b925050602083013567ffffffffffffffff811115612efd57600080fd5b612f0985828601612baa565b9150509250929050565b600080600060608486031215612f2857600080fd5b600084013567ffffffffffffffff811115612f4257600080fd5b612f4e86828701612baa565b935050602084013567ffffffffffffffff811115612f6b57600080fd5b612f7786828701612baa565b925050604084013567ffffffffffffffff811115612f9457600080fd5b612fa086828701612b80565b9150509250925092565b600060208284031215612fbc57600080fd5b6000612fca84828501612be9565b91505092915050565b600060208284031215612fe557600080fd5b6000612ff384828501612bfe565b91505092915050565b60006020828403121561300e57600080fd5b600061301c84828501612c67565b91505092915050565b6000806040838503121561303857600080fd5b600061304685828601612c67565b925050602061305785828601612c67565b9150509250929050565b60008060006060848603121561307657600080fd5b600061308486828701612c67565b935050602061309586828701612c67565b925050604084013567ffffffffffffffff8111156130b257600080fd5b6130be86828701612c3d565b9150509250925092565b60006130d483836134bc565b60208301905092915050565b6130e981613c1e565b82525050565b60006130fa82613adc565b6131048185613b0a565b935061310f83613acc565b8060005b8381101561314057815161312788826130c8565b975061313283613afd565b925050600181019050613113565b5085935050505092915050565b61315681613c30565b82525050565b600061316782613ae7565b6131718185613b1b565b9350613181818560208601613cb0565b61318a81613e6d565b840191505092915050565b60006131a082613af2565b6131aa8185613b2c565b93506131ba818560208601613cb0565b6131c381613e6d565b840191505092915050565b60006131db603483613b2c565b91506131e682613e8b565b604082019050919050565b60006131fe602883613b2c565b915061320982613eda565b604082019050919050565b6000613221602b83613b2c565b915061322c82613f29565b604082019050919050565b6000613244602683613b2c565b915061324f82613f78565b604082019050919050565b6000613267601283613b2c565b915061327282613fc7565b602082019050919050565b600061328a602983613b2c565b915061329582613ff0565b604082019050919050565b60006132ad601983613b2c565b91506132b88261403f565b602082019050919050565b60006132d0602583613b2c565b91506132db82614068565b604082019050919050565b60006132f3603283613b2c565b91506132fe826140b7565b604082019050919050565b6000613316602e83613b2c565b915061332182614106565b604082019050919050565b6000613339602a83613b2c565b915061334482614155565b604082019050919050565b600061335c602183613b2c565b9150613367826141a4565b604082019050919050565b600061337f602083613b2c565b915061338a826141f3565b602082019050919050565b60006133a2601483613b2c565b91506133ad8261421c565b602082019050919050565b60006133c5601783613b2c565b91506133d082614245565b602082019050919050565b60006133e8602b83613b2c565b91506133f38261426e565b604082019050919050565b600061340b601683613b2c565b9150613416826142bd565b602082019050919050565b600061342e602983613b2c565b9150613439826142e6565b604082019050919050565b6000613451602983613b2c565b915061345c82614335565b604082019050919050565b6000613474602883613b2c565b915061347f82614384565b604082019050919050565b6000613497602183613b2c565b91506134a2826143d3565b604082019050919050565b6134b681613c88565b82525050565b6134c581613c97565b82525050565b6134d481613c97565b82525050565b60006020820190506134ef60008301846130e0565b92915050565b600060a08201905061350a60008301886130e0565b61351760208301876130e0565b818103604083015261352981866130ef565b9050818103606083015261353d81856130ef565b90508181036080830152613551818461315c565b90509695505050505050565b600060a08201905061357260008301886130e0565b61357f60208301876130e0565b61358c60408301866134cb565b61359960608301856134cb565b81810360808301526135ab818461315c565b90509695505050505050565b60006040820190506135cc60008301856130e0565b6135d960208301846134ad565b9392505050565b60006040820190506135f560008301856130e0565b61360260208301846134cb565b9392505050565b6000602082019050818103600083015261362381846130ef565b905092915050565b6000604082019050818103600083015261364581856130ef565b9050818103602083015261365981846130ef565b90509392505050565b6000602082019050613677600083018461314d565b92915050565b600060208201905081810360008301526136978184613195565b905092915050565b600060208201905081810360008301526136b8816131ce565b9050919050565b600060208201905081810360008301526136d8816131f1565b9050919050565b600060208201905081810360008301526136f881613214565b9050919050565b6000602082019050818103600083015261371881613237565b9050919050565b600060208201905081810360008301526137388161325a565b9050919050565b600060208201905081810360008301526137588161327d565b9050919050565b60006020820190508181036000830152613778816132a0565b9050919050565b60006020820190508181036000830152613798816132c3565b9050919050565b600060208201905081810360008301526137b8816132e6565b9050919050565b600060208201905081810360008301526137d881613309565b9050919050565b600060208201905081810360008301526137f88161332c565b9050919050565b600060208201905081810360008301526138188161334f565b9050919050565b6000602082019050818103600083015261383881613372565b9050919050565b6000602082019050818103600083015261385881613395565b9050919050565b60006020820190508181036000830152613878816133b8565b9050919050565b60006020820190508181036000830152613898816133db565b9050919050565b600060208201905081810360008301526138b8816133fe565b9050919050565b600060208201905081810360008301526138d881613421565b9050919050565b600060208201905081810360008301526138f881613444565b9050919050565b6000602082019050818103600083015261391881613467565b9050919050565b600060208201905081810360008301526139388161348a565b9050919050565b600060208201905061395460008301846134cb565b92915050565b600060408201905061396f60008301856134cb565b61397c60208301846134cb565b9392505050565b600060608201905061399860008301866134cb565b6139a560208301856134cb565b81810360408301526139b78184613195565b9050949350505050565b60006139cb6139dc565b90506139d78282613d15565b919050565b6000604051905090565b600067ffffffffffffffff821115613a0157613a00613e1c565b5b602082029050602081019050919050565b600067ffffffffffffffff821115613a2d57613a2c613e1c565b5b602082029050602081019050919050565b600067ffffffffffffffff821115613a5957613a58613e1c565b5b602082029050602081019050919050565b600067ffffffffffffffff821115613a8557613a84613e1c565b5b613a8e82613e6d565b9050602081019050919050565b600067ffffffffffffffff821115613ab657613ab5613e1c565b5b613abf82613e6d565b9050602081019050919050565b6000819050602082019050919050565b600081519050919050565b600081519050919050565b600081519050919050565b6000602082019050919050565b600082825260208201905092915050565b600082825260208201905092915050565b600082825260208201905092915050565b6000613b4882613c97565b9150613b5383613c97565b9250827fffffffffffffffffffffffffffffffffffffffffffffffffffffffffffffffff03821115613b8857613b87613d8f565b5b828201905092915050565b6000613b9e82613c97565b9150613ba983613c97565b925082613bb957613bb8613dbe565b5b828204905092915050565b6000613bcf82613c97565b9150613bda83613c97565b9250817fffffffffffffffffffffffffffffffffffffffffffffffffffffffffffffffff0483118215151615613c1357613c12613d8f565b5b828202905092915050565b6000613c2982613c68565b9050919050565b60008115159050919050565b60007fffffffff0000000000000000000000000000000000000000000000000000000082169050919050565b600073ffffffffffffffffffffffffffffffffffffffff82169050919050565b600062ffffff82169050919050565b6000819050919050565b82818337600083830152505050565b60005b83811015613cce578082015181840152602081019050613cb3565b83811115613cdd576000848401525b50505050565b60006002820490506001821680613cfb57607f821691505b60208210811415613d0f57613d0e613ded565b5b50919050565b613d1e82613e6d565b810181811067ffffffffffffffff82111715613d3d57613d3c613e1c565b5b80604052505050565b6000613d5182613c97565b91507fffffffffffffffffffffffffffffffffffffffffffffffffffffffffffffffff821415613d8457613d83613d8f565b5b600182019050919050565b7f4e487b7100000000000000000000000000000000000000000000000000000000600052601160045260246000fd5b7f4e487b7100000000000000000000000000000000000000000000000000000000600052601260045260246000fd5b7f4e487b7100000000000000000000000000000000000000000000000000000000600052602260045260246000fd5b7f4e487b7100000000000000000000000000000000000000000000000000000000600052604160045260246000fd5b600060033d1115613e6a5760046000803e613e67600051613e7e565b90505b90565b6000601f19601f8301169050919050565b60008160e01c9050919050565b7f455243313135353a207472616e7366657220746f206e6f6e204552433131353560008201527f526563656976657220696d706c656d656e746572000000000000000000000000602082015250565b7f455243313135353a204552433131353552656365697665722072656a6563746560008201527f6420746f6b656e73000000000000000000000000000000000000000000000000602082015250565b7f455243313135353a2062616c616e636520717565727920666f7220746865207a60008201527f65726f2061646472657373000000000000000000000000000000000000000000602082015250565b7f4f776e61626c653a206e6577206f776e657220697320746865207a65726f206160008201527f6464726573730000000000000000000000000000000000000000000000000000602082015250565b7f526f79616c7469657320546f6f20686967680000000000000000000000000000600082015250565b7f455243313135353a2063616c6c6572206973206e6f74206f776e6572206e6f7260008201527f20617070726f7665640000000000000000000000000000000000000000000000602082015250565b7f416d6f756e742073686f756c6420626520706f73697469766500000000000000600082015250565b7f455243313135353a207472616e7366657220746f20746865207a65726f20616460008201527f6472657373000000000000000000000000000000000000000000000000000000602082015250565b7f455243313135353a207472616e736665722063616c6c6572206973206e6f742060008201527f6f776e6572206e6f7220617070726f7665640000000000000000000000000000602082015250565b7f496e697469616c697a61626c653a20636f6e747261637420697320616c72656160008201527f647920696e697469616c697a6564000000000000000000000000000000000000602082015250565b7f455243313135353a20696e73756666696369656e742062616c616e636520666f60008201527f72207472616e7366657200000000000000000000000000000000000000000000602082015250565b7f526f79616c74792069732073616d652061732070726576696f75732076616c7560008201527f6500000000000000000000000000000000000000000000000000000000000000602082015250565b7f4f776e61626c653a2063616c6c6572206973206e6f7420746865206f776e6572600082015250565b7f526f79616c747920657863656564732031303025000000000000000000000000600082015250565b7f546f6b656e20697320616c7265616479206d696e746564000000000000000000600082015250565b7f496e697469616c697a61626c653a20636f6e7472616374206973206e6f74206960008201527f6e697469616c697a696e67000000000000000000000000000000000000000000602082015250565b7f746f6b656e5552492073686f756c642062652073657400000000000000000000600082015250565b7f455243313135353a2073657474696e6720617070726f76616c2073746174757360008201527f20666f722073656c660000000000000000000000000000000000000000000000602082015250565b7f455243313135353a206163636f756e747320616e6420696473206c656e67746860008201527f206d69736d617463680000000000000000000000000000000000000000000000602082015250565b7f455243313135353a2069647320616e6420616d6f756e7473206c656e6774682060008201527f6d69736d61746368000000000000000000000000000000000000000000000000602082015250565b7f455243313135353a206d696e7420746f20746865207a65726f2061646472657360008201527f7300000000000000000000000000000000000000000000000000000000000000602082015250565b600060443d1015614432576144b5565b61443a6139dc565b60043d036004823e80513d602482011167ffffffffffffffff821117156144625750506144b5565b808201805167ffffffffffffffff81111561448057505050506144b5565b80602083010160043d03850181111561449d5750505050506144b5565b6144ac82602001850186613d15565b82955050505050505b90565b6144c181613c1e565b81146144cc57600080fd5b50565b6144d881613c30565b81146144e357600080fd5b50565b6144ef81613c3c565b81146144fa57600080fd5b50565b61450681613c97565b811461451157600080fd5b5056fea26469706673582212208450d0a43bf10cc2200f0dddf8ec52aeeea2442dcb52c4d52deabed96538ef6064736f6c63430008040033",
  "linkReferences": {},
  "deployedLinkReferences": {}
}